{
  "contractName": "OnChainSweaters",
  "abi": [
    {
      "inputs": [],
      "stateMutability": "nonpayable",
      "type": "constructor"
    },
    {
      "anonymous": false,
      "inputs": [
        {
          "indexed": true,
          "internalType": "address",
          "name": "owner",
          "type": "address"
        },
        {
          "indexed": true,
          "internalType": "address",
          "name": "approved",
          "type": "address"
        },
        {
          "indexed": true,
          "internalType": "uint256",
          "name": "tokenId",
          "type": "uint256"
        }
      ],
      "name": "Approval",
      "type": "event"
    },
    {
      "anonymous": false,
      "inputs": [
        {
          "indexed": true,
          "internalType": "address",
          "name": "owner",
          "type": "address"
        },
        {
          "indexed": true,
          "internalType": "address",
          "name": "operator",
          "type": "address"
        },
        {
          "indexed": false,
          "internalType": "bool",
          "name": "approved",
          "type": "bool"
        }
      ],
      "name": "ApprovalForAll",
      "type": "event"
    },
    {
      "anonymous": false,
      "inputs": [
        {
          "indexed": false,
          "internalType": "address",
          "name": "claimer",
          "type": "address"
        },
        {
          "indexed": true,
          "internalType": "uint256",
          "name": "tokenId",
          "type": "uint256"
        },
        {
          "indexed": false,
          "internalType": "address",
          "name": "tx",
          "type": "address"
        }
      ],
      "name": "ClaimedSweater",
      "type": "event"
    },
    {
      "anonymous": false,
      "inputs": [
        {
          "indexed": true,
          "internalType": "uint256",
          "name": "tokenId",
          "type": "uint256"
        },
        {
          "indexed": false,
          "internalType": "uint256",
          "name": "dna",
          "type": "uint256"
        }
      ],
      "name": "GenerateSweater",
      "type": "event"
    },
    {
      "anonymous": false,
      "inputs": [
        {
          "indexed": true,
          "internalType": "address",
          "name": "previousOwner",
          "type": "address"
        },
        {
          "indexed": true,
          "internalType": "address",
          "name": "newOwner",
          "type": "address"
        }
      ],
      "name": "OwnershipTransferred",
      "type": "event"
    },
    {
      "anonymous": false,
      "inputs": [
        {
          "indexed": false,
          "internalType": "address",
          "name": "account",
          "type": "address"
        }
      ],
      "name": "Paused",
      "type": "event"
    },
    {
      "anonymous": false,
      "inputs": [
        {
          "indexed": true,
          "internalType": "address",
          "name": "from",
          "type": "address"
        },
        {
          "indexed": true,
          "internalType": "address",
          "name": "to",
          "type": "address"
        },
        {
          "indexed": true,
          "internalType": "uint256",
          "name": "tokenId",
          "type": "uint256"
        }
      ],
      "name": "Transfer",
      "type": "event"
    },
    {
      "anonymous": false,
      "inputs": [
        {
          "indexed": false,
          "internalType": "address",
          "name": "account",
          "type": "address"
        }
      ],
      "name": "Unpaused",
      "type": "event"
    },
    {
      "inputs": [],
      "name": "FOUNDERS_RESERVE_AMOUNT",
      "outputs": [
        {
          "internalType": "uint256",
          "name": "",
          "type": "uint256"
        }
      ],
      "stateMutability": "view",
      "type": "function",
      "constant": true
    },
    {
      "inputs": [],
      "name": "MAX_FREE_MINT_SUPPLY",
      "outputs": [
        {
          "internalType": "uint256",
          "name": "",
          "type": "uint256"
        }
      ],
      "stateMutability": "view",
      "type": "function",
      "constant": true
    },
    {
      "inputs": [],
      "name": "MAX_PUBLIC_SUPPLY",
      "outputs": [
        {
          "internalType": "uint256",
          "name": "",
          "type": "uint256"
        }
      ],
      "stateMutability": "view",
      "type": "function",
      "constant": true
    },
    {
      "inputs": [],
      "name": "MAX_SUPPLY",
      "outputs": [
        {
          "internalType": "uint256",
          "name": "",
          "type": "uint256"
        }
      ],
      "stateMutability": "view",
      "type": "function",
      "constant": true
    },
    {
      "inputs": [],
      "name": "MINT_PRICE",
      "outputs": [
        {
          "internalType": "uint256",
          "name": "",
          "type": "uint256"
        }
      ],
      "stateMutability": "view",
      "type": "function",
      "constant": true
    },
    {
      "inputs": [
        {
          "internalType": "address",
          "name": "to",
          "type": "address"
        },
        {
          "internalType": "uint256",
          "name": "tokenId",
          "type": "uint256"
        }
      ],
      "name": "approve",
      "outputs": [],
      "stateMutability": "nonpayable",
      "type": "function"
    },
    {
      "inputs": [
        {
          "internalType": "address",
          "name": "owner",
          "type": "address"
        }
      ],
      "name": "balanceOf",
      "outputs": [
        {
          "internalType": "uint256",
          "name": "",
          "type": "uint256"
        }
      ],
      "stateMutability": "view",
      "type": "function",
      "constant": true
    },
    {
      "inputs": [],
      "name": "burningActive",
      "outputs": [
        {
          "internalType": "bool",
          "name": "",
          "type": "bool"
        }
      ],
      "stateMutability": "view",
      "type": "function",
      "constant": true
    },
    {
      "inputs": [],
      "name": "claimActive",
      "outputs": [
        {
          "internalType": "bool",
          "name": "",
          "type": "bool"
        }
      ],
      "stateMutability": "view",
      "type": "function",
      "constant": true
    },
    {
      "inputs": [
        {
          "internalType": "uint256",
          "name": "",
          "type": "uint256"
        }
      ],
      "name": "claimedTokenTransactions",
      "outputs": [
        {
          "internalType": "address",
          "name": "",
          "type": "address"
        }
      ],
      "stateMutability": "view",
      "type": "function",
      "constant": true
    },
    {
      "inputs": [
        {
          "internalType": "uint256",
          "name": "tokenId",
          "type": "uint256"
        }
      ],
      "name": "getApproved",
      "outputs": [
        {
          "internalType": "address",
          "name": "",
          "type": "address"
        }
      ],
      "stateMutability": "view",
      "type": "function",
      "constant": true
    },
    {
      "inputs": [
        {
          "internalType": "address",
          "name": "owner",
          "type": "address"
        },
        {
          "internalType": "address",
          "name": "operator",
          "type": "address"
        }
      ],
      "name": "isApprovedForAll",
      "outputs": [
        {
          "internalType": "bool",
          "name": "",
          "type": "bool"
        }
      ],
      "stateMutability": "view",
      "type": "function",
      "constant": true
    },
    {
      "inputs": [],
      "name": "mintActive",
      "outputs": [
        {
          "internalType": "bool",
          "name": "",
          "type": "bool"
        }
      ],
      "stateMutability": "view",
      "type": "function",
      "constant": true
    },
    {
      "inputs": [
        {
          "internalType": "address",
          "name": "",
          "type": "address"
        }
      ],
      "name": "mintedCounts",
      "outputs": [
        {
          "internalType": "uint256",
          "name": "",
          "type": "uint256"
        }
      ],
      "stateMutability": "view",
      "type": "function",
      "constant": true
    },
    {
      "inputs": [],
      "name": "name",
      "outputs": [
        {
          "internalType": "string",
          "name": "",
          "type": "string"
        }
      ],
      "stateMutability": "view",
      "type": "function",
      "constant": true
    },
    {
      "inputs": [],
      "name": "owner",
      "outputs": [
        {
          "internalType": "address",
          "name": "",
          "type": "address"
        }
      ],
      "stateMutability": "view",
      "type": "function",
      "constant": true
    },
    {
      "inputs": [
        {
          "internalType": "uint256",
          "name": "tokenId",
          "type": "uint256"
        }
      ],
      "name": "ownerOf",
      "outputs": [
        {
          "internalType": "address",
          "name": "",
          "type": "address"
        }
      ],
      "stateMutability": "view",
      "type": "function",
      "constant": true
    },
    {
      "inputs": [],
      "name": "paused",
      "outputs": [
        {
          "internalType": "bool",
          "name": "",
          "type": "bool"
        }
      ],
      "stateMutability": "view",
      "type": "function",
      "constant": true
    },
    {
      "inputs": [],
      "name": "publicSaleStartTimestamp",
      "outputs": [
        {
          "internalType": "uint256",
          "name": "",
          "type": "uint256"
        }
      ],
      "stateMutability": "view",
      "type": "function",
      "constant": true
    },
    {
      "inputs": [],
      "name": "renderingContractAddress",
      "outputs": [
        {
          "internalType": "address",
          "name": "",
          "type": "address"
        }
      ],
      "stateMutability": "view",
      "type": "function",
      "constant": true
    },
    {
      "inputs": [],
      "name": "renounceOwnership",
      "outputs": [],
      "stateMutability": "nonpayable",
      "type": "function"
    },
    {
      "inputs": [
        {
          "internalType": "address",
          "name": "from",
          "type": "address"
        },
        {
          "internalType": "address",
          "name": "to",
          "type": "address"
        },
        {
          "internalType": "uint256",
          "name": "tokenId",
          "type": "uint256"
        }
      ],
      "name": "safeTransferFrom",
      "outputs": [],
      "stateMutability": "nonpayable",
      "type": "function"
    },
    {
      "inputs": [
        {
          "internalType": "address",
          "name": "from",
          "type": "address"
        },
        {
          "internalType": "address",
          "name": "to",
          "type": "address"
        },
        {
          "internalType": "uint256",
          "name": "tokenId",
          "type": "uint256"
        },
        {
          "internalType": "bytes",
          "name": "_data",
          "type": "bytes"
        }
      ],
      "name": "safeTransferFrom",
      "outputs": [],
      "stateMutability": "nonpayable",
      "type": "function"
    },
    {
      "inputs": [
        {
          "internalType": "address",
          "name": "operator",
          "type": "address"
        },
        {
          "internalType": "bool",
          "name": "approved",
          "type": "bool"
        }
      ],
      "name": "setApprovalForAll",
      "outputs": [],
      "stateMutability": "nonpayable",
      "type": "function"
    },
    {
      "inputs": [
        {
          "internalType": "bytes4",
          "name": "interfaceId",
          "type": "bytes4"
        }
      ],
      "name": "supportsInterface",
      "outputs": [
        {
          "internalType": "bool",
          "name": "",
          "type": "bool"
        }
      ],
      "stateMutability": "view",
      "type": "function",
      "constant": true
    },
    {
      "inputs": [],
      "name": "symbol",
      "outputs": [
        {
          "internalType": "string",
          "name": "",
          "type": "string"
        }
      ],
      "stateMutability": "view",
      "type": "function",
      "constant": true
    },
    {
      "inputs": [
        {
          "internalType": "address",
          "name": "from",
          "type": "address"
        },
        {
          "internalType": "address",
          "name": "to",
          "type": "address"
        },
        {
          "internalType": "uint256",
          "name": "tokenId",
          "type": "uint256"
        }
      ],
      "name": "transferFrom",
      "outputs": [],
      "stateMutability": "nonpayable",
      "type": "function"
    },
    {
      "inputs": [
        {
          "internalType": "address",
          "name": "newOwner",
          "type": "address"
        }
      ],
      "name": "transferOwnership",
      "outputs": [],
      "stateMutability": "nonpayable",
      "type": "function"
    },
    {
      "stateMutability": "payable",
      "type": "receive",
      "payable": true
    },
    {
      "inputs": [],
      "name": "getTotalMinted",
      "outputs": [
        {
          "internalType": "uint256",
          "name": "",
          "type": "uint256"
        }
      ],
      "stateMutability": "view",
      "type": "function",
      "constant": true
    },
    {
      "inputs": [
        {
          "internalType": "address",
          "name": "_addr",
          "type": "address"
        }
      ],
      "name": "getRemainingFounderMints",
      "outputs": [
        {
          "internalType": "uint256",
          "name": "",
          "type": "uint256"
        }
      ],
      "stateMutability": "view",
      "type": "function",
      "constant": true
    },
    {
      "inputs": [],
      "name": "isPublicSaleOpen",
      "outputs": [
        {
          "internalType": "bool",
          "name": "",
          "type": "bool"
        }
      ],
      "stateMutability": "view",
      "type": "function",
      "constant": true
    },
    {
      "inputs": [],
      "name": "isClaimOpen",
      "outputs": [
        {
          "internalType": "bool",
          "name": "",
          "type": "bool"
        }
      ],
      "stateMutability": "view",
      "type": "function",
      "constant": true
    },
    {
      "inputs": [],
      "name": "isBurningOpen",
      "outputs": [
        {
          "internalType": "bool",
          "name": "",
          "type": "bool"
        }
      ],
      "stateMutability": "view",
      "type": "function",
      "constant": true
    },
    {
      "inputs": [
        {
          "internalType": "address",
          "name": "_renderingContractAddress",
          "type": "address"
        }
      ],
      "name": "setRenderingContractAddress",
      "outputs": [],
      "stateMutability": "nonpayable",
      "type": "function"
    },
    {
      "inputs": [
        {
          "internalType": "uint256",
          "name": "timestamp",
          "type": "uint256"
        }
      ],
      "name": "setPublicSaleTimestamp",
      "outputs": [],
      "stateMutability": "nonpayable",
      "type": "function"
    },
    {
      "inputs": [
        {
          "internalType": "bool",
          "name": "value",
          "type": "bool"
        }
      ],
      "name": "setMintStatus",
      "outputs": [],
      "stateMutability": "nonpayable",
      "type": "function"
    },
    {
      "inputs": [],
      "name": "closeMintsOpenBurning",
      "outputs": [],
      "stateMutability": "nonpayable",
      "type": "function"
    },
    {
      "inputs": [
        {
          "internalType": "bool",
          "name": "value",
          "type": "bool"
        }
      ],
      "name": "setClaimStatus",
      "outputs": [],
      "stateMutability": "nonpayable",
      "type": "function"
    },
    {
      "inputs": [
        {
          "internalType": "uint256",
          "name": "_count",
          "type": "uint256"
        }
      ],
      "name": "mintPublicSale",
      "outputs": [
        {
          "internalType": "uint256",
          "name": "",
          "type": "uint256"
        },
        {
          "internalType": "uint256",
          "name": "",
          "type": "uint256"
        }
      ],
      "stateMutability": "payable",
      "type": "function",
      "payable": true
    },
    {
      "inputs": [
        {
          "internalType": "address",
          "name": "_addr",
          "type": "address"
        },
        {
          "internalType": "uint256",
          "name": "_count",
          "type": "uint256"
        }
      ],
      "name": "allocateFounderMint",
      "outputs": [],
      "stateMutability": "nonpayable",
      "type": "function"
    },
    {
      "inputs": [
        {
          "internalType": "uint256",
          "name": "_count",
          "type": "uint256"
        }
      ],
      "name": "founderMint",
      "outputs": [
        {
          "internalType": "uint256",
          "name": "",
          "type": "uint256"
        },
        {
          "internalType": "uint256",
          "name": "",
          "type": "uint256"
        }
      ],
      "stateMutability": "nonpayable",
      "type": "function"
    },
    {
      "inputs": [
        {
          "internalType": "uint256[]",
          "name": "tokenIds",
          "type": "uint256[]"
        }
      ],
      "name": "burnAndMint",
      "outputs": [
        {
          "internalType": "uint256",
          "name": "",
          "type": "uint256"
        },
        {
          "internalType": "uint256",
          "name": "",
          "type": "uint256"
        }
      ],
      "stateMutability": "nonpayable",
      "type": "function"
    },
    {
      "inputs": [
        {
          "internalType": "uint256",
          "name": "_tokenId",
          "type": "uint256"
        }
      ],
      "name": "tokenURI",
      "outputs": [
        {
          "internalType": "string",
          "name": "",
          "type": "string"
        }
      ],
      "stateMutability": "view",
      "type": "function",
      "constant": true
    },
    {
      "inputs": [
        {
          "internalType": "uint256",
          "name": "_tokenId",
          "type": "uint256"
        }
      ],
      "name": "claimSweater",
      "outputs": [
        {
          "internalType": "address",
          "name": "",
          "type": "address"
        }
      ],
      "stateMutability": "nonpayable",
      "type": "function"
    },
    {
      "inputs": [
        {
          "internalType": "uint256",
          "name": "_tokenId",
          "type": "uint256"
        }
      ],
      "name": "getHighQualityClaimedSweater",
      "outputs": [
        {
          "internalType": "string",
          "name": "",
          "type": "string"
        }
      ],
      "stateMutability": "view",
      "type": "function",
      "constant": true
    },
    {
      "inputs": [
        {
          "internalType": "uint256",
          "name": "_tokenId",
          "type": "uint256"
        }
      ],
      "name": "getDna",
      "outputs": [
        {
          "internalType": "uint256",
          "name": "",
          "type": "uint256"
        }
      ],
      "stateMutability": "view",
      "type": "function",
      "constant": true
    },
    {
      "inputs": [],
      "name": "withdraw",
      "outputs": [],
      "stateMutability": "nonpayable",
      "type": "function"
    }
  ],
  "bytecode": "0x60806040526000600e60146101000a81548160ff0219169083151502179055506001600e60156101000a81548160ff0219169083151502179055506000600e60166101000a81548160ff0219169083151502179055503480156200006257600080fd5b506040518060400160405280601581526020017f586d6173205377656174657273204f6e436861696e00000000000000000000008152506040518060400160405280600581526020017f53574541540000000000000000000000000000000000000000000000000000008152508160009080519060200190620000e79291906200021a565b508060019080519060200190620001009291906200021a565b50505062000123620001176200014c60201b60201c565b6200015460201b60201c565b60016007819055506000600860006101000a81548160ff0219169083151502179055506200032f565b600033905090565b6000600660009054906101000a900473ffffffffffffffffffffffffffffffffffffffff16905081600660006101000a81548173ffffffffffffffffffffffffffffffffffffffff021916908373ffffffffffffffffffffffffffffffffffffffff1602179055508173ffffffffffffffffffffffffffffffffffffffff168173ffffffffffffffffffffffffffffffffffffffff167f8be0079c531659141344cd1fd0a4f28419497f9722a3daafe3b4186f6b6457e060405160405180910390a35050565b8280546200022890620002f9565b90600052602060002090601f0160209004810192826200024c576000855562000298565b82601f106200026757805160ff191683800117855562000298565b8280016001018555821562000298579182015b82811115620002975782518255916020019190600101906200027a565b5b509050620002a79190620002ab565b5090565b5b80821115620002c6576000816000905550600101620002ac565b5090565b7f4e487b7100000000000000000000000000000000000000000000000000000000600052602260045260246000fd5b600060028204905060018216806200031257607f821691505b60208210811415620003295762000328620002ca565b5b50919050565b615add806200033f6000396000f3fe60806040526004361061028c5760003560e01c80636352211e1161015a578063c002d23d116100c1578063d99287ec1161007a578063d99287ec14610a0c578063e985e9c514610a23578063efc0172914610a60578063f252460114610a8b578063f2fde38b14610ac8578063f42202e814610af157610293565b8063c002d23d146108e6578063c074f41214610911578063c87b56dd1461093c578063d4a6a2fd14610979578063d7822c99146109a4578063d80edd53146109cf57610293565b80638da5cb5b116101135780638da5cb5b146107c357806395d89b41146107ee5780639efacb4914610819578063a22cb46514610856578063b007e1881461087f578063b88d4fde146108bd57610293565b80636352211e146106b5578063654f97a3146106f25780636afc83271461071b57806370a0823114610746578063715018a6146107835780637dd0dbb51461079a57610293565b806325fd90f3116101fe578063422627c3116101b7578063422627c31461059f57806342842e0e146105dc578063511a9605146106055780635a5e5d581461062e5780635b439f0e1461065f5780635c975abb1461068a57610293565b806325fd90f31461048d5780632a47f799146104b857806332cb6b0c146104e357806333af1d571461050e57806337e4f2f61461054b5780633ccfd60b1461058857610293565b806312b40a9f1161025057806312b40a9f146103915780631a6949e3146103ba5780631c7c2598146103e55780631f85e3ca1461041057806323b872dd1461043957806324fd26521461046257610293565b806301ffc9a71461029857806306fdde03146102d5578063081812fc14610300578063095ea7b31461033d5780630ca1c5c91461036657610293565b3661029357005b600080fd5b3480156102a457600080fd5b506102bf60048036038101906102ba9190613a15565b610b2f565b6040516102cc9190613a5d565b60405180910390f35b3480156102e157600080fd5b506102ea610c11565b6040516102f79190613b11565b60405180910390f35b34801561030c57600080fd5b5061032760048036038101906103229190613b69565b610ca3565b6040516103349190613bd7565b60405180910390f35b34801561034957600080fd5b50610364600480360381019061035f9190613c1e565b610d28565b005b34801561037257600080fd5b5061037b610e40565b6040516103889190613c6d565b60405180910390f35b34801561039d57600080fd5b506103b860048036038101906103b39190613c88565b610e79565b005b3480156103c657600080fd5b506103cf610f39565b6040516103dc9190613a5d565b60405180910390f35b3480156103f157600080fd5b506103fa610f55565b6040516104079190613a5d565b60405180910390f35b34801561041c57600080fd5b5061043760048036038101906104329190613ce1565b610f68565b005b34801561044557600080fd5b50610460600480360381019061045b9190613d0e565b611001565b005b34801561046e57600080fd5b50610477611061565b6040516104849190613a5d565b60405180910390f35b34801561049957600080fd5b506104a2611078565b6040516104af9190613a5d565b60405180910390f35b3480156104c457600080fd5b506104cd61108b565b6040516104da9190613c6d565b60405180910390f35b3480156104ef57600080fd5b506104f86110aa565b6040516105059190613c6d565b60405180910390f35b34801561051a57600080fd5b5061053560048036038101906105309190613b69565b6110b0565b6040516105429190613bd7565b60405180910390f35b34801561055757600080fd5b50610572600480360381019061056d9190613c88565b6110e3565b60405161057f9190613c6d565b60405180910390f35b34801561059457600080fd5b5061059d6110fb565b005b3480156105ab57600080fd5b506105c660048036038101906105c19190613b69565b611226565b6040516105d39190613c6d565b60405180910390f35b3480156105e857600080fd5b5061060360048036038101906105fe9190613d0e565b611246565b005b34801561061157600080fd5b5061062c60048036038101906106279190613b69565b611266565b005b61064860048036038101906106439190613b69565b6112ec565b604051610656929190613d61565b60405180910390f35b34801561066b57600080fd5b50610674611669565b6040516106819190613c6d565b60405180910390f35b34801561069657600080fd5b5061069f61166e565b6040516106ac9190613a5d565b60405180910390f35b3480156106c157600080fd5b506106dc60048036038101906106d79190613b69565b611685565b6040516106e99190613bd7565b60405180910390f35b3480156106fe57600080fd5b5061071960048036038101906107149190613ce1565b611737565b005b34801561072757600080fd5b506107306117d0565b60405161073d9190613a5d565b60405180910390f35b34801561075257600080fd5b5061076d60048036038101906107689190613c88565b6117e7565b60405161077a9190613c6d565b60405180910390f35b34801561078f57600080fd5b5061079861189f565b005b3480156107a657600080fd5b506107c160048036038101906107bc9190613c1e565b611927565b005b3480156107cf57600080fd5b506107d8611a41565b6040516107e59190613bd7565b60405180910390f35b3480156107fa57600080fd5b50610803611a6b565b6040516108109190613b11565b60405180910390f35b34801561082557600080fd5b50610840600480360381019061083b9190613b69565b611afd565b60405161084d9190613b11565b60405180910390f35b34801561086257600080fd5b5061087d60048036038101906108789190613d8a565b611d11565b005b34801561088b57600080fd5b506108a660048036038101906108a19190613e2f565b611e92565b6040516108b4929190613d61565b60405180910390f35b3480156108c957600080fd5b506108e460048036038101906108df9190613fac565b61234a565b005b3480156108f257600080fd5b506108fb6123ac565b6040516109089190613c6d565b60405180910390f35b34801561091d57600080fd5b506109266123b7565b6040516109339190613bd7565b60405180910390f35b34801561094857600080fd5b50610963600480360381019061095e9190613b69565b6123dd565b6040516109709190613b11565b60405180910390f35b34801561098557600080fd5b5061098e612562565b60405161099b9190613a5d565b60405180910390f35b3480156109b057600080fd5b506109b9612575565b6040516109c69190613c6d565b60405180910390f35b3480156109db57600080fd5b506109f660048036038101906109f19190613b69565b61257b565b604051610a039190613bd7565b60405180910390f35b348015610a1857600080fd5b50610a216127f9565b005b348015610a2f57600080fd5b50610a4a6004803603810190610a45919061402f565b6128ad565b604051610a579190613a5d565b60405180910390f35b348015610a6c57600080fd5b50610a75612941565b604051610a829190613c6d565b60405180910390f35b348015610a9757600080fd5b50610ab26004803603810190610aad9190613c88565b612947565b604051610abf9190613c6d565b60405180910390f35b348015610ad457600080fd5b50610aef6004803603810190610aea9190613c88565b612990565b005b348015610afd57600080fd5b50610b186004803603810190610b139190613b69565b612a88565b604051610b26929190613d61565b60405180910390f35b60007f80ac58cd000000000000000000000000000000000000000000000000000000007bffffffffffffffffffffffffffffffffffffffffffffffffffffffff1916827bffffffffffffffffffffffffffffffffffffffffffffffffffffffff19161480610bfa57507f5b5e139f000000000000000000000000000000000000000000000000000000007bffffffffffffffffffffffffffffffffffffffffffffffffffffffff1916827bffffffffffffffffffffffffffffffffffffffffffffffffffffffff1916145b80610c0a5750610c0982612d10565b5b9050919050565b606060008054610c209061409e565b80601f0160208091040260200160405190810160405280929190818152602001828054610c4c9061409e565b8015610c995780601f10610c6e57610100808354040283529160200191610c99565b820191906000526020600020905b815481529060010190602001808311610c7c57829003601f168201915b5050505050905090565b6000610cae82612d7a565b610ced576040517f08c379a0000000000000000000000000000000000000000000000000000000008152600401610ce490614142565b60405180910390fd5b6004600083815260200190815260200160002060009054906101000a900473ffffffffffffffffffffffffffffffffffffffff169050919050565b6000610d3382611685565b90508073ffffffffffffffffffffffffffffffffffffffff168373ffffffffffffffffffffffffffffffffffffffff161415610da4576040517f08c379a0000000000000000000000000000000000000000000000000000000008152600401610d9b906141d4565b60405180910390fd5b8073ffffffffffffffffffffffffffffffffffffffff16610dc3612de6565b73ffffffffffffffffffffffffffffffffffffffff161480610df25750610df181610dec612de6565b6128ad565b5b610e31576040517f08c379a0000000000000000000000000000000000000000000000000000000008152600401610e2890614266565b60405180910390fd5b610e3b8383612dee565b505050565b6000610e4c600b612ea7565b610e56600a612ea7565b610e60600c612ea7565b610e6a91906142b5565b610e7491906142b5565b905090565b610e81612de6565b73ffffffffffffffffffffffffffffffffffffffff16610e9f611a41565b73ffffffffffffffffffffffffffffffffffffffff1614610ef5576040517f08c379a0000000000000000000000000000000000000000000000000000000008152600401610eec90614357565b60405180910390fd5b80600e60006101000a81548173ffffffffffffffffffffffffffffffffffffffff021916908373ffffffffffffffffffffffffffffffffffffffff16021790555050565b6000600d544210158015610f5057506000600d5414155b905090565b600e60169054906101000a900460ff1681565b610f70612de6565b73ffffffffffffffffffffffffffffffffffffffff16610f8e611a41565b73ffffffffffffffffffffffffffffffffffffffff1614610fe4576040517f08c379a0000000000000000000000000000000000000000000000000000000008152600401610fdb90614357565b60405180910390fd5b80600e60156101000a81548160ff02191690831515021790555050565b61101261100c612de6565b82612eb5565b611051576040517f08c379a0000000000000000000000000000000000000000000000000000000008152600401611048906143e9565b60405180910390fd5b61105c838383612f93565b505050565b6000600e60149054906101000a900460ff16905090565b600e60159054906101000a900460ff1681565b600061014d610d0561109d9190614409565b6110a79190614409565b81565b610d0581565b600f6020528060005260406000206000915054906101000a900473ffffffffffffffffffffffffffffffffffffffff1681565b60106020528060005260406000206000915090505481565b611103612de6565b73ffffffffffffffffffffffffffffffffffffffff16611121611a41565b73ffffffffffffffffffffffffffffffffffffffff1614611177576040517f08c379a000000000000000000000000000000000000000000000000000000000815260040161116e90614357565b60405180910390fd5b60003373ffffffffffffffffffffffffffffffffffffffff164760405161119d9061446e565b60006040518083038185875af1925050503d80600081146111da576040519150601f19603f3d011682016040523d82523d6000602084013e6111df565b606091505b5050905080611223576040517f08c379a000000000000000000000000000000000000000000000000000000000815260040161121a906144cf565b60405180910390fd5b50565b600060096000838152602001908152602001600020600001549050919050565b6112618383836040518060200160405280600081525061234a565b505050565b61126e612de6565b73ffffffffffffffffffffffffffffffffffffffff1661128c611a41565b73ffffffffffffffffffffffffffffffffffffffff16146112e2576040517f08c379a00000000000000000000000000000000000000000000000000000000081526004016112d990614357565b60405180910390fd5b80600d8190555050565b60008060026007541415611335576040517f08c379a000000000000000000000000000000000000000000000000000000000815260040161132c9061453b565b60405180910390fd5b6002600781905550611345610f39565b801561135d5750600e60159054906101000a900460ff165b61139c576040517f08c379a0000000000000000000000000000000000000000000000000000000008152600401611393906145a7565b60405180910390fd5b6000831180156113ad5750600a8311155b6113ec576040517f08c379a00000000000000000000000000000000000000000000000000000000081526004016113e390614613565b60405180910390fd5b600061014d610d056113fe9190614409565b6114089190614409565b83611413600a612ea7565b61141d91906142b5565b111561145e576040517f08c379a00000000000000000000000000000000000000000000000000000000081526004016114559061467f565b60405180910390fd5b61014d600161146d600a612ea7565b61147791906142b5565b11156114d6573466470de4df82000084611491919061469f565b146114d1576040517f08c379a00000000000000000000000000000000000000000000000000000000081526004016114c890614745565b60405180910390fd5b61151a565b60003414611519576040517f08c379a0000000000000000000000000000000000000000000000000000000008152600401611510906147b1565b60405180910390fd5b5b600a83601060003373ffffffffffffffffffffffffffffffffffffffff1673ffffffffffffffffffffffffffffffffffffffff1681526020019081526020016000205461156791906142b5565b11156115a8576040517f08c379a000000000000000000000000000000000000000000000000000000000815260040161159f9061481d565b60405180910390fd5b600060016115b6600a612ea7565b6115c091906142b5565b905060005b848110156115fe576115d7600a6131ef565b6115eb6115e4600a612ea7565b6080613205565b80806115f69061483d565b9150506115c5565b5083601060003373ffffffffffffffffffffffffffffffffffffffff1673ffffffffffffffffffffffffffffffffffffffff168152602001908152602001600020600082825461164e91906142b5565b92505081905550808492509250506001600781905550915091565b600081565b6000600860009054906101000a900460ff16905090565b6000806002600084815260200190815260200160002060009054906101000a900473ffffffffffffffffffffffffffffffffffffffff169050600073ffffffffffffffffffffffffffffffffffffffff168173ffffffffffffffffffffffffffffffffffffffff16141561172e576040517f08c379a0000000000000000000000000000000000000000000000000000000008152600401611725906148f8565b60405180910390fd5b80915050919050565b61173f612de6565b73ffffffffffffffffffffffffffffffffffffffff1661175d611a41565b73ffffffffffffffffffffffffffffffffffffffff16146117b3576040517f08c379a00000000000000000000000000000000000000000000000000000000081526004016117aa90614357565b60405180910390fd5b80600e60146101000a81548160ff02191690831515021790555050565b6000600e60169054906101000a900460ff16905090565b60008073ffffffffffffffffffffffffffffffffffffffff168273ffffffffffffffffffffffffffffffffffffffff161415611858576040517f08c379a000000000000000000000000000000000000000000000000000000000815260040161184f9061498a565b60405180910390fd5b600360008373ffffffffffffffffffffffffffffffffffffffff1673ffffffffffffffffffffffffffffffffffffffff168152602001908152602001600020549050919050565b6118a7612de6565b73ffffffffffffffffffffffffffffffffffffffff166118c5611a41565b73ffffffffffffffffffffffffffffffffffffffff161461191b576040517f08c379a000000000000000000000000000000000000000000000000000000000815260040161191290614357565b60405180910390fd5b611925600061328a565b565b61192f612de6565b73ffffffffffffffffffffffffffffffffffffffff1661194d611a41565b73ffffffffffffffffffffffffffffffffffffffff16146119a3576040517f08c379a000000000000000000000000000000000000000000000000000000000815260040161199a90614357565b60405180910390fd5b600260075414156119e9576040517f08c379a00000000000000000000000000000000000000000000000000000000081526004016119e09061453b565b60405180910390fd5b600260078190555080601160008473ffffffffffffffffffffffffffffffffffffffff1673ffffffffffffffffffffffffffffffffffffffff1681526020019081526020016000208190555060016007819055505050565b6000600660009054906101000a900473ffffffffffffffffffffffffffffffffffffffff16905090565b606060018054611a7a9061409e565b80601f0160208091040260200160405190810160405280929190818152602001828054611aa69061409e565b8015611af35780601f10611ac857610100808354040283529160200191611af3565b820191906000526020600020905b815481529060010190602001808311611ad657829003601f168201915b5050505050905090565b6060600073ffffffffffffffffffffffffffffffffffffffff16600f600084815260200190815260200160002060009054906101000a900473ffffffffffffffffffffffffffffffffffffffff1673ffffffffffffffffffffffffffffffffffffffff161415611ba2576040517f08c379a0000000000000000000000000000000000000000000000000000000008152600401611b99906149f6565b60405180910390fd5b600073ffffffffffffffffffffffffffffffffffffffff16600e60009054906101000a900473ffffffffffffffffffffffffffffffffffffffff1673ffffffffffffffffffffffffffffffffffffffff161415611c1957604051806060016040528060268152602001615a82602691399050611d0c565b6000600e60009054906101000a900473ffffffffffffffffffffffffffffffffffffffff1690508073ffffffffffffffffffffffffffffffffffffffff1663b5f83b5f8460096000878152602001908152602001600020600f600088815260200190815260200160002060009054906101000a900473ffffffffffffffffffffffffffffffffffffffff166040518463ffffffff1660e01b8152600401611cc293929190614a9d565b600060405180830381865afa158015611cdf573d6000803e3d6000fd5b505050506040513d6000823e3d601f19601f82011682018060405250810190611d089190614b75565b9150505b919050565b611d19612de6565b73ffffffffffffffffffffffffffffffffffffffff168273ffffffffffffffffffffffffffffffffffffffff161415611d87576040517f08c379a0000000000000000000000000000000000000000000000000000000008152600401611d7e90614c0a565b60405180910390fd5b8060056000611d94612de6565b73ffffffffffffffffffffffffffffffffffffffff1673ffffffffffffffffffffffffffffffffffffffff16815260200190815260200160002060008473ffffffffffffffffffffffffffffffffffffffff1673ffffffffffffffffffffffffffffffffffffffff16815260200190815260200160002060006101000a81548160ff0219169083151502179055508173ffffffffffffffffffffffffffffffffffffffff16611e41612de6565b73ffffffffffffffffffffffffffffffffffffffff167f17307eab39ab6107e8899845ad3d59bd9653f200f220920489ca2b5937696c3183604051611e869190613a5d565b60405180910390a35050565b60008060026007541415611edb576040517f08c379a0000000000000000000000000000000000000000000000000000000008152600401611ed29061453b565b60405180910390fd5b6002600781905550611eeb6117d0565b611f2a576040517f08c379a0000000000000000000000000000000000000000000000000000000008152600401611f2190614c76565b60405180910390fd5b600084849050118015611f5a5750600061014d610d05611f4a9190614409565b611f549190614409565b84849050105b611f99576040517f08c379a0000000000000000000000000000000000000000000000000000000008152600401611f9090614d08565b60405180910390fd5b6000600285859050611fab9190614d57565b14611feb576040517f08c379a0000000000000000000000000000000000000000000000000000000008152600401611fe290614dfa565b60405180910390fd5b60005b8484905081101561225a57600061014d610d0561200b9190614409565b6120159190614409565b85858381811061202857612027614e1a565b5b905060200201351115801561207d5750600061014d610d0561204a9190614409565b6120549190614409565b858560018461206391906142b5565b81811061207357612072614e1a565b5b9050602002013511155b6120bc576040517f08c379a00000000000000000000000000000000000000000000000000000000081526004016120b390614e95565b60405180910390fd5b6120de8585838181106120d2576120d1614e1a565b5b90506020020135612d7a565b8015612114575061211385856001846120f791906142b5565b81811061210757612106614e1a565b5b90506020020135612d7a565b5b612153576040517f08c379a000000000000000000000000000000000000000000000000000000000815260040161214a90614f01565b60405180910390fd5b3373ffffffffffffffffffffffffffffffffffffffff1661218c8686848181106121805761217f614e1a565b5b90506020020135611685565b73ffffffffffffffffffffffffffffffffffffffff1614801561220757503373ffffffffffffffffffffffffffffffffffffffff166121ef86866001856121d391906142b5565b8181106121e3576121e2614e1a565b5b90506020020135611685565b73ffffffffffffffffffffffffffffffffffffffff16145b612246576040517f08c379a000000000000000000000000000000000000000000000000000000000815260040161223d90614f6d565b60405180910390fd5b60028161225391906142b5565b9050611fee565b506000612267600c612ea7565b6001610d0561227691906142b5565b61228091906142b5565b905060005b85859050811015612324576122d88686838181106122a6576122a5614e1a565b5b9050602002013587876001856122bc91906142b5565b8181106122cc576122cb614e1a565b5b90506020020135613350565b6122e2600c6131ef565b6123106122ef600c612ea7565b6001610d056122fe91906142b5565b61230891906142b5565b610100613205565b60028161231d91906142b5565b9050612285565b50806002868690506123369190614f8d565b925092505060016007819055509250929050565b61235b612355612de6565b83612eb5565b61239a576040517f08c379a0000000000000000000000000000000000000000000000000000000008152600401612391906143e9565b60405180910390fd5b6123a6848484846133df565b50505050565b66470de4df82000081565b600e60009054906101000a900473ffffffffffffffffffffffffffffffffffffffff1681565b60606123e882612d7a565b612427576040517f08c379a000000000000000000000000000000000000000000000000000000000815260040161241e9061500a565b60405180910390fd5b600073ffffffffffffffffffffffffffffffffffffffff16600e60009054906101000a900473ffffffffffffffffffffffffffffffffffffffff1673ffffffffffffffffffffffffffffffffffffffff16141561249f5760405180610120016040528060e7815260200161599b60e79139905061255d565b6000600e60009054906101000a900473ffffffffffffffffffffffffffffffffffffffff1690508073ffffffffffffffffffffffffffffffffffffffff1663d10a9bde84600960008781526020019081526020016000206040518363ffffffff1660e01b815260040161251392919061502a565b600060405180830381865afa158015612530573d6000803e3d6000fd5b505050506040513d6000823e3d601f19601f820116820180604052508101906125599190614b75565b9150505b919050565b600e60149054906101000a900460ff1681565b600d5481565b6000600260075414156125c3576040517f08c379a00000000000000000000000000000000000000000000000000000000081526004016125ba9061453b565b60405180910390fd5b60026007819055506125d3611061565b612612576040517f08c379a00000000000000000000000000000000000000000000000000000000081526004016126099061509f565b60405180910390fd5b3373ffffffffffffffffffffffffffffffffffffffff1661263283611685565b73ffffffffffffffffffffffffffffffffffffffff1614612688576040517f08c379a000000000000000000000000000000000000000000000000000000000815260040161267f9061510b565b60405180910390fd5b600073ffffffffffffffffffffffffffffffffffffffff16600f600084815260200190815260200160002060009054906101000a900473ffffffffffffffffffffffffffffffffffffffff1673ffffffffffffffffffffffffffffffffffffffff161461272a576040517f08c379a000000000000000000000000000000000000000000000000000000000815260040161272190615177565b60405180910390fd5b32600f600084815260200190815260200160002060006101000a81548173ffffffffffffffffffffffffffffffffffffffff021916908373ffffffffffffffffffffffffffffffffffffffff160217905550817f833089dd5edab81d836856312c096931511c8b77ee85b40fd6de0a6887dacfff33326040516127ae929190615197565b60405180910390a2600f600083815260200190815260200160002060009054906101000a900473ffffffffffffffffffffffffffffffffffffffff1690506001600781905550919050565b612801612de6565b73ffffffffffffffffffffffffffffffffffffffff1661281f611a41565b73ffffffffffffffffffffffffffffffffffffffff1614612875576040517f08c379a000000000000000000000000000000000000000000000000000000000815260040161286c90614357565b60405180910390fd5b6000600e60156101000a81548160ff0219169083151502179055506001600e60166101000a81548160ff021916908315150217905550565b6000600560008473ffffffffffffffffffffffffffffffffffffffff1673ffffffffffffffffffffffffffffffffffffffff16815260200190815260200160002060008373ffffffffffffffffffffffffffffffffffffffff1673ffffffffffffffffffffffffffffffffffffffff16815260200190815260200160002060009054906101000a900460ff16905092915050565b61014d81565b6000601160008373ffffffffffffffffffffffffffffffffffffffff1673ffffffffffffffffffffffffffffffffffffffff168152602001908152602001600020549050919050565b612998612de6565b73ffffffffffffffffffffffffffffffffffffffff166129b6611a41565b73ffffffffffffffffffffffffffffffffffffffff1614612a0c576040517f08c379a0000000000000000000000000000000000000000000000000000000008152600401612a0390614357565b60405180910390fd5b600073ffffffffffffffffffffffffffffffffffffffff168173ffffffffffffffffffffffffffffffffffffffff161415612a7c576040517f08c379a0000000000000000000000000000000000000000000000000000000008152600401612a7390615232565b60405180910390fd5b612a858161328a565b50565b60008060026007541415612ad1576040517f08c379a0000000000000000000000000000000000000000000000000000000008152600401612ac89061453b565b60405180910390fd5b6002600781905550600083118015612aea5750600a8311155b612b29576040517f08c379a0000000000000000000000000000000000000000000000000000000008152600401612b209061529e565b60405180910390fd5b600083612b36600b612ea7565b612b4091906142b5565b1115612b81576040517f08c379a0000000000000000000000000000000000000000000000000000000008152600401612b7890615330565b60405180910390fd5b82601160003373ffffffffffffffffffffffffffffffffffffffff1673ffffffffffffffffffffffffffffffffffffffff168152602001908152602001600020541015612c03576040517f08c379a0000000000000000000000000000000000000000000000000000000008152600401612bfa906153c2565b60405180910390fd5b60006001612c11600b612ea7565b600061014d610d05612c239190614409565b612c2d9190614409565b612c3791906142b5565b612c4191906142b5565b905060005b84811015612ca557612c58600b6131ef565b612c92612c65600b612ea7565b600061014d610d05612c779190614409565b612c819190614409565b612c8b91906142b5565b6080613205565b8080612c9d9061483d565b915050612c46565b5083601160003373ffffffffffffffffffffffffffffffffffffffff1673ffffffffffffffffffffffffffffffffffffffff1681526020019081526020016000206000828254612cf59190614409565b92505081905550808492509250506001600781905550915091565b60007f01ffc9a7000000000000000000000000000000000000000000000000000000007bffffffffffffffffffffffffffffffffffffffffffffffffffffffff1916827bffffffffffffffffffffffffffffffffffffffffffffffffffffffff1916149050919050565b60008073ffffffffffffffffffffffffffffffffffffffff166002600084815260200190815260200160002060009054906101000a900473ffffffffffffffffffffffffffffffffffffffff1673ffffffffffffffffffffffffffffffffffffffff1614159050919050565b600033905090565b816004600083815260200190815260200160002060006101000a81548173ffffffffffffffffffffffffffffffffffffffff021916908373ffffffffffffffffffffffffffffffffffffffff160217905550808273ffffffffffffffffffffffffffffffffffffffff16612e6183611685565b73ffffffffffffffffffffffffffffffffffffffff167f8c5be1e5ebec7d5bd14f71427d1e84f3dd0314c0f7b2291e5b200ac8c7c3b92560405160405180910390a45050565b600081600001549050919050565b6000612ec082612d7a565b612eff576040517f08c379a0000000000000000000000000000000000000000000000000000000008152600401612ef690615454565b60405180910390fd5b6000612f0a83611685565b90508073ffffffffffffffffffffffffffffffffffffffff168473ffffffffffffffffffffffffffffffffffffffff161480612f7957508373ffffffffffffffffffffffffffffffffffffffff16612f6184610ca3565b73ffffffffffffffffffffffffffffffffffffffff16145b80612f8a5750612f8981856128ad565b5b91505092915050565b8273ffffffffffffffffffffffffffffffffffffffff16612fb382611685565b73ffffffffffffffffffffffffffffffffffffffff1614613009576040517f08c379a0000000000000000000000000000000000000000000000000000000008152600401613000906154e6565b60405180910390fd5b600073ffffffffffffffffffffffffffffffffffffffff168273ffffffffffffffffffffffffffffffffffffffff161415613079576040517f08c379a000000000000000000000000000000000000000000000000000000000815260040161307090615578565b60405180910390fd5b61308483838361343b565b61308f600082612dee565b6001600360008573ffffffffffffffffffffffffffffffffffffffff1673ffffffffffffffffffffffffffffffffffffffff16815260200190815260200160002060008282546130df9190614409565b925050819055506001600360008473ffffffffffffffffffffffffffffffffffffffff1673ffffffffffffffffffffffffffffffffffffffff168152602001908152602001600020600082825461313691906142b5565b92505081905550816002600083815260200190815260200160002060006101000a81548173ffffffffffffffffffffffffffffffffffffffff021916908373ffffffffffffffffffffffffffffffffffffffff160217905550808273ffffffffffffffffffffffffffffffffffffffff168473ffffffffffffffffffffffffffffffffffffffff167fddf252ad1be2c89b69c2b068fc378daa952ba7f163c4a11628f55a4df523b3ef60405160405180910390a4505050565b6001816000016000828254019250508190555050565b61320d61398f565b823344426040516020016132249493929190615601565b6040516020818303038152906040528051906020012060001c8160000181815250508181602001818152505061325a3384613440565b80600960008581526020019081526020016000206000820151816000015560208201518160010155905050505050565b6000600660009054906101000a900473ffffffffffffffffffffffffffffffffffffffff16905081600660006101000a81548173ffffffffffffffffffffffffffffffffffffffff021916908373ffffffffffffffffffffffffffffffffffffffff1602179055508173ffffffffffffffffffffffffffffffffffffffff168173ffffffffffffffffffffffffffffffffffffffff167f8be0079c531659141344cd1fd0a4f28419497f9722a3daafe3b4186f6b6457e060405160405180910390a35050565b61335982612d7a565b801561336a575061336981612d7a565b5b80156133765750808214155b6133b5576040517f08c379a00000000000000000000000000000000000000000000000000000000081526004016133ac906156c1565b60405180910390fd5b6133be8261345e565b6133c8600a61356f565b6133d18161345e565b6133db600a61356f565b5050565b6133ea848484612f93565b6133f6848484846135cb565b613435576040517f08c379a000000000000000000000000000000000000000000000000000000000815260040161342c90615753565b60405180910390fd5b50505050565b505050565b61345a828260405180602001604052806000815250613753565b5050565b600061346982611685565b90506134778160008461343b565b613482600083612dee565b6001600360008373ffffffffffffffffffffffffffffffffffffffff1673ffffffffffffffffffffffffffffffffffffffff16815260200190815260200160002060008282546134d29190614409565b925050819055506002600083815260200190815260200160002060006101000a81549073ffffffffffffffffffffffffffffffffffffffff021916905581600073ffffffffffffffffffffffffffffffffffffffff168273ffffffffffffffffffffffffffffffffffffffff167fddf252ad1be2c89b69c2b068fc378daa952ba7f163c4a11628f55a4df523b3ef60405160405180910390a45050565b600081600001549050600081116135bb576040517f08c379a00000000000000000000000000000000000000000000000000000000081526004016135b2906157bf565b60405180910390fd5b6001810382600001819055505050565b60006135ec8473ffffffffffffffffffffffffffffffffffffffff166137ae565b15613746578373ffffffffffffffffffffffffffffffffffffffff1663150b7a02613615612de6565b8786866040518563ffffffff1660e01b81526004016136379493929190615834565b6020604051808303816000875af192505050801561367357506040513d601f19601f820116820180604052508101906136709190615895565b60015b6136f6573d80600081146136a3576040519150601f19603f3d011682016040523d82523d6000602084013e6136a8565b606091505b506000815114156136ee576040517f08c379a00000000000000000000000000000000000000000000000000000000081526004016136e590615753565b60405180910390fd5b805181602001fd5b63150b7a0260e01b7bffffffffffffffffffffffffffffffffffffffffffffffffffffffff1916817bffffffffffffffffffffffffffffffffffffffffffffffffffffffff19161491505061374b565b600190505b949350505050565b61375d83836137c1565b61376a60008484846135cb565b6137a9576040517f08c379a00000000000000000000000000000000000000000000000000000000081526004016137a090615753565b60405180910390fd5b505050565b600080823b905060008111915050919050565b600073ffffffffffffffffffffffffffffffffffffffff168273ffffffffffffffffffffffffffffffffffffffff161415613831576040517f08c379a00000000000000000000000000000000000000000000000000000000081526004016138289061590e565b60405180910390fd5b61383a81612d7a565b1561387a576040517f08c379a00000000000000000000000000000000000000000000000000000000081526004016138719061597a565b60405180910390fd5b6138866000838361343b565b6001600360008473ffffffffffffffffffffffffffffffffffffffff1673ffffffffffffffffffffffffffffffffffffffff16815260200190815260200160002060008282546138d691906142b5565b92505081905550816002600083815260200190815260200160002060006101000a81548173ffffffffffffffffffffffffffffffffffffffff021916908373ffffffffffffffffffffffffffffffffffffffff160217905550808273ffffffffffffffffffffffffffffffffffffffff16600073ffffffffffffffffffffffffffffffffffffffff167fddf252ad1be2c89b69c2b068fc378daa952ba7f163c4a11628f55a4df523b3ef60405160405180910390a45050565b604051806040016040528060008152602001600081525090565b6000604051905090565b600080fd5b600080fd5b60007fffffffff0000000000000000000000000000000000000000000000000000000082169050919050565b6139f2816139bd565b81146139fd57600080fd5b50565b600081359050613a0f816139e9565b92915050565b600060208284031215613a2b57613a2a6139b3565b5b6000613a3984828501613a00565b91505092915050565b60008115159050919050565b613a5781613a42565b82525050565b6000602082019050613a726000830184613a4e565b92915050565b600081519050919050565b600082825260208201905092915050565b60005b83811015613ab2578082015181840152602081019050613a97565b83811115613ac1576000848401525b50505050565b6000601f19601f8301169050919050565b6000613ae382613a78565b613aed8185613a83565b9350613afd818560208601613a94565b613b0681613ac7565b840191505092915050565b60006020820190508181036000830152613b2b8184613ad8565b905092915050565b6000819050919050565b613b4681613b33565b8114613b5157600080fd5b50565b600081359050613b6381613b3d565b92915050565b600060208284031215613b7f57613b7e6139b3565b5b6000613b8d84828501613b54565b91505092915050565b600073ffffffffffffffffffffffffffffffffffffffff82169050919050565b6000613bc182613b96565b9050919050565b613bd181613bb6565b82525050565b6000602082019050613bec6000830184613bc8565b92915050565b613bfb81613bb6565b8114613c0657600080fd5b50565b600081359050613c1881613bf2565b92915050565b60008060408385031215613c3557613c346139b3565b5b6000613c4385828601613c09565b9250506020613c5485828601613b54565b9150509250929050565b613c6781613b33565b82525050565b6000602082019050613c826000830184613c5e565b92915050565b600060208284031215613c9e57613c9d6139b3565b5b6000613cac84828501613c09565b91505092915050565b613cbe81613a42565b8114613cc957600080fd5b50565b600081359050613cdb81613cb5565b92915050565b600060208284031215613cf757613cf66139b3565b5b6000613d0584828501613ccc565b91505092915050565b600080600060608486031215613d2757613d266139b3565b5b6000613d3586828701613c09565b9350506020613d4686828701613c09565b9250506040613d5786828701613b54565b9150509250925092565b6000604082019050613d766000830185613c5e565b613d836020830184613c5e565b9392505050565b60008060408385031215613da157613da06139b3565b5b6000613daf85828601613c09565b9250506020613dc085828601613ccc565b9150509250929050565b600080fd5b600080fd5b600080fd5b60008083601f840112613def57613dee613dca565b5b8235905067ffffffffffffffff811115613e0c57613e0b613dcf565b5b602083019150836020820283011115613e2857613e27613dd4565b5b9250929050565b60008060208385031215613e4657613e456139b3565b5b600083013567ffffffffffffffff811115613e6457613e636139b8565b5b613e7085828601613dd9565b92509250509250929050565b600080fd5b7f4e487b7100000000000000000000000000000000000000000000000000000000600052604160045260246000fd5b613eb982613ac7565b810181811067ffffffffffffffff82111715613ed857613ed7613e81565b5b80604052505050565b6000613eeb6139a9565b9050613ef78282613eb0565b919050565b600067ffffffffffffffff821115613f1757613f16613e81565b5b613f2082613ac7565b9050602081019050919050565b82818337600083830152505050565b6000613f4f613f4a84613efc565b613ee1565b905082815260208101848484011115613f6b57613f6a613e7c565b5b613f76848285613f2d565b509392505050565b600082601f830112613f9357613f92613dca565b5b8135613fa3848260208601613f3c565b91505092915050565b60008060008060808587031215613fc657613fc56139b3565b5b6000613fd487828801613c09565b9450506020613fe587828801613c09565b9350506040613ff687828801613b54565b925050606085013567ffffffffffffffff811115614017576140166139b8565b5b61402387828801613f7e565b91505092959194509250565b60008060408385031215614046576140456139b3565b5b600061405485828601613c09565b925050602061406585828601613c09565b9150509250929050565b7f4e487b7100000000000000000000000000000000000000000000000000000000600052602260045260246000fd5b600060028204905060018216806140b657607f821691505b602082108114156140ca576140c961406f565b5b50919050565b7f4552433732313a20617070726f76656420717565727920666f72206e6f6e657860008201527f697374656e7420746f6b656e0000000000000000000000000000000000000000602082015250565b600061412c602c83613a83565b9150614137826140d0565b604082019050919050565b6000602082019050818103600083015261415b8161411f565b9050919050565b7f4552433732313a20617070726f76616c20746f2063757272656e74206f776e6560008201527f7200000000000000000000000000000000000000000000000000000000000000602082015250565b60006141be602183613a83565b91506141c982614162565b604082019050919050565b600060208201905081810360008301526141ed816141b1565b9050919050565b7f4552433732313a20617070726f76652063616c6c6572206973206e6f74206f7760008201527f6e6572206e6f7220617070726f76656420666f7220616c6c0000000000000000602082015250565b6000614250603883613a83565b915061425b826141f4565b604082019050919050565b6000602082019050818103600083015261427f81614243565b9050919050565b7f4e487b7100000000000000000000000000000000000000000000000000000000600052601160045260246000fd5b60006142c082613b33565b91506142cb83613b33565b9250827fffffffffffffffffffffffffffffffffffffffffffffffffffffffffffffffff03821115614300576142ff614286565b5b828201905092915050565b7f4f776e61626c653a2063616c6c6572206973206e6f7420746865206f776e6572600082015250565b6000614341602083613a83565b915061434c8261430b565b602082019050919050565b6000602082019050818103600083015261437081614334565b9050919050565b7f4552433732313a207472616e736665722063616c6c6572206973206e6f74206f60008201527f776e6572206e6f7220617070726f766564000000000000000000000000000000602082015250565b60006143d3603183613a83565b91506143de82614377565b604082019050919050565b60006020820190508181036000830152614402816143c6565b9050919050565b600061441482613b33565b915061441f83613b33565b92508282101561443257614431614286565b5b828203905092915050565b600081905092915050565b50565b600061445860008361443d565b915061446382614448565b600082019050919050565b60006144798261444b565b9150819050919050565b7f5769746864726177616c206661696c6564000000000000000000000000000000600082015250565b60006144b9601183613a83565b91506144c482614483565b602082019050919050565b600060208201905081810360008301526144e8816144ac565b9050919050565b7f5265656e7472616e637947756172643a207265656e7472616e742063616c6c00600082015250565b6000614525601f83613a83565b9150614530826144ef565b602082019050919050565b6000602082019050818103600083015261455481614518565b9050919050565b7f5075626c69632073616c65206e6f74206f70656e000000000000000000000000600082015250565b6000614591601483613a83565b915061459c8261455b565b602082019050919050565b600060208201905081810360008301526145c081614584565b9050919050565b7f496e76616c6964205377656174657220636f756e740000000000000000000000600082015250565b60006145fd601583613a83565b9150614608826145c7565b602082019050919050565b6000602082019050818103600083015261462c816145f0565b9050919050565b7f416c6c2053776561746572732068617665206265656e206d696e746564000000600082015250565b6000614669601d83613a83565b915061467482614633565b602082019050919050565b600060208201905081810360008301526146988161465c565b9050919050565b60006146aa82613b33565b91506146b583613b33565b9250817fffffffffffffffffffffffffffffffffffffffffffffffffffffffffffffffff04831182151516156146ee576146ed614286565b5b828202905092915050565b7f496e636f727265637420616d6f756e74206f662065746865722073656e740000600082015250565b600061472f601e83613a83565b915061473a826146f9565b602082019050919050565b6000602082019050818103600083015261475e81614722565b9050919050565b7f446f206e6f742073656e6420657468657220666f722066726565206d696e7400600082015250565b600061479b601f83613a83565b91506147a682614765565b602082019050919050565b600060208201905081810360008301526147ca8161478e565b9050919050565b7f596f752063616e6e6f74206d696e7420736f206d616e79205377656174657273600082015250565b6000614807602083613a83565b9150614812826147d1565b602082019050919050565b60006020820190508181036000830152614836816147fa565b9050919050565b600061484882613b33565b91507fffffffffffffffffffffffffffffffffffffffffffffffffffffffffffffffff82141561487b5761487a614286565b5b600182019050919050565b7f4552433732313a206f776e657220717565727920666f72206e6f6e657869737460008201527f656e7420746f6b656e0000000000000000000000000000000000000000000000602082015250565b60006148e2602983613a83565b91506148ed82614886565b604082019050919050565b60006020820190508181036000830152614911816148d5565b9050919050565b7f4552433732313a2062616c616e636520717565727920666f7220746865207a6560008201527f726f206164647265737300000000000000000000000000000000000000000000602082015250565b6000614974602a83613a83565b915061497f82614918565b604082019050919050565b600060208201905081810360008301526149a381614967565b9050919050565b7f4e6f742079657420636c61696d656420746f6b656e0000000000000000000000600082015250565b60006149e0601583613a83565b91506149eb826149aa565b602082019050919050565b60006020820190508181036000830152614a0f816149d3565b9050919050565b60008160001c9050919050565b6000819050919050565b6000614a40614a3b83614a16565b614a23565b9050919050565b614a5081613b33565b82525050565b604082016000808301549050614a6b81614a2d565b614a786000860182614a47565b5060018301549050614a8981614a2d565b614a966020860182614a47565b5050505050565b6000608082019050614ab26000830186613c5e565b614abf6020830185614a56565b614acc6060830184613bc8565b949350505050565b600067ffffffffffffffff821115614aef57614aee613e81565b5b614af882613ac7565b9050602081019050919050565b6000614b18614b1384614ad4565b613ee1565b905082815260208101848484011115614b3457614b33613e7c565b5b614b3f848285613a94565b509392505050565b600082601f830112614b5c57614b5b613dca565b5b8151614b6c848260208601614b05565b91505092915050565b600060208284031215614b8b57614b8a6139b3565b5b600082015167ffffffffffffffff811115614ba957614ba86139b8565b5b614bb584828501614b47565b91505092915050565b7f4552433732313a20617070726f766520746f2063616c6c657200000000000000600082015250565b6000614bf4601983613a83565b9150614bff82614bbe565b602082019050919050565b60006020820190508181036000830152614c2381614be7565b9050919050565b7f4275726e696e67206e6f74206f70656e00000000000000000000000000000000600082015250565b6000614c60601083613a83565b9150614c6b82614c2a565b602082019050919050565b60006020820190508181036000830152614c8f81614c53565b9050919050565b7f4e6f20746f6b656e206f722065786365656473206578697374696e67206e756d60008201527f626572206f6620746f6b656e7300000000000000000000000000000000000000602082015250565b6000614cf2602d83613a83565b9150614cfd82614c96565b604082019050919050565b60006020820190508181036000830152614d2181614ce5565b9050919050565b7f4e487b7100000000000000000000000000000000000000000000000000000000600052601260045260246000fd5b6000614d6282613b33565b9150614d6d83613b33565b925082614d7d57614d7c614d28565b5b828206905092915050565b7f546865206e756d626572206f6620746f6b656e7320746f206275726e206d757360008201527f74206265206576656e0000000000000000000000000000000000000000000000602082015250565b6000614de4602983613a83565b9150614def82614d88565b604082019050919050565b60006020820190508181036000830152614e1381614dd7565b9050919050565b7f4e487b7100000000000000000000000000000000000000000000000000000000600052603260045260246000fd5b7f546f6b656e206e6f74206275726e61626c650000000000000000000000000000600082015250565b6000614e7f601283613a83565b9150614e8a82614e49565b602082019050919050565b60006020820190508181036000830152614eae81614e72565b9050919050565b7f547279696e6720746f206275726e206e6f6e6578697374656e7420746f6b656e600082015250565b6000614eeb602083613a83565b9150614ef682614eb5565b602082019050919050565b60006020820190508181036000830152614f1a81614ede565b9050919050565b7f4275726e696e67206e6f74206f776e656420746f6b656e000000000000000000600082015250565b6000614f57601783613a83565b9150614f6282614f21565b602082019050919050565b60006020820190508181036000830152614f8681614f4a565b9050919050565b6000614f9882613b33565b9150614fa383613b33565b925082614fb357614fb2614d28565b5b828204905092915050565b7f55524920717565727920666f72206e6f6e6578697374656e7420746f6b656e00600082015250565b6000614ff4601f83613a83565b9150614fff82614fbe565b602082019050919050565b6000602082019050818103600083015261502381614fe7565b9050919050565b600060608201905061503f6000830185613c5e565b61504c6020830184614a56565b9392505050565b7f436c61696d696e67206e6f74206f70656e000000000000000000000000000000600082015250565b6000615089601183613a83565b915061509482615053565b602082019050919050565b600060208201905081810360008301526150b88161507c565b9050919050565b7f436c61696d696e67206e6f74206f776e656420746f6b656e0000000000000000600082015250565b60006150f5601883613a83565b9150615100826150bf565b602082019050919050565b60006020820190508181036000830152615124816150e8565b9050919050565b7f546f6b656e20616c726561647920636c61696d65640000000000000000000000600082015250565b6000615161601583613a83565b915061516c8261512b565b602082019050919050565b6000602082019050818103600083015261519081615154565b9050919050565b60006040820190506151ac6000830185613bc8565b6151b96020830184613bc8565b9392505050565b7f4f776e61626c653a206e6577206f776e657220697320746865207a65726f206160008201527f6464726573730000000000000000000000000000000000000000000000000000602082015250565b600061521c602683613a83565b9150615227826151c0565b604082019050919050565b6000602082019050818103600083015261524b8161520f565b9050919050565b7f496e76616c696420636f756e7400000000000000000000000000000000000000600082015250565b6000615288600d83613a83565b915061529382615252565b602082019050919050565b600060208201905081810360008301526152b78161527b565b9050919050565b7f416c6c2072657365727665642053776561746572732068617665206265656e2060008201527f6d696e7465640000000000000000000000000000000000000000000000000000602082015250565b600061531a602683613a83565b9150615325826152be565b604082019050919050565b600060208201905081810360008301526153498161530d565b9050919050565b7f596f752063616e6e6f74206d696e742074686973206d616e792072657365727660008201527f6564205377656174657273000000000000000000000000000000000000000000602082015250565b60006153ac602b83613a83565b91506153b782615350565b604082019050919050565b600060208201905081810360008301526153db8161539f565b9050919050565b7f4552433732313a206f70657261746f7220717565727920666f72206e6f6e657860008201527f697374656e7420746f6b656e0000000000000000000000000000000000000000602082015250565b600061543e602c83613a83565b9150615449826153e2565b604082019050919050565b6000602082019050818103600083015261546d81615431565b9050919050565b7f4552433732313a207472616e73666572206f6620746f6b656e2074686174206960008201527f73206e6f74206f776e0000000000000000000000000000000000000000000000602082015250565b60006154d0602983613a83565b91506154db82615474565b604082019050919050565b600060208201905081810360008301526154ff816154c3565b9050919050565b7f4552433732313a207472616e7366657220746f20746865207a65726f2061646460008201527f7265737300000000000000000000000000000000000000000000000000000000602082015250565b6000615562602483613a83565b915061556d82615506565b604082019050919050565b6000602082019050818103600083015261559181615555565b9050919050565b6000819050919050565b6155b36155ae82613b33565b615598565b82525050565b60008160601b9050919050565b60006155d1826155b9565b9050919050565b60006155e3826155c6565b9050919050565b6155fb6155f682613bb6565b6155d8565b82525050565b600061560d82876155a2565b60208201915061561d82866155ea565b60148201915061562d82856155a2565b60208201915061563d82846155a2565b60208201915081905095945050505050565b7f547279696e6720746f206275726e206e6f6e6578697374656e74206f7220616c60008201527f7265616479206275726e656420746f6b656e0000000000000000000000000000602082015250565b60006156ab603283613a83565b91506156b68261564f565b604082019050919050565b600060208201905081810360008301526156da8161569e565b9050919050565b7f4552433732313a207472616e7366657220746f206e6f6e20455243373231526560008201527f63656976657220696d706c656d656e7465720000000000000000000000000000602082015250565b600061573d603283613a83565b9150615748826156e1565b604082019050919050565b6000602082019050818103600083015261576c81615730565b9050919050565b7f436f756e7465723a2064656372656d656e74206f766572666c6f770000000000600082015250565b60006157a9601b83613a83565b91506157b482615773565b602082019050919050565b600060208201905081810360008301526157d88161579c565b9050919050565b600081519050919050565b600082825260208201905092915050565b6000615806826157df565b61581081856157ea565b9350615820818560208601613a94565b61582981613ac7565b840191505092915050565b60006080820190506158496000830187613bc8565b6158566020830186613bc8565b6158636040830185613c5e565b818103606083015261587581846157fb565b905095945050505050565b60008151905061588f816139e9565b92915050565b6000602082840312156158ab576158aa6139b3565b5b60006158b984828501615880565b91505092915050565b7f4552433732313a206d696e7420746f20746865207a65726f2061646472657373600082015250565b60006158f8602083613a83565b9150615903826158c2565b602082019050919050565b60006020820190508181036000830152615927816158eb565b9050919050565b7f4552433732313a20746f6b656e20616c7265616479206d696e74656400000000600082015250565b6000615964601c83613a83565b915061596f8261592e565b602082019050919050565b6000602082019050818103600083015261599381615957565b905091905056fe7b226e616d65223a20224f6e20436861696e204368726973746d61732053776561746572222c20226465736372697074696f6e223a20225468652046697273742c2031303025204f6e2d436861696e204368726973746d61732053776561746572207061747465726e2067656e657261746f722077697468207265616c20776f726c64207574696c69747921222c2022696d616765223a202268747470733a2f2f73776561746572736f6e636861696e2e73332e616d617a6f6e6177732e636f6d2f7072652d72657665616c2f7072652d72657665616c2d7468756d626e61696c2e706e67227d7b226572726f72223a20224e6f2072656e646572696e6720636f6e747261637420736574227da2646970667358221220d1081632aa0202775e71dadcb5b1e63873ab2edefa8a61add678a1952656c31864736f6c634300080a0033",
  "immutableReferences": {},
  "source": "// SPDX-License-Identifier: MIT\npragma solidity ^0.8.10;\n\nimport \"@openzeppelin/contracts/token/ERC721/ERC721.sol\";\nimport \"@openzeppelin/contracts/security/ReentrancyGuard.sol\";\nimport \"@openzeppelin/contracts/security/Pausable.sol\";\nimport \"@openzeppelin/contracts/access/Ownable.sol\";\nimport \"@openzeppelin/contracts/utils/Counters.sol\";\nimport \"@openzeppelin/contracts/utils/Strings.sol\";\n\nimport \"./OnChainSweatersTypes.sol\";\nimport \"./IOnChainSweatersRenderer.sol\";\n\ncontract OnChainSweaters is ERC721, Ownable, ReentrancyGuard, Pausable {\n    mapping(uint256 => OnChainSweatersTypes.OnChainSweater) sweaters;\n    event GenerateSweater(uint256 indexed tokenId, uint256 dna);\n    event ClaimedSweater(address claimer, uint256 indexed tokenId, address tx);\n    using Counters for Counters.Counter;\n\n    Counters.Counter private _tokenIds;\n    Counters.Counter private _reservedTokenIds;\n    Counters.Counter private _hdTokens; // after burn tokens\n\n    uint256 public constant MAX_FREE_MINT_SUPPLY = 333;\n    uint256 public constant MAX_SUPPLY = 3333;\n    uint256 public constant FOUNDERS_RESERVE_AMOUNT = 0;\n    uint256 public constant MAX_PUBLIC_SUPPLY = MAX_SUPPLY - MAX_FREE_MINT_SUPPLY - FOUNDERS_RESERVE_AMOUNT;\n    uint256 public constant MINT_PRICE = 0.02 ether;\n    uint256 private constant MAX_PER_ADDRESS = 10;\n    uint256 private constant FIRST_HD_TOKEN_ID = MAX_SUPPLY + 1; // minted by burning\n\n    uint256 public publicSaleStartTimestamp;\n    address public renderingContractAddress;\n    bool public claimActive = false;\n    bool public mintActive = true;\n    bool public burningActive = false;\n\n    mapping(uint256 => address) public claimedTokenTransactions;\n    mapping(address => uint256) public mintedCounts;\n    mapping(address => uint256) private founderMintCountsRemaining;\n\n    constructor() ERC721(\"Xmas Sweaters OnChain\", \"SWEAT\") {}\n\n    modifier whenPublicSaleActive() {\n        require(isPublicSaleOpen() && mintActive, \"Public sale not open\");\n        _;\n    }\n\n    modifier whenClaimActive() {\n        require(isClaimOpen(), \"Claiming not open\");\n        _;\n    }\n\n    modifier whenBurningActive() {\n        require(isBurningOpen(), \"Burning not open\");\n        _;\n    }\n\n    function getTotalMinted() external view returns (uint256) {\n        return _hdTokens.current() + _tokenIds.current() + _reservedTokenIds.current();\n    }\n    \n\n    function getRemainingFounderMints(address _addr) public view returns (uint256) {\n        return founderMintCountsRemaining[_addr];\n    }\n\n    function isPublicSaleOpen() public view returns (bool) {\n        return block.timestamp >= publicSaleStartTimestamp && publicSaleStartTimestamp != 0;\n    }\n\n    function isClaimOpen() public view returns (bool) {\n        return claimActive;\n    }\n\n    function isBurningOpen() public view returns (bool) {\n        return burningActive;\n    }\n\n    function setRenderingContractAddress(address _renderingContractAddress) public onlyOwner {\n        renderingContractAddress = _renderingContractAddress;\n    }\n\n    function setPublicSaleTimestamp(uint256 timestamp) external onlyOwner {\n        publicSaleStartTimestamp = timestamp;\n    }\n\n    function setMintStatus(bool value) external onlyOwner {\n        mintActive = value;\n    }\n\n    function closeMintsOpenBurning() external onlyOwner {\n        mintActive = false;\n        burningActive = true;\n    }\n\n    function setClaimStatus(bool value) external onlyOwner {\n        claimActive = value;\n    }\n\n    function mintPublicSale(uint256 _count) external payable nonReentrant whenPublicSaleActive returns (uint256, uint256) {\n        require(_count > 0 && _count <= MAX_PER_ADDRESS, \"Invalid Sweater count\"); // To check wallet count\n        require(_tokenIds.current() + _count <= MAX_PUBLIC_SUPPLY, \"All Sweaters have been minted\");\n        if(_tokenIds.current()+1 > MAX_FREE_MINT_SUPPLY) {\n            require(_count * MINT_PRICE == msg.value, \"Incorrect amount of ether sent\");\n        } else {\n            require(msg.value == 0, \"Do not send ether for free mint\");\n        }\n        require(mintedCounts[msg.sender] + _count <= MAX_PER_ADDRESS, \"You cannot mint so many Sweaters\");\n        uint256 firstMintedId = _tokenIds.current() + 1;\n\n        for (uint256 i = 0; i < _count; i++) {\n            _tokenIds.increment();\n            mint(_tokenIds.current(), 128);\n        }\n        mintedCounts[msg.sender] += _count;\n\n        return (firstMintedId, _count);\n    }\n\n    function allocateFounderMint(address _addr, uint256 _count) public onlyOwner nonReentrant {\n        founderMintCountsRemaining[_addr] = _count;\n    }\n\n    function founderMint(uint256 _count) public nonReentrant returns (uint256, uint256) {\n        require(_count > 0 && _count <= MAX_PER_ADDRESS, \"Invalid count\");\n        require(_reservedTokenIds.current() + _count <= FOUNDERS_RESERVE_AMOUNT, \"All reserved Sweaters have been minted\");\n        require(founderMintCountsRemaining[msg.sender] >= _count, \"You cannot mint this many reserved Sweaters\");\n\n        // FIXME: see why onchainrunner use _tokenIds instead of _reservedTokenIds\n        //uint256 firstMintedId = MAX_PUBLIC_SUPPLY + _tokenIds.current() + 1;\n        uint256 firstMintedId = MAX_PUBLIC_SUPPLY + _reservedTokenIds.current() + 1;\n        for (uint256 i = 0; i < _count; i++) {\n            _reservedTokenIds.increment();\n            mint(MAX_PUBLIC_SUPPLY + _reservedTokenIds.current(), 128);\n        }\n        founderMintCountsRemaining[msg.sender] -= _count;\n        return (firstMintedId, _count);\n    }\n\n    function burnAndMint(uint256[] calldata tokenIds) external nonReentrant whenBurningActive returns(uint256, uint256) {\n        require(tokenIds.length > 0 && tokenIds.length < MAX_PUBLIC_SUPPLY, \"No token or exceeds existing number of tokens\");\n        require(tokenIds.length % 2 == 0, \"The number of tokens to burn must be even\");\n        // check the validity of tokens\n        for (uint256 i = 0; i < tokenIds.length; i+=2) {\n            require(tokenIds[i] <= MAX_PUBLIC_SUPPLY && tokenIds[i+1] <= MAX_PUBLIC_SUPPLY, \"Token not burnable\");\n            require(_exists(tokenIds[i]) && _exists(tokenIds[i+1]), \"Trying to burn nonexistent token\");\n            require(ownerOf(tokenIds[i]) == msg.sender && ownerOf(tokenIds[i+1]) == msg.sender, \"Burning not owned token\");\n        }\n        uint256 firstMintedId = FIRST_HD_TOKEN_ID + _hdTokens.current();\n        for (uint256 i = 0; i < tokenIds.length; i+=2) {\n            burn(tokenIds[i], tokenIds[i+1]);\n            _hdTokens.increment();\n            mint(FIRST_HD_TOKEN_ID + _hdTokens.current(), 256);\n        }\n\n        return (firstMintedId, tokenIds.length/2);\n    }\n\n    function burn(uint256 tokenId1, uint256 tokenId2) internal {\n      require(_exists(tokenId1) && _exists(tokenId2) && tokenId1 != tokenId2, \"Trying to burn nonexistent or already burned token\");\n      _burn(tokenId1);\n      _tokenIds.decrement();\n      _burn(tokenId2);\n      _tokenIds.decrement();\n    }\n\n    function mint(uint256 tokenId, uint256 resolution) internal {\n        OnChainSweatersTypes.OnChainSweater memory newSweater;\n        newSweater.dna = uint256(keccak256(abi.encodePacked(\n                tokenId,\n                msg.sender,\n                block.difficulty,\n                block.timestamp\n        )));\n        newSweater.resolution = resolution;\n\n        _safeMint(msg.sender, tokenId);\n        sweaters[tokenId] = newSweater;\n    }\n\n    function tokenURI(uint256 _tokenId) public view virtual override returns (string memory) {\n        require(_exists(_tokenId), \"URI query for nonexistent token\");\n\n        if (renderingContractAddress == address(0)) {\n            return '{\"name\": \"On Chain Christmas Sweater\", \"description\": \"The First, 100% On-Chain Christmas Sweater pattern generator with real world utility!\", \"image\": \"https://sweatersonchain.s3.amazonaws.com/pre-reveal/pre-reveal-thumbnail.png\"}';\n        }\n\n        IOnChainSweatersRenderer renderer = IOnChainSweatersRenderer(renderingContractAddress);\n        return renderer.tokenURI(_tokenId, sweaters[_tokenId]);\n    }\n\n    function claimSweater(uint256 _tokenId) external nonReentrant whenClaimActive returns(address) {\n        require(ownerOf(_tokenId) == msg.sender, \"Claiming not owned token\");\n        require(claimedTokenTransactions[_tokenId] ==  address(0), \"Token already claimed\");\n        claimedTokenTransactions[_tokenId] = tx.origin;\n        emit ClaimedSweater(msg.sender, _tokenId, tx.origin);\n        return claimedTokenTransactions[_tokenId];\n    }\n\n    function getHighQualityClaimedSweater(uint256 _tokenId) external view returns(string memory) {\n        require(claimedTokenTransactions[_tokenId] !=  address(0), \"Not yet claimed token\");\n\n        if (renderingContractAddress == address(0)) {\n            return '{\"error\": \"No rendering contract set\"}';\n        }\n        IOnChainSweatersRenderer renderer = IOnChainSweatersRenderer(renderingContractAddress);\n        return renderer.getHQClaimedSweater(_tokenId, sweaters[_tokenId], claimedTokenTransactions[_tokenId]);\n    }\n\n    function getDna(uint256 _tokenId) public view returns (uint256) {\n        return sweaters[_tokenId].dna;\n    }\n\n\n    receive() external payable {}\n\n    function withdraw() public onlyOwner {\n        (bool success,) = msg.sender.call{value : address(this).balance}('');\n        require(success, \"Withdrawal failed\");\n    }\n\n}",
  "sourcePath": "/Users/emmanuelchappat/Dev_local/smart_contracts_sandbox/onChainSweaters/contracts/OnChainSweaters.sol",
  "compiler": {
    "name": "solc",
    "version": "0.8.10+commit.fc410830.Emscripten.clang"
  },
  "schemaVersion": "3.4.3",
  "updatedAt": "2021-12-08T10:35:11.937Z",
  "networkType": "ethereum",
  "devdoc": {
    "kind": "dev",
    "methods": {
      "approve(address,uint256)": {
        "details": "See {IERC721-approve}."
      },
      "balanceOf(address)": {
        "details": "See {IERC721-balanceOf}."
      },
      "getApproved(uint256)": {
        "details": "See {IERC721-getApproved}."
      },
      "isApprovedForAll(address,address)": {
        "details": "See {IERC721-isApprovedForAll}."
      },
      "name()": {
        "details": "See {IERC721Metadata-name}."
      },
      "owner()": {
        "details": "Returns the address of the current owner."
      },
      "ownerOf(uint256)": {
        "details": "See {IERC721-ownerOf}."
      },
      "paused()": {
        "details": "Returns true if the contract is paused, and false otherwise."
      },
      "renounceOwnership()": {
        "details": "Leaves the contract without owner. It will not be possible to call `onlyOwner` functions anymore. Can only be called by the current owner. NOTE: Renouncing ownership will leave the contract without an owner, thereby removing any functionality that is only available to the owner."
      },
      "safeTransferFrom(address,address,uint256)": {
        "details": "See {IERC721-safeTransferFrom}."
      },
      "safeTransferFrom(address,address,uint256,bytes)": {
        "details": "See {IERC721-safeTransferFrom}."
      },
      "setApprovalForAll(address,bool)": {
        "details": "See {IERC721-setApprovalForAll}."
      },
      "supportsInterface(bytes4)": {
        "details": "See {IERC165-supportsInterface}."
      },
      "symbol()": {
        "details": "See {IERC721Metadata-symbol}."
      },
      "transferFrom(address,address,uint256)": {
        "details": "See {IERC721-transferFrom}."
      },
      "transferOwnership(address)": {
        "details": "Transfers ownership of the contract to a new account (`newOwner`). Can only be called by the current owner."
      }
    },
    "version": 1
  },
  "userdoc": {
    "kind": "user",
    "methods": {},
    "version": 1
  }
}