{
  "contractName": "OnChainSweaters",
  "abi": [
    {
      "inputs": [],
      "stateMutability": "nonpayable",
      "type": "constructor"
    },
    {
      "anonymous": false,
      "inputs": [
        {
          "indexed": true,
          "internalType": "address",
          "name": "owner",
          "type": "address"
        },
        {
          "indexed": true,
          "internalType": "address",
          "name": "approved",
          "type": "address"
        },
        {
          "indexed": true,
          "internalType": "uint256",
          "name": "tokenId",
          "type": "uint256"
        }
      ],
      "name": "Approval",
      "type": "event"
    },
    {
      "anonymous": false,
      "inputs": [
        {
          "indexed": true,
          "internalType": "address",
          "name": "owner",
          "type": "address"
        },
        {
          "indexed": true,
          "internalType": "address",
          "name": "operator",
          "type": "address"
        },
        {
          "indexed": false,
          "internalType": "bool",
          "name": "approved",
          "type": "bool"
        }
      ],
      "name": "ApprovalForAll",
      "type": "event"
    },
    {
      "anonymous": false,
      "inputs": [
        {
          "indexed": false,
          "internalType": "address",
          "name": "claimer",
          "type": "address"
        },
        {
          "indexed": true,
          "internalType": "uint256",
          "name": "tokenId",
          "type": "uint256"
        },
        {
          "indexed": false,
          "internalType": "address",
          "name": "tx",
          "type": "address"
        }
      ],
      "name": "ClaimedSweater",
      "type": "event"
    },
    {
      "anonymous": false,
      "inputs": [
        {
          "indexed": true,
          "internalType": "uint256",
          "name": "tokenId",
          "type": "uint256"
        },
        {
          "indexed": false,
          "internalType": "uint256",
          "name": "dna",
          "type": "uint256"
        }
      ],
      "name": "GenerateSweater",
      "type": "event"
    },
    {
      "anonymous": false,
      "inputs": [
        {
          "indexed": true,
          "internalType": "address",
          "name": "previousOwner",
          "type": "address"
        },
        {
          "indexed": true,
          "internalType": "address",
          "name": "newOwner",
          "type": "address"
        }
      ],
      "name": "OwnershipTransferred",
      "type": "event"
    },
    {
      "anonymous": false,
      "inputs": [
        {
          "indexed": false,
          "internalType": "address",
          "name": "account",
          "type": "address"
        }
      ],
      "name": "Paused",
      "type": "event"
    },
    {
      "anonymous": false,
      "inputs": [
        {
          "indexed": true,
          "internalType": "address",
          "name": "from",
          "type": "address"
        },
        {
          "indexed": true,
          "internalType": "address",
          "name": "to",
          "type": "address"
        },
        {
          "indexed": true,
          "internalType": "uint256",
          "name": "tokenId",
          "type": "uint256"
        }
      ],
      "name": "Transfer",
      "type": "event"
    },
    {
      "anonymous": false,
      "inputs": [
        {
          "indexed": false,
          "internalType": "address",
          "name": "account",
          "type": "address"
        }
      ],
      "name": "Unpaused",
      "type": "event"
    },
    {
      "inputs": [
        {
          "internalType": "address",
          "name": "to",
          "type": "address"
        },
        {
          "internalType": "uint256",
          "name": "tokenId",
          "type": "uint256"
        }
      ],
      "name": "approve",
      "outputs": [],
      "stateMutability": "nonpayable",
      "type": "function"
    },
    {
      "inputs": [
        {
          "internalType": "address",
          "name": "owner",
          "type": "address"
        }
      ],
      "name": "balanceOf",
      "outputs": [
        {
          "internalType": "uint256",
          "name": "",
          "type": "uint256"
        }
      ],
      "stateMutability": "view",
      "type": "function",
      "constant": true
    },
    {
      "inputs": [],
      "name": "claimActive",
      "outputs": [
        {
          "internalType": "bool",
          "name": "",
          "type": "bool"
        }
      ],
      "stateMutability": "view",
      "type": "function",
      "constant": true
    },
    {
      "inputs": [
        {
          "internalType": "uint256",
          "name": "",
          "type": "uint256"
        }
      ],
      "name": "claimedTokenTransactions",
      "outputs": [
        {
          "internalType": "address",
          "name": "",
          "type": "address"
        }
      ],
      "stateMutability": "view",
      "type": "function",
      "constant": true
    },
    {
      "inputs": [],
      "name": "freeMintActive",
      "outputs": [
        {
          "internalType": "bool",
          "name": "",
          "type": "bool"
        }
      ],
      "stateMutability": "view",
      "type": "function",
      "constant": true
    },
    {
      "inputs": [
        {
          "internalType": "uint256",
          "name": "tokenId",
          "type": "uint256"
        }
      ],
      "name": "getApproved",
      "outputs": [
        {
          "internalType": "address",
          "name": "",
          "type": "address"
        }
      ],
      "stateMutability": "view",
      "type": "function",
      "constant": true
    },
    {
      "inputs": [
        {
          "internalType": "address",
          "name": "owner",
          "type": "address"
        },
        {
          "internalType": "address",
          "name": "operator",
          "type": "address"
        }
      ],
      "name": "isApprovedForAll",
      "outputs": [
        {
          "internalType": "bool",
          "name": "",
          "type": "bool"
        }
      ],
      "stateMutability": "view",
      "type": "function",
      "constant": true
    },
    {
      "inputs": [],
      "name": "mintActive",
      "outputs": [
        {
          "internalType": "bool",
          "name": "",
          "type": "bool"
        }
      ],
      "stateMutability": "view",
      "type": "function",
      "constant": true
    },
    {
      "inputs": [
        {
          "internalType": "address",
          "name": "",
          "type": "address"
        }
      ],
      "name": "mintedCounts",
      "outputs": [
        {
          "internalType": "uint256",
          "name": "",
          "type": "uint256"
        }
      ],
      "stateMutability": "view",
      "type": "function",
      "constant": true
    },
    {
      "inputs": [],
      "name": "name",
      "outputs": [
        {
          "internalType": "string",
          "name": "",
          "type": "string"
        }
      ],
      "stateMutability": "view",
      "type": "function",
      "constant": true
    },
    {
      "inputs": [],
      "name": "owner",
      "outputs": [
        {
          "internalType": "address",
          "name": "",
          "type": "address"
        }
      ],
      "stateMutability": "view",
      "type": "function",
      "constant": true
    },
    {
      "inputs": [
        {
          "internalType": "uint256",
          "name": "tokenId",
          "type": "uint256"
        }
      ],
      "name": "ownerOf",
      "outputs": [
        {
          "internalType": "address",
          "name": "",
          "type": "address"
        }
      ],
      "stateMutability": "view",
      "type": "function",
      "constant": true
    },
    {
      "inputs": [],
      "name": "paused",
      "outputs": [
        {
          "internalType": "bool",
          "name": "",
          "type": "bool"
        }
      ],
      "stateMutability": "view",
      "type": "function",
      "constant": true
    },
    {
      "inputs": [],
      "name": "publicSaleStartTimestamp",
      "outputs": [
        {
          "internalType": "uint256",
          "name": "",
          "type": "uint256"
        }
      ],
      "stateMutability": "view",
      "type": "function",
      "constant": true
    },
    {
      "inputs": [],
      "name": "renderingContractAddress",
      "outputs": [
        {
          "internalType": "address",
          "name": "",
          "type": "address"
        }
      ],
      "stateMutability": "view",
      "type": "function",
      "constant": true
    },
    {
      "inputs": [],
      "name": "renounceOwnership",
      "outputs": [],
      "stateMutability": "nonpayable",
      "type": "function"
    },
    {
      "inputs": [
        {
          "internalType": "address",
          "name": "from",
          "type": "address"
        },
        {
          "internalType": "address",
          "name": "to",
          "type": "address"
        },
        {
          "internalType": "uint256",
          "name": "tokenId",
          "type": "uint256"
        }
      ],
      "name": "safeTransferFrom",
      "outputs": [],
      "stateMutability": "nonpayable",
      "type": "function"
    },
    {
      "inputs": [
        {
          "internalType": "address",
          "name": "from",
          "type": "address"
        },
        {
          "internalType": "address",
          "name": "to",
          "type": "address"
        },
        {
          "internalType": "uint256",
          "name": "tokenId",
          "type": "uint256"
        },
        {
          "internalType": "bytes",
          "name": "_data",
          "type": "bytes"
        }
      ],
      "name": "safeTransferFrom",
      "outputs": [],
      "stateMutability": "nonpayable",
      "type": "function"
    },
    {
      "inputs": [
        {
          "internalType": "address",
          "name": "operator",
          "type": "address"
        },
        {
          "internalType": "bool",
          "name": "approved",
          "type": "bool"
        }
      ],
      "name": "setApprovalForAll",
      "outputs": [],
      "stateMutability": "nonpayable",
      "type": "function"
    },
    {
      "inputs": [
        {
          "internalType": "bytes4",
          "name": "interfaceId",
          "type": "bytes4"
        }
      ],
      "name": "supportsInterface",
      "outputs": [
        {
          "internalType": "bool",
          "name": "",
          "type": "bool"
        }
      ],
      "stateMutability": "view",
      "type": "function",
      "constant": true
    },
    {
      "inputs": [],
      "name": "symbol",
      "outputs": [
        {
          "internalType": "string",
          "name": "",
          "type": "string"
        }
      ],
      "stateMutability": "view",
      "type": "function",
      "constant": true
    },
    {
      "inputs": [
        {
          "internalType": "address",
          "name": "from",
          "type": "address"
        },
        {
          "internalType": "address",
          "name": "to",
          "type": "address"
        },
        {
          "internalType": "uint256",
          "name": "tokenId",
          "type": "uint256"
        }
      ],
      "name": "transferFrom",
      "outputs": [],
      "stateMutability": "nonpayable",
      "type": "function"
    },
    {
      "inputs": [
        {
          "internalType": "address",
          "name": "newOwner",
          "type": "address"
        }
      ],
      "name": "transferOwnership",
      "outputs": [],
      "stateMutability": "nonpayable",
      "type": "function"
    },
    {
      "stateMutability": "payable",
      "type": "receive",
      "payable": true
    },
    {
      "inputs": [],
      "name": "getTotalMinted",
      "outputs": [
        {
          "internalType": "uint256",
          "name": "",
          "type": "uint256"
        }
      ],
      "stateMutability": "view",
      "type": "function",
      "constant": true
    },
    {
      "inputs": [
        {
          "internalType": "address",
          "name": "_addr",
          "type": "address"
        }
      ],
      "name": "getRemainingFounderMints",
      "outputs": [
        {
          "internalType": "uint256",
          "name": "",
          "type": "uint256"
        }
      ],
      "stateMutability": "view",
      "type": "function",
      "constant": true
    },
    {
      "inputs": [],
      "name": "isPublicSaleOpen",
      "outputs": [
        {
          "internalType": "bool",
          "name": "",
          "type": "bool"
        }
      ],
      "stateMutability": "view",
      "type": "function",
      "constant": true
    },
    {
      "inputs": [],
      "name": "isClaimOpen",
      "outputs": [
        {
          "internalType": "bool",
          "name": "",
          "type": "bool"
        }
      ],
      "stateMutability": "view",
      "type": "function",
      "constant": true
    },
    {
      "inputs": [
        {
          "internalType": "address",
          "name": "_renderingContractAddress",
          "type": "address"
        }
      ],
      "name": "setRenderingContractAddress",
      "outputs": [],
      "stateMutability": "nonpayable",
      "type": "function"
    },
    {
      "inputs": [
        {
          "internalType": "uint256",
          "name": "timestamp",
          "type": "uint256"
        }
      ],
      "name": "setPublicSaleTimestamp",
      "outputs": [],
      "stateMutability": "nonpayable",
      "type": "function"
    },
    {
      "inputs": [
        {
          "internalType": "bool",
          "name": "value",
          "type": "bool"
        }
      ],
      "name": "setMintStatus",
      "outputs": [],
      "stateMutability": "nonpayable",
      "type": "function"
    },
    {
      "inputs": [
        {
          "internalType": "bool",
          "name": "value",
          "type": "bool"
        }
      ],
      "name": "setClaimStatus",
      "outputs": [],
      "stateMutability": "nonpayable",
      "type": "function"
    },
    {
      "inputs": [
        {
          "internalType": "uint256",
          "name": "_count",
          "type": "uint256"
        }
      ],
      "name": "mintPublicSale",
      "outputs": [
        {
          "internalType": "uint256",
          "name": "",
          "type": "uint256"
        },
        {
          "internalType": "uint256",
          "name": "",
          "type": "uint256"
        }
      ],
      "stateMutability": "payable",
      "type": "function",
      "payable": true
    },
    {
      "inputs": [
        {
          "internalType": "address",
          "name": "_addr",
          "type": "address"
        },
        {
          "internalType": "uint256",
          "name": "_count",
          "type": "uint256"
        }
      ],
      "name": "allocateFounderMint",
      "outputs": [],
      "stateMutability": "nonpayable",
      "type": "function"
    },
    {
      "inputs": [
        {
          "internalType": "uint256",
          "name": "_count",
          "type": "uint256"
        }
      ],
      "name": "founderMint",
      "outputs": [
        {
          "internalType": "uint256",
          "name": "",
          "type": "uint256"
        },
        {
          "internalType": "uint256",
          "name": "",
          "type": "uint256"
        }
      ],
      "stateMutability": "nonpayable",
      "type": "function"
    },
    {
      "inputs": [
        {
          "internalType": "uint256",
          "name": "_tokenId",
          "type": "uint256"
        }
      ],
      "name": "tokenURI",
      "outputs": [
        {
          "internalType": "string",
          "name": "",
          "type": "string"
        }
      ],
      "stateMutability": "view",
      "type": "function",
      "constant": true
    },
    {
      "inputs": [
        {
          "internalType": "uint256",
          "name": "_tokenId",
          "type": "uint256"
        }
      ],
      "name": "claimSweater",
      "outputs": [
        {
          "internalType": "address",
          "name": "",
          "type": "address"
        }
      ],
      "stateMutability": "nonpayable",
      "type": "function"
    },
    {
      "inputs": [
        {
          "internalType": "uint256",
          "name": "_tokenId",
          "type": "uint256"
        }
      ],
      "name": "getHighQualityClaimedSweater",
      "outputs": [
        {
          "internalType": "string",
          "name": "",
          "type": "string"
        }
      ],
      "stateMutability": "view",
      "type": "function",
      "constant": true
    },
    {
      "inputs": [
        {
          "internalType": "uint256",
          "name": "_tokenId",
          "type": "uint256"
        }
      ],
      "name": "getDna",
      "outputs": [
        {
          "internalType": "uint256",
          "name": "",
          "type": "uint256"
        }
      ],
      "stateMutability": "view",
      "type": "function",
      "constant": true
    },
    {
      "inputs": [],
      "name": "withdraw",
      "outputs": [],
      "stateMutability": "nonpayable",
      "type": "function"
    }
  ],
  "bytecode": "0x60806040526000600d60146101000a81548160ff0219169083151502179055506001600d60156101000a81548160ff0219169083151502179055506001600d60166101000a81548160ff0219169083151502179055503480156200006257600080fd5b506040518060400160405280601581526020017f586d6173205377656174657273204f6e436861696e00000000000000000000008152506040518060400160405280600581526020017f53574541540000000000000000000000000000000000000000000000000000008152508160009080519060200190620000e79291906200021a565b508060019080519060200190620001009291906200021a565b50505062000123620001176200014c60201b60201c565b6200015460201b60201c565b60016007819055506000600860006101000a81548160ff0219169083151502179055506200032f565b600033905090565b6000600660009054906101000a900473ffffffffffffffffffffffffffffffffffffffff16905081600660006101000a81548173ffffffffffffffffffffffffffffffffffffffff021916908373ffffffffffffffffffffffffffffffffffffffff1602179055508173ffffffffffffffffffffffffffffffffffffffff168173ffffffffffffffffffffffffffffffffffffffff167f8be0079c531659141344cd1fd0a4f28419497f9722a3daafe3b4186f6b6457e060405160405180910390a35050565b8280546200022890620002f9565b90600052602060002090601f0160209004810192826200024c576000855562000298565b82601f106200026757805160ff191683800117855562000298565b8280016001018555821562000298579182015b82811115620002975782518255916020019190600101906200027a565b5b509050620002a79190620002ab565b5090565b5b80821115620002c6576000816000905550600101620002ac565b5090565b7f4e487b7100000000000000000000000000000000000000000000000000000000600052602260045260246000fd5b600060028204905060018216806200031257607f821691505b60208210811415620003295762000328620002ca565b5b50919050565b614ad7806200033f6000396000f3fe6080604052600436106102345760003560e01c80636352211e1161012e578063c074f412116100ab578063d80edd531161006f578063d80edd5314610862578063e985e9c51461089f578063f2524601146108dc578063f2fde38b14610919578063f42202e8146109425761023b565b8063c074f41214610779578063c87b56dd146107a4578063cb5bc2aa146107e1578063d4a6a2fd1461080c578063d7822c99146108375761023b565b80638da5cb5b116100f25780638da5cb5b1461069457806395d89b41146106bf5780639efacb49146106ea578063a22cb46514610727578063b88d4fde146107505761023b565b80636352211e146105b1578063654f97a3146105ee57806370a0823114610617578063715018a6146106545780637dd0dbb51461066b5761023b565b806324fd2652116101bc578063422627c311610180578063422627c3146104c657806342842e0e14610503578063511a96051461052c5780635a5e5d58146105555780635c975abb146105865761023b565b806324fd2652146103df57806325fd90f31461040a57806333af1d571461043557806337e4f2f6146104725780633ccfd60b146104af5761023b565b80630ca1c5c9116102035780630ca1c5c91461030e57806312b40a9f146103395780631a6949e3146103625780631f85e3ca1461038d57806323b872dd146103b65761023b565b806301ffc9a71461024057806306fdde031461027d578063081812fc146102a8578063095ea7b3146102e55761023b565b3661023b57005b600080fd5b34801561024c57600080fd5b506102676004803603810190610262919061301e565b610980565b6040516102749190613066565b60405180910390f35b34801561028957600080fd5b50610292610a62565b60405161029f919061311a565b60405180910390f35b3480156102b457600080fd5b506102cf60048036038101906102ca9190613172565b610af4565b6040516102dc91906131e0565b60405180910390f35b3480156102f157600080fd5b5061030c60048036038101906103079190613227565b610b79565b005b34801561031a57600080fd5b50610323610c91565b6040516103309190613276565b60405180910390f35b34801561034557600080fd5b50610360600480360381019061035b9190613291565b610ca2565b005b34801561036e57600080fd5b50610377610d62565b6040516103849190613066565b60405180910390f35b34801561039957600080fd5b506103b460048036038101906103af91906132ea565b610d7e565b005b3480156103c257600080fd5b506103dd60048036038101906103d89190613317565b610e17565b005b3480156103eb57600080fd5b506103f4610e77565b6040516104019190613066565b60405180910390f35b34801561041657600080fd5b5061041f610e8e565b60405161042c9190613066565b60405180910390f35b34801561044157600080fd5b5061045c60048036038101906104579190613172565b610ea1565b60405161046991906131e0565b60405180910390f35b34801561047e57600080fd5b5061049960048036038101906104949190613291565b610ed4565b6040516104a69190613276565b60405180910390f35b3480156104bb57600080fd5b506104c4610eec565b005b3480156104d257600080fd5b506104ed60048036038101906104e89190613172565b611017565b6040516104fa9190613276565b60405180910390f35b34801561050f57600080fd5b5061052a60048036038101906105259190613317565b611037565b005b34801561053857600080fd5b50610553600480360381019061054e9190613172565b611057565b005b61056f600480360381019061056a9190613172565b6110dd565b60405161057d92919061336a565b60405180910390f35b34801561059257600080fd5b5061059b611418565b6040516105a89190613066565b60405180910390f35b3480156105bd57600080fd5b506105d860048036038101906105d39190613172565b61142f565b6040516105e591906131e0565b60405180910390f35b3480156105fa57600080fd5b50610615600480360381019061061091906132ea565b6114e1565b005b34801561062357600080fd5b5061063e60048036038101906106399190613291565b61157a565b60405161064b9190613276565b60405180910390f35b34801561066057600080fd5b50610669611632565b005b34801561067757600080fd5b50610692600480360381019061068d9190613227565b6116ba565b005b3480156106a057600080fd5b506106a96117d4565b6040516106b691906131e0565b60405180910390f35b3480156106cb57600080fd5b506106d46117fe565b6040516106e1919061311a565b60405180910390f35b3480156106f657600080fd5b50610711600480360381019061070c9190613172565b611890565b60405161071e919061311a565b60405180910390f35b34801561073357600080fd5b5061074e60048036038101906107499190613393565b611aa4565b005b34801561075c57600080fd5b5061077760048036038101906107729190613508565b611c25565b005b34801561078557600080fd5b5061078e611c87565b60405161079b91906131e0565b60405180910390f35b3480156107b057600080fd5b506107cb60048036038101906107c69190613172565b611cad565b6040516107d8919061311a565b60405180910390f35b3480156107ed57600080fd5b506107f6611e32565b6040516108039190613066565b60405180910390f35b34801561081857600080fd5b50610821611e45565b60405161082e9190613066565b60405180910390f35b34801561084357600080fd5b5061084c611e58565b6040516108599190613276565b60405180910390f35b34801561086e57600080fd5b5061088960048036038101906108849190613172565b611e5e565b60405161089691906131e0565b60405180910390f35b3480156108ab57600080fd5b506108c660048036038101906108c1919061358b565b6120dc565b6040516108d39190613066565b60405180910390f35b3480156108e857600080fd5b5061090360048036038101906108fe9190613291565b612170565b6040516109109190613276565b60405180910390f35b34801561092557600080fd5b50610940600480360381019061093b9190613291565b6121b9565b005b34801561094e57600080fd5b5061096960048036038101906109649190613172565b6122b1565b60405161097792919061336a565b60405180910390f35b60007f80ac58cd000000000000000000000000000000000000000000000000000000007bffffffffffffffffffffffffffffffffffffffffffffffffffffffff1916827bffffffffffffffffffffffffffffffffffffffffffffffffffffffff19161480610a4b57507f5b5e139f000000000000000000000000000000000000000000000000000000007bffffffffffffffffffffffffffffffffffffffffffffffffffffffff1916827bffffffffffffffffffffffffffffffffffffffffffffffffffffffff1916145b80610a5b5750610a5a82612531565b5b9050919050565b606060008054610a71906135fa565b80601f0160208091040260200160405190810160405280929190818152602001828054610a9d906135fa565b8015610aea5780601f10610abf57610100808354040283529160200191610aea565b820191906000526020600020905b815481529060010190602001808311610acd57829003601f168201915b5050505050905090565b6000610aff8261259b565b610b3e576040517f08c379a0000000000000000000000000000000000000000000000000000000008152600401610b359061369e565b60405180910390fd5b6004600083815260200190815260200160002060009054906101000a900473ffffffffffffffffffffffffffffffffffffffff169050919050565b6000610b848261142f565b90508073ffffffffffffffffffffffffffffffffffffffff168373ffffffffffffffffffffffffffffffffffffffff161415610bf5576040517f08c379a0000000000000000000000000000000000000000000000000000000008152600401610bec90613730565b60405180910390fd5b8073ffffffffffffffffffffffffffffffffffffffff16610c14612607565b73ffffffffffffffffffffffffffffffffffffffff161480610c435750610c4281610c3d612607565b6120dc565b5b610c82576040517f08c379a0000000000000000000000000000000000000000000000000000000008152600401610c79906137c2565b60405180910390fd5b610c8c838361260f565b505050565b6000610c9d600a6126c8565b905090565b610caa612607565b73ffffffffffffffffffffffffffffffffffffffff16610cc86117d4565b73ffffffffffffffffffffffffffffffffffffffff1614610d1e576040517f08c379a0000000000000000000000000000000000000000000000000000000008152600401610d159061382e565b60405180910390fd5b80600d60006101000a81548173ffffffffffffffffffffffffffffffffffffffff021916908373ffffffffffffffffffffffffffffffffffffffff16021790555050565b6000600c544210158015610d7957506000600c5414155b905090565b610d86612607565b73ffffffffffffffffffffffffffffffffffffffff16610da46117d4565b73ffffffffffffffffffffffffffffffffffffffff1614610dfa576040517f08c379a0000000000000000000000000000000000000000000000000000000008152600401610df19061382e565b60405180910390fd5b80600d60156101000a81548160ff02191690831515021790555050565b610e28610e22612607565b826126d6565b610e67576040517f08c379a0000000000000000000000000000000000000000000000000000000008152600401610e5e906138c0565b60405180910390fd5b610e728383836127b4565b505050565b6000600d60149054906101000a900460ff16905090565b600d60159054906101000a900460ff1681565b600e6020528060005260406000206000915054906101000a900473ffffffffffffffffffffffffffffffffffffffff1681565b600f6020528060005260406000206000915090505481565b610ef4612607565b73ffffffffffffffffffffffffffffffffffffffff16610f126117d4565b73ffffffffffffffffffffffffffffffffffffffff1614610f68576040517f08c379a0000000000000000000000000000000000000000000000000000000008152600401610f5f9061382e565b60405180910390fd5b60003373ffffffffffffffffffffffffffffffffffffffff1647604051610f8e90613911565b60006040518083038185875af1925050503d8060008114610fcb576040519150601f19603f3d011682016040523d82523d6000602084013e610fd0565b606091505b5050905080611014576040517f08c379a000000000000000000000000000000000000000000000000000000000815260040161100b90613972565b60405180910390fd5b50565b600060096000838152602001908152602001600020600001549050919050565b61105283838360405180602001604052806000815250611c25565b505050565b61105f612607565b73ffffffffffffffffffffffffffffffffffffffff1661107d6117d4565b73ffffffffffffffffffffffffffffffffffffffff16146110d3576040517f08c379a00000000000000000000000000000000000000000000000000000000081526004016110ca9061382e565b60405180910390fd5b80600c8190555050565b60008060026007541415611126576040517f08c379a000000000000000000000000000000000000000000000000000000000815260040161111d906139de565b60405180910390fd5b6002600781905550611136610d62565b801561114e5750600d60159054906101000a900460ff165b61118d576040517f08c379a000000000000000000000000000000000000000000000000000000000815260040161118490613a4a565b60405180910390fd5b60008311801561119e5750600a8311155b6111dd576040517f08c379a00000000000000000000000000000000000000000000000000000000081526004016111d490613ab6565b60405180910390fd5b600380600a6111ec9190613b05565b6111f69190613b05565b83611201600a6126c8565b61120b9190613b39565b111561124c576040517f08c379a000000000000000000000000000000000000000000000000000000000815260040161124390613bdb565b60405180910390fd5b6003611258600a6126c8565b11806112715750600d60169054906101000a900460ff16155b156112cb5734666a94d74f4300008461128a9190613bfb565b146112ca576040517f08c379a00000000000000000000000000000000000000000000000000000000081526004016112c190613ca1565b60405180910390fd5b5b600a83600f60003373ffffffffffffffffffffffffffffffffffffffff1673ffffffffffffffffffffffffffffffffffffffff168152602001908152602001600020546113189190613b39565b1115611359576040517f08c379a000000000000000000000000000000000000000000000000000000000815260040161135090613d33565b60405180910390fd5b60006001611367600a6126c8565b6113719190613b39565b905060005b848110156113ad57611388600a612a10565b61139a611395600a6126c8565b612a26565b80806113a590613d53565b915050611376565b5083600f60003373ffffffffffffffffffffffffffffffffffffffff1673ffffffffffffffffffffffffffffffffffffffff16815260200190815260200160002060008282546113fd9190613b39565b92505081905550808492509250506001600781905550915091565b6000600860009054906101000a900460ff16905090565b6000806002600084815260200190815260200160002060009054906101000a900473ffffffffffffffffffffffffffffffffffffffff169050600073ffffffffffffffffffffffffffffffffffffffff168173ffffffffffffffffffffffffffffffffffffffff1614156114d8576040517f08c379a00000000000000000000000000000000000000000000000000000000081526004016114cf90613e0e565b60405180910390fd5b80915050919050565b6114e9612607565b73ffffffffffffffffffffffffffffffffffffffff166115076117d4565b73ffffffffffffffffffffffffffffffffffffffff161461155d576040517f08c379a00000000000000000000000000000000000000000000000000000000081526004016115549061382e565b60405180910390fd5b80600d60146101000a81548160ff02191690831515021790555050565b60008073ffffffffffffffffffffffffffffffffffffffff168273ffffffffffffffffffffffffffffffffffffffff1614156115eb576040517f08c379a00000000000000000000000000000000000000000000000000000000081526004016115e290613ea0565b60405180910390fd5b600360008373ffffffffffffffffffffffffffffffffffffffff1673ffffffffffffffffffffffffffffffffffffffff168152602001908152602001600020549050919050565b61163a612607565b73ffffffffffffffffffffffffffffffffffffffff166116586117d4565b73ffffffffffffffffffffffffffffffffffffffff16146116ae576040517f08c379a00000000000000000000000000000000000000000000000000000000081526004016116a59061382e565b60405180910390fd5b6116b86000612a96565b565b6116c2612607565b73ffffffffffffffffffffffffffffffffffffffff166116e06117d4565b73ffffffffffffffffffffffffffffffffffffffff1614611736576040517f08c379a000000000000000000000000000000000000000000000000000000000815260040161172d9061382e565b60405180910390fd5b6002600754141561177c576040517f08c379a0000000000000000000000000000000000000000000000000000000008152600401611773906139de565b60405180910390fd5b600260078190555080601060008473ffffffffffffffffffffffffffffffffffffffff1673ffffffffffffffffffffffffffffffffffffffff1681526020019081526020016000208190555060016007819055505050565b6000600660009054906101000a900473ffffffffffffffffffffffffffffffffffffffff16905090565b60606001805461180d906135fa565b80601f0160208091040260200160405190810160405280929190818152602001828054611839906135fa565b80156118865780601f1061185b57610100808354040283529160200191611886565b820191906000526020600020905b81548152906001019060200180831161186957829003601f168201915b5050505050905090565b6060600073ffffffffffffffffffffffffffffffffffffffff16600e600084815260200190815260200160002060009054906101000a900473ffffffffffffffffffffffffffffffffffffffff1673ffffffffffffffffffffffffffffffffffffffff161415611935576040517f08c379a000000000000000000000000000000000000000000000000000000000815260040161192c90613f0c565b60405180910390fd5b600073ffffffffffffffffffffffffffffffffffffffff16600d60009054906101000a900473ffffffffffffffffffffffffffffffffffffffff1673ffffffffffffffffffffffffffffffffffffffff1614156119ac57604051806060016040528060268152602001614a7c602691399050611a9f565b6000600d60009054906101000a900473ffffffffffffffffffffffffffffffffffffffff1690508073ffffffffffffffffffffffffffffffffffffffff1663ec2d6d508460096000878152602001908152602001600020600e600088815260200190815260200160002060009054906101000a900473ffffffffffffffffffffffffffffffffffffffff166040518463ffffffff1660e01b8152600401611a5593929190613f95565b600060405180830381865afa158015611a72573d6000803e3d6000fd5b505050506040513d6000823e3d601f19601f82011682018060405250810190611a9b919061406d565b9150505b919050565b611aac612607565b73ffffffffffffffffffffffffffffffffffffffff168273ffffffffffffffffffffffffffffffffffffffff161415611b1a576040517f08c379a0000000000000000000000000000000000000000000000000000000008152600401611b1190614102565b60405180910390fd5b8060056000611b27612607565b73ffffffffffffffffffffffffffffffffffffffff1673ffffffffffffffffffffffffffffffffffffffff16815260200190815260200160002060008473ffffffffffffffffffffffffffffffffffffffff1673ffffffffffffffffffffffffffffffffffffffff16815260200190815260200160002060006101000a81548160ff0219169083151502179055508173ffffffffffffffffffffffffffffffffffffffff16611bd4612607565b73ffffffffffffffffffffffffffffffffffffffff167f17307eab39ab6107e8899845ad3d59bd9653f200f220920489ca2b5937696c3183604051611c199190613066565b60405180910390a35050565b611c36611c30612607565b836126d6565b611c75576040517f08c379a0000000000000000000000000000000000000000000000000000000008152600401611c6c906138c0565b60405180910390fd5b611c8184848484612b5c565b50505050565b600d60009054906101000a900473ffffffffffffffffffffffffffffffffffffffff1681565b6060611cb88261259b565b611cf7576040517f08c379a0000000000000000000000000000000000000000000000000000000008152600401611cee90614194565b60405180910390fd5b600073ffffffffffffffffffffffffffffffffffffffff16600d60009054906101000a900473ffffffffffffffffffffffffffffffffffffffff1673ffffffffffffffffffffffffffffffffffffffff161415611d6f5760405180610120016040528060e7815260200161499560e791399050611e2d565b6000600d60009054906101000a900473ffffffffffffffffffffffffffffffffffffffff1690508073ffffffffffffffffffffffffffffffffffffffff1663a62f8deb84600960008781526020019081526020016000206040518363ffffffff1660e01b8152600401611de39291906141b4565b600060405180830381865afa158015611e00573d6000803e3d6000fd5b505050506040513d6000823e3d601f19601f82011682018060405250810190611e29919061406d565b9150505b919050565b600d60169054906101000a900460ff1681565b600d60149054906101000a900460ff1681565b600c5481565b600060026007541415611ea6576040517f08c379a0000000000000000000000000000000000000000000000000000000008152600401611e9d906139de565b60405180910390fd5b6002600781905550611eb6610e77565b611ef5576040517f08c379a0000000000000000000000000000000000000000000000000000000008152600401611eec90614229565b60405180910390fd5b3373ffffffffffffffffffffffffffffffffffffffff16611f158361142f565b73ffffffffffffffffffffffffffffffffffffffff1614611f6b576040517f08c379a0000000000000000000000000000000000000000000000000000000008152600401611f6290614295565b60405180910390fd5b600073ffffffffffffffffffffffffffffffffffffffff16600e600084815260200190815260200160002060009054906101000a900473ffffffffffffffffffffffffffffffffffffffff1673ffffffffffffffffffffffffffffffffffffffff161461200d576040517f08c379a000000000000000000000000000000000000000000000000000000000815260040161200490614301565b60405180910390fd5b32600e600084815260200190815260200160002060006101000a81548173ffffffffffffffffffffffffffffffffffffffff021916908373ffffffffffffffffffffffffffffffffffffffff160217905550817f833089dd5edab81d836856312c096931511c8b77ee85b40fd6de0a6887dacfff3332604051612091929190614321565b60405180910390a2600e600083815260200190815260200160002060009054906101000a900473ffffffffffffffffffffffffffffffffffffffff1690506001600781905550919050565b6000600560008473ffffffffffffffffffffffffffffffffffffffff1673ffffffffffffffffffffffffffffffffffffffff16815260200190815260200160002060008373ffffffffffffffffffffffffffffffffffffffff1673ffffffffffffffffffffffffffffffffffffffff16815260200190815260200160002060009054906101000a900460ff16905092915050565b6000601060008373ffffffffffffffffffffffffffffffffffffffff1673ffffffffffffffffffffffffffffffffffffffff168152602001908152602001600020549050919050565b6121c1612607565b73ffffffffffffffffffffffffffffffffffffffff166121df6117d4565b73ffffffffffffffffffffffffffffffffffffffff1614612235576040517f08c379a000000000000000000000000000000000000000000000000000000000815260040161222c9061382e565b60405180910390fd5b600073ffffffffffffffffffffffffffffffffffffffff168173ffffffffffffffffffffffffffffffffffffffff1614156122a5576040517f08c379a000000000000000000000000000000000000000000000000000000000815260040161229c906143bc565b60405180910390fd5b6122ae81612a96565b50565b600080600260075414156122fa576040517f08c379a00000000000000000000000000000000000000000000000000000000081526004016122f1906139de565b60405180910390fd5b60026007819055506000831180156123135750600a8311155b612352576040517f08c379a000000000000000000000000000000000000000000000000000000000815260040161234990614428565b60405180910390fd5b60038361235f600b6126c8565b6123699190613b39565b11156123aa576040517f08c379a00000000000000000000000000000000000000000000000000000000081526004016123a1906144ba565b60405180910390fd5b82601060003373ffffffffffffffffffffffffffffffffffffffff1673ffffffffffffffffffffffffffffffffffffffff16815260200190815260200160002054101561242c576040517f08c379a000000000000000000000000000000000000000000000000000000000815260040161242390613d33565b60405180910390fd5b6000600161243a600a6126c8565b600380600a6124499190613b05565b6124539190613b05565b61245d9190613b39565b6124679190613b39565b905060005b848110156124c65761247e600b612a10565b6124b361248b600b6126c8565b600380600a61249a9190613b05565b6124a49190613b05565b6124ae9190613b39565b612a26565b80806124be90613d53565b91505061246c565b5083601060003373ffffffffffffffffffffffffffffffffffffffff1673ffffffffffffffffffffffffffffffffffffffff16815260200190815260200160002060008282546125169190613b05565b92505081905550808492509250506001600781905550915091565b60007f01ffc9a7000000000000000000000000000000000000000000000000000000007bffffffffffffffffffffffffffffffffffffffffffffffffffffffff1916827bffffffffffffffffffffffffffffffffffffffffffffffffffffffff1916149050919050565b60008073ffffffffffffffffffffffffffffffffffffffff166002600084815260200190815260200160002060009054906101000a900473ffffffffffffffffffffffffffffffffffffffff1673ffffffffffffffffffffffffffffffffffffffff1614159050919050565b600033905090565b816004600083815260200190815260200160002060006101000a81548173ffffffffffffffffffffffffffffffffffffffff021916908373ffffffffffffffffffffffffffffffffffffffff160217905550808273ffffffffffffffffffffffffffffffffffffffff166126828361142f565b73ffffffffffffffffffffffffffffffffffffffff167f8c5be1e5ebec7d5bd14f71427d1e84f3dd0314c0f7b2291e5b200ac8c7c3b92560405160405180910390a45050565b600081600001549050919050565b60006126e18261259b565b612720576040517f08c379a00000000000000000000000000000000000000000000000000000000081526004016127179061454c565b60405180910390fd5b600061272b8361142f565b90508073ffffffffffffffffffffffffffffffffffffffff168473ffffffffffffffffffffffffffffffffffffffff16148061279a57508373ffffffffffffffffffffffffffffffffffffffff1661278284610af4565b73ffffffffffffffffffffffffffffffffffffffff16145b806127ab57506127aa81856120dc565b5b91505092915050565b8273ffffffffffffffffffffffffffffffffffffffff166127d48261142f565b73ffffffffffffffffffffffffffffffffffffffff161461282a576040517f08c379a0000000000000000000000000000000000000000000000000000000008152600401612821906145de565b60405180910390fd5b600073ffffffffffffffffffffffffffffffffffffffff168273ffffffffffffffffffffffffffffffffffffffff16141561289a576040517f08c379a000000000000000000000000000000000000000000000000000000000815260040161289190614670565b60405180910390fd5b6128a5838383612bb8565b6128b060008261260f565b6001600360008573ffffffffffffffffffffffffffffffffffffffff1673ffffffffffffffffffffffffffffffffffffffff16815260200190815260200160002060008282546129009190613b05565b925050819055506001600360008473ffffffffffffffffffffffffffffffffffffffff1673ffffffffffffffffffffffffffffffffffffffff16815260200190815260200160002060008282546129579190613b39565b92505081905550816002600083815260200190815260200160002060006101000a81548173ffffffffffffffffffffffffffffffffffffffff021916908373ffffffffffffffffffffffffffffffffffffffff160217905550808273ffffffffffffffffffffffffffffffffffffffff168473ffffffffffffffffffffffffffffffffffffffff167fddf252ad1be2c89b69c2b068fc378daa952ba7f163c4a11628f55a4df523b3ef60405160405180910390a4505050565b6001816000016000828254019250508190555050565b612a2e612f9f565b81334442604051602001612a4594939291906146f9565b6040516020818303038152906040528051906020012060001c816000018181525050612a713383612bbd565b8060096000848152602001908152602001600020600082015181600001559050505050565b6000600660009054906101000a900473ffffffffffffffffffffffffffffffffffffffff16905081600660006101000a81548173ffffffffffffffffffffffffffffffffffffffff021916908373ffffffffffffffffffffffffffffffffffffffff1602179055508173ffffffffffffffffffffffffffffffffffffffff168173ffffffffffffffffffffffffffffffffffffffff167f8be0079c531659141344cd1fd0a4f28419497f9722a3daafe3b4186f6b6457e060405160405180910390a35050565b612b678484846127b4565b612b7384848484612bdb565b612bb2576040517f08c379a0000000000000000000000000000000000000000000000000000000008152600401612ba9906147b9565b60405180910390fd5b50505050565b505050565b612bd7828260405180602001604052806000815250612d63565b5050565b6000612bfc8473ffffffffffffffffffffffffffffffffffffffff16612dbe565b15612d56578373ffffffffffffffffffffffffffffffffffffffff1663150b7a02612c25612607565b8786866040518563ffffffff1660e01b8152600401612c47949392919061482e565b6020604051808303816000875af1925050508015612c8357506040513d601f19601f82011682018060405250810190612c80919061488f565b60015b612d06573d8060008114612cb3576040519150601f19603f3d011682016040523d82523d6000602084013e612cb8565b606091505b50600081511415612cfe576040517f08c379a0000000000000000000000000000000000000000000000000000000008152600401612cf5906147b9565b60405180910390fd5b805181602001fd5b63150b7a0260e01b7bffffffffffffffffffffffffffffffffffffffffffffffffffffffff1916817bffffffffffffffffffffffffffffffffffffffffffffffffffffffff191614915050612d5b565b600190505b949350505050565b612d6d8383612dd1565b612d7a6000848484612bdb565b612db9576040517f08c379a0000000000000000000000000000000000000000000000000000000008152600401612db0906147b9565b60405180910390fd5b505050565b600080823b905060008111915050919050565b600073ffffffffffffffffffffffffffffffffffffffff168273ffffffffffffffffffffffffffffffffffffffff161415612e41576040517f08c379a0000000000000000000000000000000000000000000000000000000008152600401612e3890614908565b60405180910390fd5b612e4a8161259b565b15612e8a576040517f08c379a0000000000000000000000000000000000000000000000000000000008152600401612e8190614974565b60405180910390fd5b612e9660008383612bb8565b6001600360008473ffffffffffffffffffffffffffffffffffffffff1673ffffffffffffffffffffffffffffffffffffffff1681526020019081526020016000206000828254612ee69190613b39565b92505081905550816002600083815260200190815260200160002060006101000a81548173ffffffffffffffffffffffffffffffffffffffff021916908373ffffffffffffffffffffffffffffffffffffffff160217905550808273ffffffffffffffffffffffffffffffffffffffff16600073ffffffffffffffffffffffffffffffffffffffff167fddf252ad1be2c89b69c2b068fc378daa952ba7f163c4a11628f55a4df523b3ef60405160405180910390a45050565b6040518060200160405280600081525090565b6000604051905090565b600080fd5b600080fd5b60007fffffffff0000000000000000000000000000000000000000000000000000000082169050919050565b612ffb81612fc6565b811461300657600080fd5b50565b60008135905061301881612ff2565b92915050565b60006020828403121561303457613033612fbc565b5b600061304284828501613009565b91505092915050565b60008115159050919050565b6130608161304b565b82525050565b600060208201905061307b6000830184613057565b92915050565b600081519050919050565b600082825260208201905092915050565b60005b838110156130bb5780820151818401526020810190506130a0565b838111156130ca576000848401525b50505050565b6000601f19601f8301169050919050565b60006130ec82613081565b6130f6818561308c565b935061310681856020860161309d565b61310f816130d0565b840191505092915050565b6000602082019050818103600083015261313481846130e1565b905092915050565b6000819050919050565b61314f8161313c565b811461315a57600080fd5b50565b60008135905061316c81613146565b92915050565b60006020828403121561318857613187612fbc565b5b60006131968482850161315d565b91505092915050565b600073ffffffffffffffffffffffffffffffffffffffff82169050919050565b60006131ca8261319f565b9050919050565b6131da816131bf565b82525050565b60006020820190506131f560008301846131d1565b92915050565b613204816131bf565b811461320f57600080fd5b50565b600081359050613221816131fb565b92915050565b6000806040838503121561323e5761323d612fbc565b5b600061324c85828601613212565b925050602061325d8582860161315d565b9150509250929050565b6132708161313c565b82525050565b600060208201905061328b6000830184613267565b92915050565b6000602082840312156132a7576132a6612fbc565b5b60006132b584828501613212565b91505092915050565b6132c78161304b565b81146132d257600080fd5b50565b6000813590506132e4816132be565b92915050565b600060208284031215613300576132ff612fbc565b5b600061330e848285016132d5565b91505092915050565b6000806000606084860312156133305761332f612fbc565b5b600061333e86828701613212565b935050602061334f86828701613212565b92505060406133608682870161315d565b9150509250925092565b600060408201905061337f6000830185613267565b61338c6020830184613267565b9392505050565b600080604083850312156133aa576133a9612fbc565b5b60006133b885828601613212565b92505060206133c9858286016132d5565b9150509250929050565b600080fd5b600080fd5b7f4e487b7100000000000000000000000000000000000000000000000000000000600052604160045260246000fd5b613415826130d0565b810181811067ffffffffffffffff82111715613434576134336133dd565b5b80604052505050565b6000613447612fb2565b9050613453828261340c565b919050565b600067ffffffffffffffff821115613473576134726133dd565b5b61347c826130d0565b9050602081019050919050565b82818337600083830152505050565b60006134ab6134a684613458565b61343d565b9050828152602081018484840111156134c7576134c66133d8565b5b6134d2848285613489565b509392505050565b600082601f8301126134ef576134ee6133d3565b5b81356134ff848260208601613498565b91505092915050565b6000806000806080858703121561352257613521612fbc565b5b600061353087828801613212565b945050602061354187828801613212565b93505060406135528782880161315d565b925050606085013567ffffffffffffffff81111561357357613572612fc1565b5b61357f878288016134da565b91505092959194509250565b600080604083850312156135a2576135a1612fbc565b5b60006135b085828601613212565b92505060206135c185828601613212565b9150509250929050565b7f4e487b7100000000000000000000000000000000000000000000000000000000600052602260045260246000fd5b6000600282049050600182168061361257607f821691505b60208210811415613626576136256135cb565b5b50919050565b7f4552433732313a20617070726f76656420717565727920666f72206e6f6e657860008201527f697374656e7420746f6b656e0000000000000000000000000000000000000000602082015250565b6000613688602c8361308c565b91506136938261362c565b604082019050919050565b600060208201905081810360008301526136b78161367b565b9050919050565b7f4552433732313a20617070726f76616c20746f2063757272656e74206f776e6560008201527f7200000000000000000000000000000000000000000000000000000000000000602082015250565b600061371a60218361308c565b9150613725826136be565b604082019050919050565b600060208201905081810360008301526137498161370d565b9050919050565b7f4552433732313a20617070726f76652063616c6c6572206973206e6f74206f7760008201527f6e6572206e6f7220617070726f76656420666f7220616c6c0000000000000000602082015250565b60006137ac60388361308c565b91506137b782613750565b604082019050919050565b600060208201905081810360008301526137db8161379f565b9050919050565b7f4f776e61626c653a2063616c6c6572206973206e6f7420746865206f776e6572600082015250565b600061381860208361308c565b9150613823826137e2565b602082019050919050565b600060208201905081810360008301526138478161380b565b9050919050565b7f4552433732313a207472616e736665722063616c6c6572206973206e6f74206f60008201527f776e6572206e6f7220617070726f766564000000000000000000000000000000602082015250565b60006138aa60318361308c565b91506138b58261384e565b604082019050919050565b600060208201905081810360008301526138d98161389d565b9050919050565b600081905092915050565b50565b60006138fb6000836138e0565b9150613906826138eb565b600082019050919050565b600061391c826138ee565b9150819050919050565b7f5769746864726177616c206661696c6564000000000000000000000000000000600082015250565b600061395c60118361308c565b915061396782613926565b602082019050919050565b6000602082019050818103600083015261398b8161394f565b9050919050565b7f5265656e7472616e637947756172643a207265656e7472616e742063616c6c00600082015250565b60006139c8601f8361308c565b91506139d382613992565b602082019050919050565b600060208201905081810360008301526139f7816139bb565b9050919050565b7f5075626c69632073616c65206e6f74206f70656e000000000000000000000000600082015250565b6000613a3460148361308c565b9150613a3f826139fe565b602082019050919050565b60006020820190508181036000830152613a6381613a27565b9050919050565b7f496e76616c6964205377656174657220636f756e740000000000000000000000600082015250565b6000613aa060158361308c565b9150613aab82613a6a565b602082019050919050565b60006020820190508181036000830152613acf81613a93565b9050919050565b7f4e487b7100000000000000000000000000000000000000000000000000000000600052601160045260246000fd5b6000613b108261313c565b9150613b1b8361313c565b925082821015613b2e57613b2d613ad6565b5b828203905092915050565b6000613b448261313c565b9150613b4f8361313c565b9250827fffffffffffffffffffffffffffffffffffffffffffffffffffffffffffffffff03821115613b8457613b83613ad6565b5b828201905092915050565b7f416c6c2053776561746572732068617665206265656e206d696e746564000000600082015250565b6000613bc5601d8361308c565b9150613bd082613b8f565b602082019050919050565b60006020820190508181036000830152613bf481613bb8565b9050919050565b6000613c068261313c565b9150613c118361313c565b9250817fffffffffffffffffffffffffffffffffffffffffffffffffffffffffffffffff0483118215151615613c4a57613c49613ad6565b5b828202905092915050565b7f496e636f727265637420616d6f756e74206f662065746865722073656e740000600082015250565b6000613c8b601e8361308c565b9150613c9682613c55565b602082019050919050565b60006020820190508181036000830152613cba81613c7e565b9050919050565b7f596f752063616e6e6f74206d696e742074686973206d616e792072657365727660008201527f6564205377656174657273000000000000000000000000000000000000000000602082015250565b6000613d1d602b8361308c565b9150613d2882613cc1565b604082019050919050565b60006020820190508181036000830152613d4c81613d10565b9050919050565b6000613d5e8261313c565b91507fffffffffffffffffffffffffffffffffffffffffffffffffffffffffffffffff821415613d9157613d90613ad6565b5b600182019050919050565b7f4552433732313a206f776e657220717565727920666f72206e6f6e657869737460008201527f656e7420746f6b656e0000000000000000000000000000000000000000000000602082015250565b6000613df860298361308c565b9150613e0382613d9c565b604082019050919050565b60006020820190508181036000830152613e2781613deb565b9050919050565b7f4552433732313a2062616c616e636520717565727920666f7220746865207a6560008201527f726f206164647265737300000000000000000000000000000000000000000000602082015250565b6000613e8a602a8361308c565b9150613e9582613e2e565b604082019050919050565b60006020820190508181036000830152613eb981613e7d565b9050919050565b7f4e6f742079657420636c61696d656420746f6b656e0000000000000000000000600082015250565b6000613ef660158361308c565b9150613f0182613ec0565b602082019050919050565b60006020820190508181036000830152613f2581613ee9565b9050919050565b60008160001c9050919050565b6000819050919050565b6000613f56613f5183613f2c565b613f39565b9050919050565b613f668161313c565b82525050565b602082016000808301549050613f8181613f43565b613f8e6000860182613f5d565b5050505050565b6000606082019050613faa6000830186613267565b613fb76020830185613f6c565b613fc460408301846131d1565b949350505050565b600067ffffffffffffffff821115613fe757613fe66133dd565b5b613ff0826130d0565b9050602081019050919050565b600061401061400b84613fcc565b61343d565b90508281526020810184848401111561402c5761402b6133d8565b5b61403784828561309d565b509392505050565b600082601f830112614054576140536133d3565b5b8151614064848260208601613ffd565b91505092915050565b60006020828403121561408357614082612fbc565b5b600082015167ffffffffffffffff8111156140a1576140a0612fc1565b5b6140ad8482850161403f565b91505092915050565b7f4552433732313a20617070726f766520746f2063616c6c657200000000000000600082015250565b60006140ec60198361308c565b91506140f7826140b6565b602082019050919050565b6000602082019050818103600083015261411b816140df565b9050919050565b7f4552433732314d657461646174613a2055524920717565727920666f72206e6f60008201527f6e6578697374656e7420746f6b656e0000000000000000000000000000000000602082015250565b600061417e602f8361308c565b915061418982614122565b604082019050919050565b600060208201905081810360008301526141ad81614171565b9050919050565b60006040820190506141c96000830185613267565b6141d66020830184613f6c565b9392505050565b7f436c61696d696e67206e6f74206f70656e000000000000000000000000000000600082015250565b600061421360118361308c565b915061421e826141dd565b602082019050919050565b6000602082019050818103600083015261424281614206565b9050919050565b7f436c61696d696e67206e6f74206f776e656420746f6b656e0000000000000000600082015250565b600061427f60188361308c565b915061428a82614249565b602082019050919050565b600060208201905081810360008301526142ae81614272565b9050919050565b7f546f6b656e20616c726561647920636c61696d65640000000000000000000000600082015250565b60006142eb60158361308c565b91506142f6826142b5565b602082019050919050565b6000602082019050818103600083015261431a816142de565b9050919050565b600060408201905061433660008301856131d1565b61434360208301846131d1565b9392505050565b7f4f776e61626c653a206e6577206f776e657220697320746865207a65726f206160008201527f6464726573730000000000000000000000000000000000000000000000000000602082015250565b60006143a660268361308c565b91506143b18261434a565b604082019050919050565b600060208201905081810360008301526143d581614399565b9050919050565b7f496e76616c696420636f756e7400000000000000000000000000000000000000600082015250565b6000614412600d8361308c565b915061441d826143dc565b602082019050919050565b6000602082019050818103600083015261444181614405565b9050919050565b7f416c6c2072657365727665642053776561746572732068617665206265656e2060008201527f6d696e7465640000000000000000000000000000000000000000000000000000602082015250565b60006144a460268361308c565b91506144af82614448565b604082019050919050565b600060208201905081810360008301526144d381614497565b9050919050565b7f4552433732313a206f70657261746f7220717565727920666f72206e6f6e657860008201527f697374656e7420746f6b656e0000000000000000000000000000000000000000602082015250565b6000614536602c8361308c565b9150614541826144da565b604082019050919050565b6000602082019050818103600083015261456581614529565b9050919050565b7f4552433732313a207472616e73666572206f6620746f6b656e2074686174206960008201527f73206e6f74206f776e0000000000000000000000000000000000000000000000602082015250565b60006145c860298361308c565b91506145d38261456c565b604082019050919050565b600060208201905081810360008301526145f7816145bb565b9050919050565b7f4552433732313a207472616e7366657220746f20746865207a65726f2061646460008201527f7265737300000000000000000000000000000000000000000000000000000000602082015250565b600061465a60248361308c565b9150614665826145fe565b604082019050919050565b600060208201905081810360008301526146898161464d565b9050919050565b6000819050919050565b6146ab6146a68261313c565b614690565b82525050565b60008160601b9050919050565b60006146c9826146b1565b9050919050565b60006146db826146be565b9050919050565b6146f36146ee826131bf565b6146d0565b82525050565b6000614705828761469a565b60208201915061471582866146e2565b601482019150614725828561469a565b602082019150614735828461469a565b60208201915081905095945050505050565b7f4552433732313a207472616e7366657220746f206e6f6e20455243373231526560008201527f63656976657220696d706c656d656e7465720000000000000000000000000000602082015250565b60006147a360328361308c565b91506147ae82614747565b604082019050919050565b600060208201905081810360008301526147d281614796565b9050919050565b600081519050919050565b600082825260208201905092915050565b6000614800826147d9565b61480a81856147e4565b935061481a81856020860161309d565b614823816130d0565b840191505092915050565b600060808201905061484360008301876131d1565b61485060208301866131d1565b61485d6040830185613267565b818103606083015261486f81846147f5565b905095945050505050565b60008151905061488981612ff2565b92915050565b6000602082840312156148a5576148a4612fbc565b5b60006148b38482850161487a565b91505092915050565b7f4552433732313a206d696e7420746f20746865207a65726f2061646472657373600082015250565b60006148f260208361308c565b91506148fd826148bc565b602082019050919050565b60006020820190508181036000830152614921816148e5565b9050919050565b7f4552433732313a20746f6b656e20616c7265616479206d696e74656400000000600082015250565b600061495e601c8361308c565b915061496982614928565b602082019050919050565b6000602082019050818103600083015261498d81614951565b905091905056fe7b226e616d65223a20224f6e20436861696e204368726973746d61732053776561746572222c20226465736372697074696f6e223a20225468652046697273742c2031303025204f6e2d436861696e204368726973746d61732053776561746572207061747465726e2067656e657261746f722077697468207265616c20776f726c64207574696c69747921222c2022696d616765223a202268747470733a2f2f73776561746572736f6e636861696e2e73332e616d617a6f6e6177732e636f6d2f7072652d72657665616c2f7072652d72657665616c2d7468756d626e61696c2e706e67227d7b226572726f72223a20224e6f2072656e646572696e6720636f6e747261637420736574227da26469706673582212207d7ce3921973327cd7c2362c14073407c7cedf4f278cc81cccee11cec9aa3a2564736f6c634300080a0033",
  "immutableReferences": {},
  "source": "// SPDX-License-Identifier: MIT\npragma solidity ^0.8.10;\n\nimport \"@openzeppelin/contracts/token/ERC721/ERC721.sol\";\nimport \"@openzeppelin/contracts/security/ReentrancyGuard.sol\";\nimport \"@openzeppelin/contracts/security/Pausable.sol\";\nimport \"@openzeppelin/contracts/access/Ownable.sol\";\nimport \"@openzeppelin/contracts/utils/Counters.sol\";\n\nimport \"./OnChainSweatersTypes.sol\";\nimport \"./IOnChainSweatersRenderer.sol\";\n\ncontract OnChainSweaters is ERC721, Ownable, ReentrancyGuard, Pausable {\n    mapping(uint256 => OnChainSweatersTypes.OnChainSweater) sweaters;\n    event GenerateSweater(uint256 indexed tokenId, uint256 dna);\n    event ClaimedSweater(address claimer, uint256 indexed tokenId, address tx);\n    using Counters for Counters.Counter;\n\n    Counters.Counter private _tokenIds;\n    Counters.Counter private _reservedTokenIds;\n\n    uint256 private constant MAX_FREE_MINT_SUPPLY = 3;//500;\n    uint256 private constant MAX_SUPPLY = 10;//3333;\n    uint256 private constant FOUNDERS_RESERVE_AMOUNT = 3;//50;\n    uint256 private constant MAX_PUBLIC_SUPPLY = MAX_SUPPLY - MAX_FREE_MINT_SUPPLY - FOUNDERS_RESERVE_AMOUNT;\n    uint256 private constant MINT_PRICE = 0.03 ether;\n    uint256 private constant MAX_PER_ADDRESS = 10;//10;\n\n    uint256 public publicSaleStartTimestamp;\n    address public renderingContractAddress;\n    bool public claimActive = false;\n    bool public mintActive = true;\n    bool public freeMintActive = true;\n\n    mapping(uint256 => address) public claimedTokenTransactions;\n    mapping(address => uint256) public mintedCounts;\n    mapping(address => uint256) private founderMintCountsRemaining;\n\n    constructor() ERC721(\"Xmas Sweaters OnChain\", \"SWEAT\") {}\n\n    modifier whenPublicSaleActive() {\n        require(isPublicSaleOpen() && mintActive, \"Public sale not open\");\n        _;\n    }\n\n    modifier whenFreeMintActive() {\n        require(isPublicSaleOpen() && mintActive && freeMintActive, \"Free mint not open\");\n        _;\n    }\n\n    modifier whenClaimActive() {\n        require(isClaimOpen(), \"Claiming not open\");\n        _;\n    }\n\n    function getTotalMinted() external view returns (uint256) {\n        return _tokenIds.current();\n    }\n    \n\n    function getRemainingFounderMints(address _addr) public view returns (uint256) {\n        return founderMintCountsRemaining[_addr];\n    }\n\n    function isPublicSaleOpen() public view returns (bool) {\n        return block.timestamp >= publicSaleStartTimestamp && publicSaleStartTimestamp != 0;\n    }\n\n    function isClaimOpen() public view returns (bool) {\n        return claimActive;\n    }\n\n    function setRenderingContractAddress(address _renderingContractAddress) public onlyOwner {\n        renderingContractAddress = _renderingContractAddress;\n    }\n\n    function setPublicSaleTimestamp(uint256 timestamp) external onlyOwner {\n        publicSaleStartTimestamp = timestamp;\n    }\n\n    function setMintStatus(bool value) external onlyOwner {\n        mintActive = value;\n    }\n\n    function setClaimStatus(bool value) external onlyOwner {\n        claimActive = value;\n    }\n\n    function mintPublicSale(uint256 _count) external payable nonReentrant whenPublicSaleActive returns (uint256, uint256) {\n        require(_count > 0 && _count <= MAX_PER_ADDRESS, \"Invalid Sweater count\"); // To check wallet count\n        require(_tokenIds.current() + _count <= MAX_PUBLIC_SUPPLY, \"All Sweaters have been minted\");\n        if(_tokenIds.current() > MAX_FREE_MINT_SUPPLY || !freeMintActive) {\n            require(_count * MINT_PRICE == msg.value, \"Incorrect amount of ether sent\");\n        }\n        require(mintedCounts[msg.sender] + _count <= MAX_PER_ADDRESS, \"You cannot mint this many reserved Sweaters\");\n        uint256 firstMintedId = _tokenIds.current() + 1;\n\n        for (uint256 i = 0; i < _count; i++) {\n            _tokenIds.increment();\n            mint(_tokenIds.current());\n        }\n        mintedCounts[msg.sender] += _count;\n\n        return (firstMintedId, _count);\n    }\n\n    function allocateFounderMint(address _addr, uint256 _count) public onlyOwner nonReentrant {\n        founderMintCountsRemaining[_addr] = _count;\n    }\n\n    function founderMint(uint256 _count) public nonReentrant returns (uint256, uint256) {\n        require(_count > 0 && _count <= MAX_PER_ADDRESS, \"Invalid count\");\n        require(_reservedTokenIds.current() + _count <= FOUNDERS_RESERVE_AMOUNT, \"All reserved Sweaters have been minted\");\n        require(founderMintCountsRemaining[msg.sender] >= _count, \"You cannot mint this many reserved Sweaters\");\n\n        uint256 firstMintedId = MAX_PUBLIC_SUPPLY + _tokenIds.current() + 1;\n        for (uint256 i = 0; i < _count; i++) {\n            _reservedTokenIds.increment();\n            mint(MAX_PUBLIC_SUPPLY + _reservedTokenIds.current());\n        }\n        founderMintCountsRemaining[msg.sender] -= _count;\n        return (firstMintedId, _count);\n    }\n\n    function mint(uint256 tokenId) internal {\n        OnChainSweatersTypes.OnChainSweater memory newSweater;\n        newSweater.dna = uint256(keccak256(abi.encodePacked(\n                tokenId,\n                msg.sender,\n                block.difficulty,\n                block.timestamp\n            )));\n\n        _safeMint(msg.sender, tokenId);\n        sweaters[tokenId] = newSweater;\n    }\n\n    function tokenURI(uint256 _tokenId) public view virtual override returns (string memory) {\n        require(_exists(_tokenId), \"ERC721Metadata: URI query for nonexistent token\");\n\n        if (renderingContractAddress == address(0)) {\n            return '{\"name\": \"On Chain Christmas Sweater\", \"description\": \"The First, 100% On-Chain Christmas Sweater pattern generator with real world utility!\", \"image\": \"https://sweatersonchain.s3.amazonaws.com/pre-reveal/pre-reveal-thumbnail.png\"}';\n        }\n\n        IOnChainSweatersRenderer renderer = IOnChainSweatersRenderer(renderingContractAddress);\n        return renderer.tokenURI(_tokenId, sweaters[_tokenId]);\n    }\n\n    function claimSweater(uint256 _tokenId) external nonReentrant whenClaimActive returns(address) {\n        require(ownerOf(_tokenId) == msg.sender, \"Claiming not owned token\");\n        require(claimedTokenTransactions[_tokenId] ==  address(0), \"Token already claimed\");\n        claimedTokenTransactions[_tokenId] = tx.origin;\n        emit ClaimedSweater(msg.sender, _tokenId, tx.origin);\n        return claimedTokenTransactions[_tokenId];\n    }\n\n    function getHighQualityClaimedSweater(uint256 _tokenId) external view returns(string memory) {\n        require(claimedTokenTransactions[_tokenId] !=  address(0), \"Not yet claimed token\");\n\n        if (renderingContractAddress == address(0)) {\n            return '{\"error\": \"No rendering contract set\"}';\n        }\n        IOnChainSweatersRenderer renderer = IOnChainSweatersRenderer(renderingContractAddress);\n        return renderer.getHQClaimedSweater(_tokenId, sweaters[_tokenId], claimedTokenTransactions[_tokenId]);\n    }\n\n    function getDna(uint256 _tokenId) public view returns (uint256) {\n        return sweaters[_tokenId].dna;\n    }\n\n\n    receive() external payable {}\n\n    function withdraw() public onlyOwner {\n        (bool success,) = msg.sender.call{value : address(this).balance}('');\n        require(success, \"Withdrawal failed\");\n    }\n\n}",
  "sourcePath": "/Users/emmanuelchappat/Dev_local/smart_contracts_sandbox/onChainSweaters/contracts/OnChainSweaters.sol",
  "compiler": {
    "name": "solc",
    "version": "0.8.10+commit.fc410830.Emscripten.clang"
  },
  "schemaVersion": "3.4.3",
  "updatedAt": "2021-12-04T20:42:23.773Z",
  "networkType": "ethereum",
  "devdoc": {
    "kind": "dev",
    "methods": {
      "approve(address,uint256)": {
        "details": "See {IERC721-approve}."
      },
      "balanceOf(address)": {
        "details": "See {IERC721-balanceOf}."
      },
      "getApproved(uint256)": {
        "details": "See {IERC721-getApproved}."
      },
      "isApprovedForAll(address,address)": {
        "details": "See {IERC721-isApprovedForAll}."
      },
      "name()": {
        "details": "See {IERC721Metadata-name}."
      },
      "owner()": {
        "details": "Returns the address of the current owner."
      },
      "ownerOf(uint256)": {
        "details": "See {IERC721-ownerOf}."
      },
      "paused()": {
        "details": "Returns true if the contract is paused, and false otherwise."
      },
      "renounceOwnership()": {
        "details": "Leaves the contract without owner. It will not be possible to call `onlyOwner` functions anymore. Can only be called by the current owner. NOTE: Renouncing ownership will leave the contract without an owner, thereby removing any functionality that is only available to the owner."
      },
      "safeTransferFrom(address,address,uint256)": {
        "details": "See {IERC721-safeTransferFrom}."
      },
      "safeTransferFrom(address,address,uint256,bytes)": {
        "details": "See {IERC721-safeTransferFrom}."
      },
      "setApprovalForAll(address,bool)": {
        "details": "See {IERC721-setApprovalForAll}."
      },
      "supportsInterface(bytes4)": {
        "details": "See {IERC165-supportsInterface}."
      },
      "symbol()": {
        "details": "See {IERC721Metadata-symbol}."
      },
      "transferFrom(address,address,uint256)": {
        "details": "See {IERC721-transferFrom}."
      },
      "transferOwnership(address)": {
        "details": "Transfers ownership of the contract to a new account (`newOwner`). Can only be called by the current owner."
      }
    },
    "version": 1
  },
  "userdoc": {
    "kind": "user",
    "methods": {},
    "version": 1
  }
}