{
  "contractName": "OnChainSweaters",
  "abi": [
    {
      "inputs": [],
      "stateMutability": "nonpayable",
      "type": "constructor"
    },
    {
      "anonymous": false,
      "inputs": [
        {
          "indexed": true,
          "internalType": "address",
          "name": "owner",
          "type": "address"
        },
        {
          "indexed": true,
          "internalType": "address",
          "name": "approved",
          "type": "address"
        },
        {
          "indexed": true,
          "internalType": "uint256",
          "name": "tokenId",
          "type": "uint256"
        }
      ],
      "name": "Approval",
      "type": "event"
    },
    {
      "anonymous": false,
      "inputs": [
        {
          "indexed": true,
          "internalType": "address",
          "name": "owner",
          "type": "address"
        },
        {
          "indexed": true,
          "internalType": "address",
          "name": "operator",
          "type": "address"
        },
        {
          "indexed": false,
          "internalType": "bool",
          "name": "approved",
          "type": "bool"
        }
      ],
      "name": "ApprovalForAll",
      "type": "event"
    },
    {
      "anonymous": false,
      "inputs": [
        {
          "indexed": false,
          "internalType": "address",
          "name": "claimer",
          "type": "address"
        },
        {
          "indexed": true,
          "internalType": "uint256",
          "name": "tokenId",
          "type": "uint256"
        },
        {
          "indexed": false,
          "internalType": "address",
          "name": "tx",
          "type": "address"
        }
      ],
      "name": "ClaimedSweater",
      "type": "event"
    },
    {
      "anonymous": false,
      "inputs": [
        {
          "indexed": true,
          "internalType": "uint256",
          "name": "tokenId",
          "type": "uint256"
        },
        {
          "indexed": false,
          "internalType": "uint256",
          "name": "dna",
          "type": "uint256"
        }
      ],
      "name": "GenerateSweater",
      "type": "event"
    },
    {
      "anonymous": false,
      "inputs": [
        {
          "indexed": true,
          "internalType": "address",
          "name": "previousOwner",
          "type": "address"
        },
        {
          "indexed": true,
          "internalType": "address",
          "name": "newOwner",
          "type": "address"
        }
      ],
      "name": "OwnershipTransferred",
      "type": "event"
    },
    {
      "anonymous": false,
      "inputs": [
        {
          "indexed": false,
          "internalType": "address",
          "name": "account",
          "type": "address"
        }
      ],
      "name": "Paused",
      "type": "event"
    },
    {
      "anonymous": false,
      "inputs": [
        {
          "indexed": true,
          "internalType": "address",
          "name": "from",
          "type": "address"
        },
        {
          "indexed": true,
          "internalType": "address",
          "name": "to",
          "type": "address"
        },
        {
          "indexed": true,
          "internalType": "uint256",
          "name": "tokenId",
          "type": "uint256"
        }
      ],
      "name": "Transfer",
      "type": "event"
    },
    {
      "anonymous": false,
      "inputs": [
        {
          "indexed": false,
          "internalType": "address",
          "name": "account",
          "type": "address"
        }
      ],
      "name": "Unpaused",
      "type": "event"
    },
    {
      "inputs": [],
      "name": "FOUNDERS_RESERVE_AMOUNT",
      "outputs": [
        {
          "internalType": "uint256",
          "name": "",
          "type": "uint256"
        }
      ],
      "stateMutability": "view",
      "type": "function",
      "constant": true
    },
    {
      "inputs": [],
      "name": "MAX_FREE_MINT_SUPPLY",
      "outputs": [
        {
          "internalType": "uint256",
          "name": "",
          "type": "uint256"
        }
      ],
      "stateMutability": "view",
      "type": "function",
      "constant": true
    },
    {
      "inputs": [],
      "name": "MAX_PUBLIC_SUPPLY",
      "outputs": [
        {
          "internalType": "uint256",
          "name": "",
          "type": "uint256"
        }
      ],
      "stateMutability": "view",
      "type": "function",
      "constant": true
    },
    {
      "inputs": [],
      "name": "MAX_SUPPLY",
      "outputs": [
        {
          "internalType": "uint256",
          "name": "",
          "type": "uint256"
        }
      ],
      "stateMutability": "view",
      "type": "function",
      "constant": true
    },
    {
      "inputs": [],
      "name": "MINT_PRICE",
      "outputs": [
        {
          "internalType": "uint256",
          "name": "",
          "type": "uint256"
        }
      ],
      "stateMutability": "view",
      "type": "function",
      "constant": true
    },
    {
      "inputs": [
        {
          "internalType": "address",
          "name": "to",
          "type": "address"
        },
        {
          "internalType": "uint256",
          "name": "tokenId",
          "type": "uint256"
        }
      ],
      "name": "approve",
      "outputs": [],
      "stateMutability": "nonpayable",
      "type": "function"
    },
    {
      "inputs": [
        {
          "internalType": "address",
          "name": "owner",
          "type": "address"
        }
      ],
      "name": "balanceOf",
      "outputs": [
        {
          "internalType": "uint256",
          "name": "",
          "type": "uint256"
        }
      ],
      "stateMutability": "view",
      "type": "function",
      "constant": true
    },
    {
      "inputs": [],
      "name": "burningActive",
      "outputs": [
        {
          "internalType": "bool",
          "name": "",
          "type": "bool"
        }
      ],
      "stateMutability": "view",
      "type": "function",
      "constant": true
    },
    {
      "inputs": [],
      "name": "claimActive",
      "outputs": [
        {
          "internalType": "bool",
          "name": "",
          "type": "bool"
        }
      ],
      "stateMutability": "view",
      "type": "function",
      "constant": true
    },
    {
      "inputs": [
        {
          "internalType": "uint256",
          "name": "",
          "type": "uint256"
        }
      ],
      "name": "claimedTokenTransactions",
      "outputs": [
        {
          "internalType": "address",
          "name": "",
          "type": "address"
        }
      ],
      "stateMutability": "view",
      "type": "function",
      "constant": true
    },
    {
      "inputs": [
        {
          "internalType": "uint256",
          "name": "tokenId",
          "type": "uint256"
        }
      ],
      "name": "getApproved",
      "outputs": [
        {
          "internalType": "address",
          "name": "",
          "type": "address"
        }
      ],
      "stateMutability": "view",
      "type": "function",
      "constant": true
    },
    {
      "inputs": [
        {
          "internalType": "address",
          "name": "owner",
          "type": "address"
        },
        {
          "internalType": "address",
          "name": "operator",
          "type": "address"
        }
      ],
      "name": "isApprovedForAll",
      "outputs": [
        {
          "internalType": "bool",
          "name": "",
          "type": "bool"
        }
      ],
      "stateMutability": "view",
      "type": "function",
      "constant": true
    },
    {
      "inputs": [],
      "name": "mintActive",
      "outputs": [
        {
          "internalType": "bool",
          "name": "",
          "type": "bool"
        }
      ],
      "stateMutability": "view",
      "type": "function",
      "constant": true
    },
    {
      "inputs": [
        {
          "internalType": "address",
          "name": "",
          "type": "address"
        }
      ],
      "name": "mintedCounts",
      "outputs": [
        {
          "internalType": "uint256",
          "name": "",
          "type": "uint256"
        }
      ],
      "stateMutability": "view",
      "type": "function",
      "constant": true
    },
    {
      "inputs": [],
      "name": "name",
      "outputs": [
        {
          "internalType": "string",
          "name": "",
          "type": "string"
        }
      ],
      "stateMutability": "view",
      "type": "function",
      "constant": true
    },
    {
      "inputs": [],
      "name": "owner",
      "outputs": [
        {
          "internalType": "address",
          "name": "",
          "type": "address"
        }
      ],
      "stateMutability": "view",
      "type": "function",
      "constant": true
    },
    {
      "inputs": [
        {
          "internalType": "uint256",
          "name": "tokenId",
          "type": "uint256"
        }
      ],
      "name": "ownerOf",
      "outputs": [
        {
          "internalType": "address",
          "name": "",
          "type": "address"
        }
      ],
      "stateMutability": "view",
      "type": "function",
      "constant": true
    },
    {
      "inputs": [],
      "name": "paused",
      "outputs": [
        {
          "internalType": "bool",
          "name": "",
          "type": "bool"
        }
      ],
      "stateMutability": "view",
      "type": "function",
      "constant": true
    },
    {
      "inputs": [],
      "name": "publicSaleStartTimestamp",
      "outputs": [
        {
          "internalType": "uint256",
          "name": "",
          "type": "uint256"
        }
      ],
      "stateMutability": "view",
      "type": "function",
      "constant": true
    },
    {
      "inputs": [],
      "name": "renderingContractAddress",
      "outputs": [
        {
          "internalType": "address",
          "name": "",
          "type": "address"
        }
      ],
      "stateMutability": "view",
      "type": "function",
      "constant": true
    },
    {
      "inputs": [],
      "name": "renounceOwnership",
      "outputs": [],
      "stateMutability": "nonpayable",
      "type": "function"
    },
    {
      "inputs": [
        {
          "internalType": "address",
          "name": "from",
          "type": "address"
        },
        {
          "internalType": "address",
          "name": "to",
          "type": "address"
        },
        {
          "internalType": "uint256",
          "name": "tokenId",
          "type": "uint256"
        }
      ],
      "name": "safeTransferFrom",
      "outputs": [],
      "stateMutability": "nonpayable",
      "type": "function"
    },
    {
      "inputs": [
        {
          "internalType": "address",
          "name": "from",
          "type": "address"
        },
        {
          "internalType": "address",
          "name": "to",
          "type": "address"
        },
        {
          "internalType": "uint256",
          "name": "tokenId",
          "type": "uint256"
        },
        {
          "internalType": "bytes",
          "name": "_data",
          "type": "bytes"
        }
      ],
      "name": "safeTransferFrom",
      "outputs": [],
      "stateMutability": "nonpayable",
      "type": "function"
    },
    {
      "inputs": [
        {
          "internalType": "address",
          "name": "operator",
          "type": "address"
        },
        {
          "internalType": "bool",
          "name": "approved",
          "type": "bool"
        }
      ],
      "name": "setApprovalForAll",
      "outputs": [],
      "stateMutability": "nonpayable",
      "type": "function"
    },
    {
      "inputs": [
        {
          "internalType": "bytes4",
          "name": "interfaceId",
          "type": "bytes4"
        }
      ],
      "name": "supportsInterface",
      "outputs": [
        {
          "internalType": "bool",
          "name": "",
          "type": "bool"
        }
      ],
      "stateMutability": "view",
      "type": "function",
      "constant": true
    },
    {
      "inputs": [],
      "name": "symbol",
      "outputs": [
        {
          "internalType": "string",
          "name": "",
          "type": "string"
        }
      ],
      "stateMutability": "view",
      "type": "function",
      "constant": true
    },
    {
      "inputs": [
        {
          "internalType": "address",
          "name": "from",
          "type": "address"
        },
        {
          "internalType": "address",
          "name": "to",
          "type": "address"
        },
        {
          "internalType": "uint256",
          "name": "tokenId",
          "type": "uint256"
        }
      ],
      "name": "transferFrom",
      "outputs": [],
      "stateMutability": "nonpayable",
      "type": "function"
    },
    {
      "inputs": [
        {
          "internalType": "address",
          "name": "newOwner",
          "type": "address"
        }
      ],
      "name": "transferOwnership",
      "outputs": [],
      "stateMutability": "nonpayable",
      "type": "function"
    },
    {
      "stateMutability": "payable",
      "type": "receive",
      "payable": true
    },
    {
      "inputs": [],
      "name": "getTotalMinted",
      "outputs": [
        {
          "internalType": "uint256",
          "name": "",
          "type": "uint256"
        }
      ],
      "stateMutability": "view",
      "type": "function",
      "constant": true
    },
    {
      "inputs": [
        {
          "internalType": "address",
          "name": "_addr",
          "type": "address"
        }
      ],
      "name": "getRemainingFounderMints",
      "outputs": [
        {
          "internalType": "uint256",
          "name": "",
          "type": "uint256"
        }
      ],
      "stateMutability": "view",
      "type": "function",
      "constant": true
    },
    {
      "inputs": [],
      "name": "isPublicSaleOpen",
      "outputs": [
        {
          "internalType": "bool",
          "name": "",
          "type": "bool"
        }
      ],
      "stateMutability": "view",
      "type": "function",
      "constant": true
    },
    {
      "inputs": [],
      "name": "isClaimOpen",
      "outputs": [
        {
          "internalType": "bool",
          "name": "",
          "type": "bool"
        }
      ],
      "stateMutability": "view",
      "type": "function",
      "constant": true
    },
    {
      "inputs": [],
      "name": "isBurningOpen",
      "outputs": [
        {
          "internalType": "bool",
          "name": "",
          "type": "bool"
        }
      ],
      "stateMutability": "view",
      "type": "function",
      "constant": true
    },
    {
      "inputs": [
        {
          "internalType": "address",
          "name": "_renderingContractAddress",
          "type": "address"
        }
      ],
      "name": "setRenderingContractAddress",
      "outputs": [],
      "stateMutability": "nonpayable",
      "type": "function"
    },
    {
      "inputs": [
        {
          "internalType": "uint256",
          "name": "timestamp",
          "type": "uint256"
        }
      ],
      "name": "setPublicSaleTimestamp",
      "outputs": [],
      "stateMutability": "nonpayable",
      "type": "function"
    },
    {
      "inputs": [
        {
          "internalType": "bool",
          "name": "value",
          "type": "bool"
        }
      ],
      "name": "setMintStatus",
      "outputs": [],
      "stateMutability": "nonpayable",
      "type": "function"
    },
    {
      "inputs": [],
      "name": "closeMintsOpenBurning",
      "outputs": [],
      "stateMutability": "nonpayable",
      "type": "function"
    },
    {
      "inputs": [
        {
          "internalType": "bool",
          "name": "value",
          "type": "bool"
        }
      ],
      "name": "setClaimStatus",
      "outputs": [],
      "stateMutability": "nonpayable",
      "type": "function"
    },
    {
      "inputs": [
        {
          "internalType": "uint256",
          "name": "_count",
          "type": "uint256"
        }
      ],
      "name": "mintPublicSale",
      "outputs": [
        {
          "internalType": "uint256",
          "name": "",
          "type": "uint256"
        },
        {
          "internalType": "uint256",
          "name": "",
          "type": "uint256"
        }
      ],
      "stateMutability": "payable",
      "type": "function",
      "payable": true
    },
    {
      "inputs": [
        {
          "internalType": "address",
          "name": "_addr",
          "type": "address"
        },
        {
          "internalType": "uint256",
          "name": "_count",
          "type": "uint256"
        }
      ],
      "name": "allocateFounderMint",
      "outputs": [],
      "stateMutability": "nonpayable",
      "type": "function"
    },
    {
      "inputs": [
        {
          "internalType": "uint256",
          "name": "_count",
          "type": "uint256"
        }
      ],
      "name": "founderMint",
      "outputs": [
        {
          "internalType": "uint256",
          "name": "",
          "type": "uint256"
        },
        {
          "internalType": "uint256",
          "name": "",
          "type": "uint256"
        }
      ],
      "stateMutability": "nonpayable",
      "type": "function"
    },
    {
      "inputs": [
        {
          "internalType": "uint256[]",
          "name": "tokenIds",
          "type": "uint256[]"
        }
      ],
      "name": "burnAndMint",
      "outputs": [
        {
          "internalType": "uint256",
          "name": "",
          "type": "uint256"
        },
        {
          "internalType": "uint256",
          "name": "",
          "type": "uint256"
        }
      ],
      "stateMutability": "nonpayable",
      "type": "function"
    },
    {
      "inputs": [
        {
          "internalType": "uint256",
          "name": "_tokenId",
          "type": "uint256"
        }
      ],
      "name": "tokenURI",
      "outputs": [
        {
          "internalType": "string",
          "name": "",
          "type": "string"
        }
      ],
      "stateMutability": "view",
      "type": "function",
      "constant": true
    },
    {
      "inputs": [
        {
          "internalType": "uint256",
          "name": "_tokenId",
          "type": "uint256"
        }
      ],
      "name": "claimSweater",
      "outputs": [
        {
          "internalType": "address",
          "name": "",
          "type": "address"
        }
      ],
      "stateMutability": "nonpayable",
      "type": "function"
    },
    {
      "inputs": [
        {
          "internalType": "uint256",
          "name": "_tokenId",
          "type": "uint256"
        }
      ],
      "name": "getHighQualityClaimedSweater",
      "outputs": [
        {
          "internalType": "string",
          "name": "",
          "type": "string"
        }
      ],
      "stateMutability": "view",
      "type": "function",
      "constant": true
    },
    {
      "inputs": [
        {
          "internalType": "uint256",
          "name": "_tokenId",
          "type": "uint256"
        }
      ],
      "name": "getDna",
      "outputs": [
        {
          "internalType": "uint256",
          "name": "",
          "type": "uint256"
        }
      ],
      "stateMutability": "view",
      "type": "function",
      "constant": true
    },
    {
      "inputs": [],
      "name": "withdraw",
      "outputs": [],
      "stateMutability": "nonpayable",
      "type": "function"
    }
  ],
  "bytecode": "0x60806040526000600e60146101000a81548160ff0219169083151502179055506001600e60156101000a81548160ff0219169083151502179055506000600e60166101000a81548160ff0219169083151502179055503480156200006257600080fd5b506040518060400160405280601581526020017f586d6173205377656174657273204f6e436861696e00000000000000000000008152506040518060400160405280600581526020017f53574541540000000000000000000000000000000000000000000000000000008152508160009080519060200190620000e79291906200021a565b508060019080519060200190620001009291906200021a565b50505062000123620001176200014c60201b60201c565b6200015460201b60201c565b60016007819055506000600860006101000a81548160ff0219169083151502179055506200032f565b600033905090565b6000600660009054906101000a900473ffffffffffffffffffffffffffffffffffffffff16905081600660006101000a81548173ffffffffffffffffffffffffffffffffffffffff021916908373ffffffffffffffffffffffffffffffffffffffff1602179055508173ffffffffffffffffffffffffffffffffffffffff168173ffffffffffffffffffffffffffffffffffffffff167f8be0079c531659141344cd1fd0a4f28419497f9722a3daafe3b4186f6b6457e060405160405180910390a35050565b8280546200022890620002f9565b90600052602060002090601f0160209004810192826200024c576000855562000298565b82601f106200026757805160ff191683800117855562000298565b8280016001018555821562000298579182015b82811115620002975782518255916020019190600101906200027a565b5b509050620002a79190620002ab565b5090565b5b80821115620002c6576000816000905550600101620002ac565b5090565b7f4e487b7100000000000000000000000000000000000000000000000000000000600052602260045260246000fd5b600060028204905060018216806200031257607f821691505b60208210811415620003295762000328620002ca565b5b50919050565b615aca806200033f6000396000f3fe60806040526004361061028c5760003560e01c80636352211e1161015a578063c002d23d116100c1578063d99287ec1161007a578063d99287ec14610a0c578063e985e9c514610a23578063efc0172914610a60578063f252460114610a8b578063f2fde38b14610ac8578063f42202e814610af157610293565b8063c002d23d146108e6578063c074f41214610911578063c87b56dd1461093c578063d4a6a2fd14610979578063d7822c99146109a4578063d80edd53146109cf57610293565b80638da5cb5b116101135780638da5cb5b146107c357806395d89b41146107ee5780639efacb4914610819578063a22cb46514610856578063b007e1881461087f578063b88d4fde146108bd57610293565b80636352211e146106b5578063654f97a3146106f25780636afc83271461071b57806370a0823114610746578063715018a6146107835780637dd0dbb51461079a57610293565b806325fd90f3116101fe578063422627c3116101b7578063422627c31461059f57806342842e0e146105dc578063511a9605146106055780635a5e5d581461062e5780635b439f0e1461065f5780635c975abb1461068a57610293565b806325fd90f31461048d5780632a47f799146104b857806332cb6b0c146104e357806333af1d571461050e57806337e4f2f61461054b5780633ccfd60b1461058857610293565b806312b40a9f1161025057806312b40a9f146103915780631a6949e3146103ba5780631c7c2598146103e55780631f85e3ca1461041057806323b872dd1461043957806324fd26521461046257610293565b806301ffc9a71461029857806306fdde03146102d5578063081812fc14610300578063095ea7b31461033d5780630ca1c5c91461036657610293565b3661029357005b600080fd5b3480156102a457600080fd5b506102bf60048036038101906102ba9190613a02565b610b2f565b6040516102cc9190613a4a565b60405180910390f35b3480156102e157600080fd5b506102ea610c11565b6040516102f79190613afe565b60405180910390f35b34801561030c57600080fd5b5061032760048036038101906103229190613b56565b610ca3565b6040516103349190613bc4565b60405180910390f35b34801561034957600080fd5b50610364600480360381019061035f9190613c0b565b610d28565b005b34801561037257600080fd5b5061037b610e40565b6040516103889190613c5a565b60405180910390f35b34801561039d57600080fd5b506103b860048036038101906103b39190613c75565b610e79565b005b3480156103c657600080fd5b506103cf610f39565b6040516103dc9190613a4a565b60405180910390f35b3480156103f157600080fd5b506103fa610f55565b6040516104079190613a4a565b60405180910390f35b34801561041c57600080fd5b5061043760048036038101906104329190613cce565b610f68565b005b34801561044557600080fd5b50610460600480360381019061045b9190613cfb565b611001565b005b34801561046e57600080fd5b50610477611061565b6040516104849190613a4a565b60405180910390f35b34801561049957600080fd5b506104a2611078565b6040516104af9190613a4a565b60405180910390f35b3480156104c457600080fd5b506104cd61108b565b6040516104da9190613c5a565b60405180910390f35b3480156104ef57600080fd5b506104f86110a8565b6040516105059190613c5a565b60405180910390f35b34801561051a57600080fd5b5061053560048036038101906105309190613b56565b6110ad565b6040516105429190613bc4565b60405180910390f35b34801561055757600080fd5b50610572600480360381019061056d9190613c75565b6110e0565b60405161057f9190613c5a565b60405180910390f35b34801561059457600080fd5b5061059d6110f8565b005b3480156105ab57600080fd5b506105c660048036038101906105c19190613b56565b611223565b6040516105d39190613c5a565b60405180910390f35b3480156105e857600080fd5b5061060360048036038101906105fe9190613cfb565b611243565b005b34801561061157600080fd5b5061062c60048036038101906106279190613b56565b611263565b005b61064860048036038101906106439190613b56565b6112e9565b604051610656929190613d4e565b60405180910390f35b34801561066b57600080fd5b50610674611663565b6040516106819190613c5a565b60405180910390f35b34801561069657600080fd5b5061069f611668565b6040516106ac9190613a4a565b60405180910390f35b3480156106c157600080fd5b506106dc60048036038101906106d79190613b56565b61167f565b6040516106e99190613bc4565b60405180910390f35b3480156106fe57600080fd5b5061071960048036038101906107149190613cce565b611731565b005b34801561072757600080fd5b506107306117ca565b60405161073d9190613a4a565b60405180910390f35b34801561075257600080fd5b5061076d60048036038101906107689190613c75565b6117e1565b60405161077a9190613c5a565b60405180910390f35b34801561078f57600080fd5b50610798611899565b005b3480156107a657600080fd5b506107c160048036038101906107bc9190613c0b565b611921565b005b3480156107cf57600080fd5b506107d8611a3b565b6040516107e59190613bc4565b60405180910390f35b3480156107fa57600080fd5b50610803611a65565b6040516108109190613afe565b60405180910390f35b34801561082557600080fd5b50610840600480360381019061083b9190613b56565b611af7565b60405161084d9190613afe565b60405180910390f35b34801561086257600080fd5b5061087d60048036038101906108789190613d77565b611d0b565b005b34801561088b57600080fd5b506108a660048036038101906108a19190613e1c565b611e8c565b6040516108b4929190613d4e565b60405180910390f35b3480156108c957600080fd5b506108e460048036038101906108df9190613f99565b61233c565b005b3480156108f257600080fd5b506108fb61239e565b6040516109089190613c5a565b60405180910390f35b34801561091d57600080fd5b506109266123a9565b6040516109339190613bc4565b60405180910390f35b34801561094857600080fd5b50610963600480360381019061095e9190613b56565b6123cf565b6040516109709190613afe565b60405180910390f35b34801561098557600080fd5b5061098e612554565b60405161099b9190613a4a565b60405180910390f35b3480156109b057600080fd5b506109b9612567565b6040516109c69190613c5a565b60405180910390f35b3480156109db57600080fd5b506109f660048036038101906109f19190613b56565b61256d565b604051610a039190613bc4565b60405180910390f35b348015610a1857600080fd5b50610a216127eb565b005b348015610a2f57600080fd5b50610a4a6004803603810190610a45919061401c565b61289f565b604051610a579190613a4a565b60405180910390f35b348015610a6c57600080fd5b50610a75612933565b604051610a829190613c5a565b60405180910390f35b348015610a9757600080fd5b50610ab26004803603810190610aad9190613c75565b612938565b604051610abf9190613c5a565b60405180910390f35b348015610ad457600080fd5b50610aef6004803603810190610aea9190613c75565b612981565b005b348015610afd57600080fd5b50610b186004803603810190610b139190613b56565b612a79565b604051610b26929190613d4e565b60405180910390f35b60007f80ac58cd000000000000000000000000000000000000000000000000000000007bffffffffffffffffffffffffffffffffffffffffffffffffffffffff1916827bffffffffffffffffffffffffffffffffffffffffffffffffffffffff19161480610bfa57507f5b5e139f000000000000000000000000000000000000000000000000000000007bffffffffffffffffffffffffffffffffffffffffffffffffffffffff1916827bffffffffffffffffffffffffffffffffffffffffffffffffffffffff1916145b80610c0a5750610c0982612cfd565b5b9050919050565b606060008054610c209061408b565b80601f0160208091040260200160405190810160405280929190818152602001828054610c4c9061408b565b8015610c995780601f10610c6e57610100808354040283529160200191610c99565b820191906000526020600020905b815481529060010190602001808311610c7c57829003601f168201915b5050505050905090565b6000610cae82612d67565b610ced576040517f08c379a0000000000000000000000000000000000000000000000000000000008152600401610ce49061412f565b60405180910390fd5b6004600083815260200190815260200160002060009054906101000a900473ffffffffffffffffffffffffffffffffffffffff169050919050565b6000610d338261167f565b90508073ffffffffffffffffffffffffffffffffffffffff168373ffffffffffffffffffffffffffffffffffffffff161415610da4576040517f08c379a0000000000000000000000000000000000000000000000000000000008152600401610d9b906141c1565b60405180910390fd5b8073ffffffffffffffffffffffffffffffffffffffff16610dc3612dd3565b73ffffffffffffffffffffffffffffffffffffffff161480610df25750610df181610dec612dd3565b61289f565b5b610e31576040517f08c379a0000000000000000000000000000000000000000000000000000000008152600401610e2890614253565b60405180910390fd5b610e3b8383612ddb565b505050565b6000610e4c600b612e94565b610e56600a612e94565b610e60600c612e94565b610e6a91906142a2565b610e7491906142a2565b905090565b610e81612dd3565b73ffffffffffffffffffffffffffffffffffffffff16610e9f611a3b565b73ffffffffffffffffffffffffffffffffffffffff1614610ef5576040517f08c379a0000000000000000000000000000000000000000000000000000000008152600401610eec90614344565b60405180910390fd5b80600e60006101000a81548173ffffffffffffffffffffffffffffffffffffffff021916908373ffffffffffffffffffffffffffffffffffffffff16021790555050565b6000600d544210158015610f5057506000600d5414155b905090565b600e60169054906101000a900460ff1681565b610f70612dd3565b73ffffffffffffffffffffffffffffffffffffffff16610f8e611a3b565b73ffffffffffffffffffffffffffffffffffffffff1614610fe4576040517f08c379a0000000000000000000000000000000000000000000000000000000008152600401610fdb90614344565b60405180910390fd5b80600e60156101000a81548160ff02191690831515021790555050565b61101261100c612dd3565b82612ea2565b611051576040517f08c379a0000000000000000000000000000000000000000000000000000000008152600401611048906143d6565b60405180910390fd5b61105c838383612f80565b505050565b6000600e60149054906101000a900460ff16905090565b600e60159054906101000a900460ff1681565b60006004601061109b91906143f6565b6110a591906143f6565b81565b601081565b600f6020528060005260406000206000915054906101000a900473ffffffffffffffffffffffffffffffffffffffff1681565b60106020528060005260406000206000915090505481565b611100612dd3565b73ffffffffffffffffffffffffffffffffffffffff1661111e611a3b565b73ffffffffffffffffffffffffffffffffffffffff1614611174576040517f08c379a000000000000000000000000000000000000000000000000000000000815260040161116b90614344565b60405180910390fd5b60003373ffffffffffffffffffffffffffffffffffffffff164760405161119a9061445b565b60006040518083038185875af1925050503d80600081146111d7576040519150601f19603f3d011682016040523d82523d6000602084013e6111dc565b606091505b5050905080611220576040517f08c379a0000000000000000000000000000000000000000000000000000000008152600401611217906144bc565b60405180910390fd5b50565b600060096000838152602001908152602001600020600001549050919050565b61125e8383836040518060200160405280600081525061233c565b505050565b61126b612dd3565b73ffffffffffffffffffffffffffffffffffffffff16611289611a3b565b73ffffffffffffffffffffffffffffffffffffffff16146112df576040517f08c379a00000000000000000000000000000000000000000000000000000000081526004016112d690614344565b60405180910390fd5b80600d8190555050565b60008060026007541415611332576040517f08c379a000000000000000000000000000000000000000000000000000000000815260040161132990614528565b60405180910390fd5b6002600781905550611342610f39565b801561135a5750600e60159054906101000a900460ff165b611399576040517f08c379a000000000000000000000000000000000000000000000000000000000815260040161139090614594565b60405180910390fd5b6000831180156113aa575060058311155b6113e9576040517f08c379a00000000000000000000000000000000000000000000000000000000081526004016113e090614600565b60405180910390fd5b6000600460106113f991906143f6565b61140391906143f6565b8361140e600a612e94565b61141891906142a2565b1115611459576040517f08c379a00000000000000000000000000000000000000000000000000000000081526004016114509061466c565b60405180910390fd5b60046001611467600a612e94565b61147191906142a2565b11156114d05734666a94d74f4300008461148b919061468c565b146114cb576040517f08c379a00000000000000000000000000000000000000000000000000000000081526004016114c290614732565b60405180910390fd5b611514565b60003414611513576040517f08c379a000000000000000000000000000000000000000000000000000000000815260040161150a9061479e565b60405180910390fd5b5b600583601060003373ffffffffffffffffffffffffffffffffffffffff1673ffffffffffffffffffffffffffffffffffffffff1681526020019081526020016000205461156191906142a2565b11156115a2576040517f08c379a00000000000000000000000000000000000000000000000000000000081526004016115999061480a565b60405180910390fd5b600060016115b0600a612e94565b6115ba91906142a2565b905060005b848110156115f8576115d1600a6131dc565b6115e56115de600a612e94565b60806131f2565b80806115f09061482a565b9150506115bf565b5083601060003373ffffffffffffffffffffffffffffffffffffffff1673ffffffffffffffffffffffffffffffffffffffff168152602001908152602001600020600082825461164891906142a2565b92505081905550808492509250506001600781905550915091565b600081565b6000600860009054906101000a900460ff16905090565b6000806002600084815260200190815260200160002060009054906101000a900473ffffffffffffffffffffffffffffffffffffffff169050600073ffffffffffffffffffffffffffffffffffffffff168173ffffffffffffffffffffffffffffffffffffffff161415611728576040517f08c379a000000000000000000000000000000000000000000000000000000000815260040161171f906148e5565b60405180910390fd5b80915050919050565b611739612dd3565b73ffffffffffffffffffffffffffffffffffffffff16611757611a3b565b73ffffffffffffffffffffffffffffffffffffffff16146117ad576040517f08c379a00000000000000000000000000000000000000000000000000000000081526004016117a490614344565b60405180910390fd5b80600e60146101000a81548160ff02191690831515021790555050565b6000600e60169054906101000a900460ff16905090565b60008073ffffffffffffffffffffffffffffffffffffffff168273ffffffffffffffffffffffffffffffffffffffff161415611852576040517f08c379a000000000000000000000000000000000000000000000000000000000815260040161184990614977565b60405180910390fd5b600360008373ffffffffffffffffffffffffffffffffffffffff1673ffffffffffffffffffffffffffffffffffffffff168152602001908152602001600020549050919050565b6118a1612dd3565b73ffffffffffffffffffffffffffffffffffffffff166118bf611a3b565b73ffffffffffffffffffffffffffffffffffffffff1614611915576040517f08c379a000000000000000000000000000000000000000000000000000000000815260040161190c90614344565b60405180910390fd5b61191f6000613277565b565b611929612dd3565b73ffffffffffffffffffffffffffffffffffffffff16611947611a3b565b73ffffffffffffffffffffffffffffffffffffffff161461199d576040517f08c379a000000000000000000000000000000000000000000000000000000000815260040161199490614344565b60405180910390fd5b600260075414156119e3576040517f08c379a00000000000000000000000000000000000000000000000000000000081526004016119da90614528565b60405180910390fd5b600260078190555080601160008473ffffffffffffffffffffffffffffffffffffffff1673ffffffffffffffffffffffffffffffffffffffff1681526020019081526020016000208190555060016007819055505050565b6000600660009054906101000a900473ffffffffffffffffffffffffffffffffffffffff16905090565b606060018054611a749061408b565b80601f0160208091040260200160405190810160405280929190818152602001828054611aa09061408b565b8015611aed5780601f10611ac257610100808354040283529160200191611aed565b820191906000526020600020905b815481529060010190602001808311611ad057829003601f168201915b5050505050905090565b6060600073ffffffffffffffffffffffffffffffffffffffff16600f600084815260200190815260200160002060009054906101000a900473ffffffffffffffffffffffffffffffffffffffff1673ffffffffffffffffffffffffffffffffffffffff161415611b9c576040517f08c379a0000000000000000000000000000000000000000000000000000000008152600401611b93906149e3565b60405180910390fd5b600073ffffffffffffffffffffffffffffffffffffffff16600e60009054906101000a900473ffffffffffffffffffffffffffffffffffffffff1673ffffffffffffffffffffffffffffffffffffffff161415611c1357604051806060016040528060268152602001615a6f602691399050611d06565b6000600e60009054906101000a900473ffffffffffffffffffffffffffffffffffffffff1690508073ffffffffffffffffffffffffffffffffffffffff1663b5f83b5f8460096000878152602001908152602001600020600f600088815260200190815260200160002060009054906101000a900473ffffffffffffffffffffffffffffffffffffffff166040518463ffffffff1660e01b8152600401611cbc93929190614a8a565b600060405180830381865afa158015611cd9573d6000803e3d6000fd5b505050506040513d6000823e3d601f19601f82011682018060405250810190611d029190614b62565b9150505b919050565b611d13612dd3565b73ffffffffffffffffffffffffffffffffffffffff168273ffffffffffffffffffffffffffffffffffffffff161415611d81576040517f08c379a0000000000000000000000000000000000000000000000000000000008152600401611d7890614bf7565b60405180910390fd5b8060056000611d8e612dd3565b73ffffffffffffffffffffffffffffffffffffffff1673ffffffffffffffffffffffffffffffffffffffff16815260200190815260200160002060008473ffffffffffffffffffffffffffffffffffffffff1673ffffffffffffffffffffffffffffffffffffffff16815260200190815260200160002060006101000a81548160ff0219169083151502179055508173ffffffffffffffffffffffffffffffffffffffff16611e3b612dd3565b73ffffffffffffffffffffffffffffffffffffffff167f17307eab39ab6107e8899845ad3d59bd9653f200f220920489ca2b5937696c3183604051611e809190613a4a565b60405180910390a35050565b60008060026007541415611ed5576040517f08c379a0000000000000000000000000000000000000000000000000000000008152600401611ecc90614528565b60405180910390fd5b6002600781905550611ee56117ca565b611f24576040517f08c379a0000000000000000000000000000000000000000000000000000000008152600401611f1b90614c63565b60405180910390fd5b600084849050118015611f525750600060046010611f4291906143f6565b611f4c91906143f6565b84849050105b611f91576040517f08c379a0000000000000000000000000000000000000000000000000000000008152600401611f8890614cf5565b60405180910390fd5b6000600285859050611fa39190614d44565b14611fe3576040517f08c379a0000000000000000000000000000000000000000000000000000000008152600401611fda90614de7565b60405180910390fd5b60005b8484905081101561224e5760006004601061200191906143f6565b61200b91906143f6565b85858381811061201e5761201d614e07565b5b9050602002013511158015612071575060006004601061203e91906143f6565b61204891906143f6565b858560018461205791906142a2565b81811061206757612066614e07565b5b9050602002013511155b6120b0576040517f08c379a00000000000000000000000000000000000000000000000000000000081526004016120a790614e82565b60405180910390fd5b6120d28585838181106120c6576120c5614e07565b5b90506020020135612d67565b8015612108575061210785856001846120eb91906142a2565b8181106120fb576120fa614e07565b5b90506020020135612d67565b5b612147576040517f08c379a000000000000000000000000000000000000000000000000000000000815260040161213e90614eee565b60405180910390fd5b3373ffffffffffffffffffffffffffffffffffffffff1661218086868481811061217457612173614e07565b5b9050602002013561167f565b73ffffffffffffffffffffffffffffffffffffffff161480156121fb57503373ffffffffffffffffffffffffffffffffffffffff166121e386866001856121c791906142a2565b8181106121d7576121d6614e07565b5b9050602002013561167f565b73ffffffffffffffffffffffffffffffffffffffff16145b61223a576040517f08c379a000000000000000000000000000000000000000000000000000000000815260040161223190614f5a565b60405180910390fd5b60028161224791906142a2565b9050611fe6565b50600061225b600c612e94565b6001601061226991906142a2565b61227391906142a2565b905060005b85859050811015612316576122cb86868381811061229957612298614e07565b5b9050602002013587876001856122af91906142a2565b8181106122bf576122be614e07565b5b9050602002013561333d565b6122d5600c6131dc565b6123026122e2600c612e94565b600160106122f091906142a2565b6122fa91906142a2565b6101006131f2565b60028161230f91906142a2565b9050612278565b50806002868690506123289190614f7a565b925092505060016007819055509250929050565b61234d612347612dd3565b83612ea2565b61238c576040517f08c379a0000000000000000000000000000000000000000000000000000000008152600401612383906143d6565b60405180910390fd5b612398848484846133cc565b50505050565b666a94d74f43000081565b600e60009054906101000a900473ffffffffffffffffffffffffffffffffffffffff1681565b60606123da82612d67565b612419576040517f08c379a000000000000000000000000000000000000000000000000000000000815260040161241090614ff7565b60405180910390fd5b600073ffffffffffffffffffffffffffffffffffffffff16600e60009054906101000a900473ffffffffffffffffffffffffffffffffffffffff1673ffffffffffffffffffffffffffffffffffffffff1614156124915760405180610120016040528060e7815260200161598860e79139905061254f565b6000600e60009054906101000a900473ffffffffffffffffffffffffffffffffffffffff1690508073ffffffffffffffffffffffffffffffffffffffff1663d10a9bde84600960008781526020019081526020016000206040518363ffffffff1660e01b8152600401612505929190615017565b600060405180830381865afa158015612522573d6000803e3d6000fd5b505050506040513d6000823e3d601f19601f8201168201806040525081019061254b9190614b62565b9150505b919050565b600e60149054906101000a900460ff1681565b600d5481565b6000600260075414156125b5576040517f08c379a00000000000000000000000000000000000000000000000000000000081526004016125ac90614528565b60405180910390fd5b60026007819055506125c5611061565b612604576040517f08c379a00000000000000000000000000000000000000000000000000000000081526004016125fb9061508c565b60405180910390fd5b3373ffffffffffffffffffffffffffffffffffffffff166126248361167f565b73ffffffffffffffffffffffffffffffffffffffff161461267a576040517f08c379a0000000000000000000000000000000000000000000000000000000008152600401612671906150f8565b60405180910390fd5b600073ffffffffffffffffffffffffffffffffffffffff16600f600084815260200190815260200160002060009054906101000a900473ffffffffffffffffffffffffffffffffffffffff1673ffffffffffffffffffffffffffffffffffffffff161461271c576040517f08c379a000000000000000000000000000000000000000000000000000000000815260040161271390615164565b60405180910390fd5b32600f600084815260200190815260200160002060006101000a81548173ffffffffffffffffffffffffffffffffffffffff021916908373ffffffffffffffffffffffffffffffffffffffff160217905550817f833089dd5edab81d836856312c096931511c8b77ee85b40fd6de0a6887dacfff33326040516127a0929190615184565b60405180910390a2600f600083815260200190815260200160002060009054906101000a900473ffffffffffffffffffffffffffffffffffffffff1690506001600781905550919050565b6127f3612dd3565b73ffffffffffffffffffffffffffffffffffffffff16612811611a3b565b73ffffffffffffffffffffffffffffffffffffffff1614612867576040517f08c379a000000000000000000000000000000000000000000000000000000000815260040161285e90614344565b60405180910390fd5b6000600e60156101000a81548160ff0219169083151502179055506001600e60166101000a81548160ff021916908315150217905550565b6000600560008473ffffffffffffffffffffffffffffffffffffffff1673ffffffffffffffffffffffffffffffffffffffff16815260200190815260200160002060008373ffffffffffffffffffffffffffffffffffffffff1673ffffffffffffffffffffffffffffffffffffffff16815260200190815260200160002060009054906101000a900460ff16905092915050565b600481565b6000601160008373ffffffffffffffffffffffffffffffffffffffff1673ffffffffffffffffffffffffffffffffffffffff168152602001908152602001600020549050919050565b612989612dd3565b73ffffffffffffffffffffffffffffffffffffffff166129a7611a3b565b73ffffffffffffffffffffffffffffffffffffffff16146129fd576040517f08c379a00000000000000000000000000000000000000000000000000000000081526004016129f490614344565b60405180910390fd5b600073ffffffffffffffffffffffffffffffffffffffff168173ffffffffffffffffffffffffffffffffffffffff161415612a6d576040517f08c379a0000000000000000000000000000000000000000000000000000000008152600401612a649061521f565b60405180910390fd5b612a7681613277565b50565b60008060026007541415612ac2576040517f08c379a0000000000000000000000000000000000000000000000000000000008152600401612ab990614528565b60405180910390fd5b6002600781905550600083118015612adb575060058311155b612b1a576040517f08c379a0000000000000000000000000000000000000000000000000000000008152600401612b119061528b565b60405180910390fd5b600083612b27600b612e94565b612b3191906142a2565b1115612b72576040517f08c379a0000000000000000000000000000000000000000000000000000000008152600401612b699061531d565b60405180910390fd5b82601160003373ffffffffffffffffffffffffffffffffffffffff1673ffffffffffffffffffffffffffffffffffffffff168152602001908152602001600020541015612bf4576040517f08c379a0000000000000000000000000000000000000000000000000000000008152600401612beb906153af565b60405180910390fd5b60006001612c02600b612e94565b600060046010612c1291906143f6565b612c1c91906143f6565b612c2691906142a2565b612c3091906142a2565b905060005b84811015612c9257612c47600b6131dc565b612c7f612c54600b612e94565b600060046010612c6491906143f6565b612c6e91906143f6565b612c7891906142a2565b60806131f2565b8080612c8a9061482a565b915050612c35565b5083601160003373ffffffffffffffffffffffffffffffffffffffff1673ffffffffffffffffffffffffffffffffffffffff1681526020019081526020016000206000828254612ce291906143f6565b92505081905550808492509250506001600781905550915091565b60007f01ffc9a7000000000000000000000000000000000000000000000000000000007bffffffffffffffffffffffffffffffffffffffffffffffffffffffff1916827bffffffffffffffffffffffffffffffffffffffffffffffffffffffff1916149050919050565b60008073ffffffffffffffffffffffffffffffffffffffff166002600084815260200190815260200160002060009054906101000a900473ffffffffffffffffffffffffffffffffffffffff1673ffffffffffffffffffffffffffffffffffffffff1614159050919050565b600033905090565b816004600083815260200190815260200160002060006101000a81548173ffffffffffffffffffffffffffffffffffffffff021916908373ffffffffffffffffffffffffffffffffffffffff160217905550808273ffffffffffffffffffffffffffffffffffffffff16612e4e8361167f565b73ffffffffffffffffffffffffffffffffffffffff167f8c5be1e5ebec7d5bd14f71427d1e84f3dd0314c0f7b2291e5b200ac8c7c3b92560405160405180910390a45050565b600081600001549050919050565b6000612ead82612d67565b612eec576040517f08c379a0000000000000000000000000000000000000000000000000000000008152600401612ee390615441565b60405180910390fd5b6000612ef78361167f565b90508073ffffffffffffffffffffffffffffffffffffffff168473ffffffffffffffffffffffffffffffffffffffff161480612f6657508373ffffffffffffffffffffffffffffffffffffffff16612f4e84610ca3565b73ffffffffffffffffffffffffffffffffffffffff16145b80612f775750612f76818561289f565b5b91505092915050565b8273ffffffffffffffffffffffffffffffffffffffff16612fa08261167f565b73ffffffffffffffffffffffffffffffffffffffff1614612ff6576040517f08c379a0000000000000000000000000000000000000000000000000000000008152600401612fed906154d3565b60405180910390fd5b600073ffffffffffffffffffffffffffffffffffffffff168273ffffffffffffffffffffffffffffffffffffffff161415613066576040517f08c379a000000000000000000000000000000000000000000000000000000000815260040161305d90615565565b60405180910390fd5b613071838383613428565b61307c600082612ddb565b6001600360008573ffffffffffffffffffffffffffffffffffffffff1673ffffffffffffffffffffffffffffffffffffffff16815260200190815260200160002060008282546130cc91906143f6565b925050819055506001600360008473ffffffffffffffffffffffffffffffffffffffff1673ffffffffffffffffffffffffffffffffffffffff168152602001908152602001600020600082825461312391906142a2565b92505081905550816002600083815260200190815260200160002060006101000a81548173ffffffffffffffffffffffffffffffffffffffff021916908373ffffffffffffffffffffffffffffffffffffffff160217905550808273ffffffffffffffffffffffffffffffffffffffff168473ffffffffffffffffffffffffffffffffffffffff167fddf252ad1be2c89b69c2b068fc378daa952ba7f163c4a11628f55a4df523b3ef60405160405180910390a4505050565b6001816000016000828254019250508190555050565b6131fa61397c565b8233444260405160200161321194939291906155ee565b6040516020818303038152906040528051906020012060001c81600001818152505081816020018181525050613247338461342d565b80600960008581526020019081526020016000206000820151816000015560208201518160010155905050505050565b6000600660009054906101000a900473ffffffffffffffffffffffffffffffffffffffff16905081600660006101000a81548173ffffffffffffffffffffffffffffffffffffffff021916908373ffffffffffffffffffffffffffffffffffffffff1602179055508173ffffffffffffffffffffffffffffffffffffffff168173ffffffffffffffffffffffffffffffffffffffff167f8be0079c531659141344cd1fd0a4f28419497f9722a3daafe3b4186f6b6457e060405160405180910390a35050565b61334682612d67565b8015613357575061335681612d67565b5b80156133635750808214155b6133a2576040517f08c379a0000000000000000000000000000000000000000000000000000000008152600401613399906156ae565b60405180910390fd5b6133ab8261344b565b6133b5600a61355c565b6133be8161344b565b6133c8600a61355c565b5050565b6133d7848484612f80565b6133e3848484846135b8565b613422576040517f08c379a000000000000000000000000000000000000000000000000000000000815260040161341990615740565b60405180910390fd5b50505050565b505050565b613447828260405180602001604052806000815250613740565b5050565b60006134568261167f565b905061346481600084613428565b61346f600083612ddb565b6001600360008373ffffffffffffffffffffffffffffffffffffffff1673ffffffffffffffffffffffffffffffffffffffff16815260200190815260200160002060008282546134bf91906143f6565b925050819055506002600083815260200190815260200160002060006101000a81549073ffffffffffffffffffffffffffffffffffffffff021916905581600073ffffffffffffffffffffffffffffffffffffffff168273ffffffffffffffffffffffffffffffffffffffff167fddf252ad1be2c89b69c2b068fc378daa952ba7f163c4a11628f55a4df523b3ef60405160405180910390a45050565b600081600001549050600081116135a8576040517f08c379a000000000000000000000000000000000000000000000000000000000815260040161359f906157ac565b60405180910390fd5b6001810382600001819055505050565b60006135d98473ffffffffffffffffffffffffffffffffffffffff1661379b565b15613733578373ffffffffffffffffffffffffffffffffffffffff1663150b7a02613602612dd3565b8786866040518563ffffffff1660e01b81526004016136249493929190615821565b6020604051808303816000875af192505050801561366057506040513d601f19601f8201168201806040525081019061365d9190615882565b60015b6136e3573d8060008114613690576040519150601f19603f3d011682016040523d82523d6000602084013e613695565b606091505b506000815114156136db576040517f08c379a00000000000000000000000000000000000000000000000000000000081526004016136d290615740565b60405180910390fd5b805181602001fd5b63150b7a0260e01b7bffffffffffffffffffffffffffffffffffffffffffffffffffffffff1916817bffffffffffffffffffffffffffffffffffffffffffffffffffffffff191614915050613738565b600190505b949350505050565b61374a83836137ae565b61375760008484846135b8565b613796576040517f08c379a000000000000000000000000000000000000000000000000000000000815260040161378d90615740565b60405180910390fd5b505050565b600080823b905060008111915050919050565b600073ffffffffffffffffffffffffffffffffffffffff168273ffffffffffffffffffffffffffffffffffffffff16141561381e576040517f08c379a0000000000000000000000000000000000000000000000000000000008152600401613815906158fb565b60405180910390fd5b61382781612d67565b15613867576040517f08c379a000000000000000000000000000000000000000000000000000000000815260040161385e90615967565b60405180910390fd5b61387360008383613428565b6001600360008473ffffffffffffffffffffffffffffffffffffffff1673ffffffffffffffffffffffffffffffffffffffff16815260200190815260200160002060008282546138c391906142a2565b92505081905550816002600083815260200190815260200160002060006101000a81548173ffffffffffffffffffffffffffffffffffffffff021916908373ffffffffffffffffffffffffffffffffffffffff160217905550808273ffffffffffffffffffffffffffffffffffffffff16600073ffffffffffffffffffffffffffffffffffffffff167fddf252ad1be2c89b69c2b068fc378daa952ba7f163c4a11628f55a4df523b3ef60405160405180910390a45050565b604051806040016040528060008152602001600081525090565b6000604051905090565b600080fd5b600080fd5b60007fffffffff0000000000000000000000000000000000000000000000000000000082169050919050565b6139df816139aa565b81146139ea57600080fd5b50565b6000813590506139fc816139d6565b92915050565b600060208284031215613a1857613a176139a0565b5b6000613a26848285016139ed565b91505092915050565b60008115159050919050565b613a4481613a2f565b82525050565b6000602082019050613a5f6000830184613a3b565b92915050565b600081519050919050565b600082825260208201905092915050565b60005b83811015613a9f578082015181840152602081019050613a84565b83811115613aae576000848401525b50505050565b6000601f19601f8301169050919050565b6000613ad082613a65565b613ada8185613a70565b9350613aea818560208601613a81565b613af381613ab4565b840191505092915050565b60006020820190508181036000830152613b188184613ac5565b905092915050565b6000819050919050565b613b3381613b20565b8114613b3e57600080fd5b50565b600081359050613b5081613b2a565b92915050565b600060208284031215613b6c57613b6b6139a0565b5b6000613b7a84828501613b41565b91505092915050565b600073ffffffffffffffffffffffffffffffffffffffff82169050919050565b6000613bae82613b83565b9050919050565b613bbe81613ba3565b82525050565b6000602082019050613bd96000830184613bb5565b92915050565b613be881613ba3565b8114613bf357600080fd5b50565b600081359050613c0581613bdf565b92915050565b60008060408385031215613c2257613c216139a0565b5b6000613c3085828601613bf6565b9250506020613c4185828601613b41565b9150509250929050565b613c5481613b20565b82525050565b6000602082019050613c6f6000830184613c4b565b92915050565b600060208284031215613c8b57613c8a6139a0565b5b6000613c9984828501613bf6565b91505092915050565b613cab81613a2f565b8114613cb657600080fd5b50565b600081359050613cc881613ca2565b92915050565b600060208284031215613ce457613ce36139a0565b5b6000613cf284828501613cb9565b91505092915050565b600080600060608486031215613d1457613d136139a0565b5b6000613d2286828701613bf6565b9350506020613d3386828701613bf6565b9250506040613d4486828701613b41565b9150509250925092565b6000604082019050613d636000830185613c4b565b613d706020830184613c4b565b9392505050565b60008060408385031215613d8e57613d8d6139a0565b5b6000613d9c85828601613bf6565b9250506020613dad85828601613cb9565b9150509250929050565b600080fd5b600080fd5b600080fd5b60008083601f840112613ddc57613ddb613db7565b5b8235905067ffffffffffffffff811115613df957613df8613dbc565b5b602083019150836020820283011115613e1557613e14613dc1565b5b9250929050565b60008060208385031215613e3357613e326139a0565b5b600083013567ffffffffffffffff811115613e5157613e506139a5565b5b613e5d85828601613dc6565b92509250509250929050565b600080fd5b7f4e487b7100000000000000000000000000000000000000000000000000000000600052604160045260246000fd5b613ea682613ab4565b810181811067ffffffffffffffff82111715613ec557613ec4613e6e565b5b80604052505050565b6000613ed8613996565b9050613ee48282613e9d565b919050565b600067ffffffffffffffff821115613f0457613f03613e6e565b5b613f0d82613ab4565b9050602081019050919050565b82818337600083830152505050565b6000613f3c613f3784613ee9565b613ece565b905082815260208101848484011115613f5857613f57613e69565b5b613f63848285613f1a565b509392505050565b600082601f830112613f8057613f7f613db7565b5b8135613f90848260208601613f29565b91505092915050565b60008060008060808587031215613fb357613fb26139a0565b5b6000613fc187828801613bf6565b9450506020613fd287828801613bf6565b9350506040613fe387828801613b41565b925050606085013567ffffffffffffffff811115614004576140036139a5565b5b61401087828801613f6b565b91505092959194509250565b60008060408385031215614033576140326139a0565b5b600061404185828601613bf6565b925050602061405285828601613bf6565b9150509250929050565b7f4e487b7100000000000000000000000000000000000000000000000000000000600052602260045260246000fd5b600060028204905060018216806140a357607f821691505b602082108114156140b7576140b661405c565b5b50919050565b7f4552433732313a20617070726f76656420717565727920666f72206e6f6e657860008201527f697374656e7420746f6b656e0000000000000000000000000000000000000000602082015250565b6000614119602c83613a70565b9150614124826140bd565b604082019050919050565b600060208201905081810360008301526141488161410c565b9050919050565b7f4552433732313a20617070726f76616c20746f2063757272656e74206f776e6560008201527f7200000000000000000000000000000000000000000000000000000000000000602082015250565b60006141ab602183613a70565b91506141b68261414f565b604082019050919050565b600060208201905081810360008301526141da8161419e565b9050919050565b7f4552433732313a20617070726f76652063616c6c6572206973206e6f74206f7760008201527f6e6572206e6f7220617070726f76656420666f7220616c6c0000000000000000602082015250565b600061423d603883613a70565b9150614248826141e1565b604082019050919050565b6000602082019050818103600083015261426c81614230565b9050919050565b7f4e487b7100000000000000000000000000000000000000000000000000000000600052601160045260246000fd5b60006142ad82613b20565b91506142b883613b20565b9250827fffffffffffffffffffffffffffffffffffffffffffffffffffffffffffffffff038211156142ed576142ec614273565b5b828201905092915050565b7f4f776e61626c653a2063616c6c6572206973206e6f7420746865206f776e6572600082015250565b600061432e602083613a70565b9150614339826142f8565b602082019050919050565b6000602082019050818103600083015261435d81614321565b9050919050565b7f4552433732313a207472616e736665722063616c6c6572206973206e6f74206f60008201527f776e6572206e6f7220617070726f766564000000000000000000000000000000602082015250565b60006143c0603183613a70565b91506143cb82614364565b604082019050919050565b600060208201905081810360008301526143ef816143b3565b9050919050565b600061440182613b20565b915061440c83613b20565b92508282101561441f5761441e614273565b5b828203905092915050565b600081905092915050565b50565b600061444560008361442a565b915061445082614435565b600082019050919050565b600061446682614438565b9150819050919050565b7f5769746864726177616c206661696c6564000000000000000000000000000000600082015250565b60006144a6601183613a70565b91506144b182614470565b602082019050919050565b600060208201905081810360008301526144d581614499565b9050919050565b7f5265656e7472616e637947756172643a207265656e7472616e742063616c6c00600082015250565b6000614512601f83613a70565b915061451d826144dc565b602082019050919050565b6000602082019050818103600083015261454181614505565b9050919050565b7f5075626c69632073616c65206e6f74206f70656e000000000000000000000000600082015250565b600061457e601483613a70565b915061458982614548565b602082019050919050565b600060208201905081810360008301526145ad81614571565b9050919050565b7f496e76616c6964205377656174657220636f756e740000000000000000000000600082015250565b60006145ea601583613a70565b91506145f5826145b4565b602082019050919050565b60006020820190508181036000830152614619816145dd565b9050919050565b7f416c6c2053776561746572732068617665206265656e206d696e746564000000600082015250565b6000614656601d83613a70565b915061466182614620565b602082019050919050565b6000602082019050818103600083015261468581614649565b9050919050565b600061469782613b20565b91506146a283613b20565b9250817fffffffffffffffffffffffffffffffffffffffffffffffffffffffffffffffff04831182151516156146db576146da614273565b5b828202905092915050565b7f496e636f727265637420616d6f756e74206f662065746865722073656e740000600082015250565b600061471c601e83613a70565b9150614727826146e6565b602082019050919050565b6000602082019050818103600083015261474b8161470f565b9050919050565b7f446f206e6f742073656e6420657468657220666f722066726565206d696e7400600082015250565b6000614788601f83613a70565b915061479382614752565b602082019050919050565b600060208201905081810360008301526147b78161477b565b9050919050565b7f596f752063616e6e6f74206d696e7420736f206d616e79205377656174657273600082015250565b60006147f4602083613a70565b91506147ff826147be565b602082019050919050565b60006020820190508181036000830152614823816147e7565b9050919050565b600061483582613b20565b91507fffffffffffffffffffffffffffffffffffffffffffffffffffffffffffffffff82141561486857614867614273565b5b600182019050919050565b7f4552433732313a206f776e657220717565727920666f72206e6f6e657869737460008201527f656e7420746f6b656e0000000000000000000000000000000000000000000000602082015250565b60006148cf602983613a70565b91506148da82614873565b604082019050919050565b600060208201905081810360008301526148fe816148c2565b9050919050565b7f4552433732313a2062616c616e636520717565727920666f7220746865207a6560008201527f726f206164647265737300000000000000000000000000000000000000000000602082015250565b6000614961602a83613a70565b915061496c82614905565b604082019050919050565b6000602082019050818103600083015261499081614954565b9050919050565b7f4e6f742079657420636c61696d656420746f6b656e0000000000000000000000600082015250565b60006149cd601583613a70565b91506149d882614997565b602082019050919050565b600060208201905081810360008301526149fc816149c0565b9050919050565b60008160001c9050919050565b6000819050919050565b6000614a2d614a2883614a03565b614a10565b9050919050565b614a3d81613b20565b82525050565b604082016000808301549050614a5881614a1a565b614a656000860182614a34565b5060018301549050614a7681614a1a565b614a836020860182614a34565b5050505050565b6000608082019050614a9f6000830186613c4b565b614aac6020830185614a43565b614ab96060830184613bb5565b949350505050565b600067ffffffffffffffff821115614adc57614adb613e6e565b5b614ae582613ab4565b9050602081019050919050565b6000614b05614b0084614ac1565b613ece565b905082815260208101848484011115614b2157614b20613e69565b5b614b2c848285613a81565b509392505050565b600082601f830112614b4957614b48613db7565b5b8151614b59848260208601614af2565b91505092915050565b600060208284031215614b7857614b776139a0565b5b600082015167ffffffffffffffff811115614b9657614b956139a5565b5b614ba284828501614b34565b91505092915050565b7f4552433732313a20617070726f766520746f2063616c6c657200000000000000600082015250565b6000614be1601983613a70565b9150614bec82614bab565b602082019050919050565b60006020820190508181036000830152614c1081614bd4565b9050919050565b7f4275726e696e67206e6f74206f70656e00000000000000000000000000000000600082015250565b6000614c4d601083613a70565b9150614c5882614c17565b602082019050919050565b60006020820190508181036000830152614c7c81614c40565b9050919050565b7f4e6f20746f6b656e206f722065786365656473206578697374696e67206e756d60008201527f626572206f6620746f6b656e7300000000000000000000000000000000000000602082015250565b6000614cdf602d83613a70565b9150614cea82614c83565b604082019050919050565b60006020820190508181036000830152614d0e81614cd2565b9050919050565b7f4e487b7100000000000000000000000000000000000000000000000000000000600052601260045260246000fd5b6000614d4f82613b20565b9150614d5a83613b20565b925082614d6a57614d69614d15565b5b828206905092915050565b7f546865206e756d626572206f6620746f6b656e7320746f206275726e206d757360008201527f74206265206576656e0000000000000000000000000000000000000000000000602082015250565b6000614dd1602983613a70565b9150614ddc82614d75565b604082019050919050565b60006020820190508181036000830152614e0081614dc4565b9050919050565b7f4e487b7100000000000000000000000000000000000000000000000000000000600052603260045260246000fd5b7f546f6b656e206e6f74206275726e61626c650000000000000000000000000000600082015250565b6000614e6c601283613a70565b9150614e7782614e36565b602082019050919050565b60006020820190508181036000830152614e9b81614e5f565b9050919050565b7f547279696e6720746f206275726e206e6f6e6578697374656e7420746f6b656e600082015250565b6000614ed8602083613a70565b9150614ee382614ea2565b602082019050919050565b60006020820190508181036000830152614f0781614ecb565b9050919050565b7f4275726e696e67206e6f74206f776e656420746f6b656e000000000000000000600082015250565b6000614f44601783613a70565b9150614f4f82614f0e565b602082019050919050565b60006020820190508181036000830152614f7381614f37565b9050919050565b6000614f8582613b20565b9150614f9083613b20565b925082614fa057614f9f614d15565b5b828204905092915050565b7f55524920717565727920666f72206e6f6e6578697374656e7420746f6b656e00600082015250565b6000614fe1601f83613a70565b9150614fec82614fab565b602082019050919050565b6000602082019050818103600083015261501081614fd4565b9050919050565b600060608201905061502c6000830185613c4b565b6150396020830184614a43565b9392505050565b7f436c61696d696e67206e6f74206f70656e000000000000000000000000000000600082015250565b6000615076601183613a70565b915061508182615040565b602082019050919050565b600060208201905081810360008301526150a581615069565b9050919050565b7f436c61696d696e67206e6f74206f776e656420746f6b656e0000000000000000600082015250565b60006150e2601883613a70565b91506150ed826150ac565b602082019050919050565b60006020820190508181036000830152615111816150d5565b9050919050565b7f546f6b656e20616c726561647920636c61696d65640000000000000000000000600082015250565b600061514e601583613a70565b915061515982615118565b602082019050919050565b6000602082019050818103600083015261517d81615141565b9050919050565b60006040820190506151996000830185613bb5565b6151a66020830184613bb5565b9392505050565b7f4f776e61626c653a206e6577206f776e657220697320746865207a65726f206160008201527f6464726573730000000000000000000000000000000000000000000000000000602082015250565b6000615209602683613a70565b9150615214826151ad565b604082019050919050565b60006020820190508181036000830152615238816151fc565b9050919050565b7f496e76616c696420636f756e7400000000000000000000000000000000000000600082015250565b6000615275600d83613a70565b91506152808261523f565b602082019050919050565b600060208201905081810360008301526152a481615268565b9050919050565b7f416c6c2072657365727665642053776561746572732068617665206265656e2060008201527f6d696e7465640000000000000000000000000000000000000000000000000000602082015250565b6000615307602683613a70565b9150615312826152ab565b604082019050919050565b60006020820190508181036000830152615336816152fa565b9050919050565b7f596f752063616e6e6f74206d696e742074686973206d616e792072657365727660008201527f6564205377656174657273000000000000000000000000000000000000000000602082015250565b6000615399602b83613a70565b91506153a48261533d565b604082019050919050565b600060208201905081810360008301526153c88161538c565b9050919050565b7f4552433732313a206f70657261746f7220717565727920666f72206e6f6e657860008201527f697374656e7420746f6b656e0000000000000000000000000000000000000000602082015250565b600061542b602c83613a70565b9150615436826153cf565b604082019050919050565b6000602082019050818103600083015261545a8161541e565b9050919050565b7f4552433732313a207472616e73666572206f6620746f6b656e2074686174206960008201527f73206e6f74206f776e0000000000000000000000000000000000000000000000602082015250565b60006154bd602983613a70565b91506154c882615461565b604082019050919050565b600060208201905081810360008301526154ec816154b0565b9050919050565b7f4552433732313a207472616e7366657220746f20746865207a65726f2061646460008201527f7265737300000000000000000000000000000000000000000000000000000000602082015250565b600061554f602483613a70565b915061555a826154f3565b604082019050919050565b6000602082019050818103600083015261557e81615542565b9050919050565b6000819050919050565b6155a061559b82613b20565b615585565b82525050565b60008160601b9050919050565b60006155be826155a6565b9050919050565b60006155d0826155b3565b9050919050565b6155e86155e382613ba3565b6155c5565b82525050565b60006155fa828761558f565b60208201915061560a82866155d7565b60148201915061561a828561558f565b60208201915061562a828461558f565b60208201915081905095945050505050565b7f547279696e6720746f206275726e206e6f6e6578697374656e74206f7220616c60008201527f7265616479206275726e656420746f6b656e0000000000000000000000000000602082015250565b6000615698603283613a70565b91506156a38261563c565b604082019050919050565b600060208201905081810360008301526156c78161568b565b9050919050565b7f4552433732313a207472616e7366657220746f206e6f6e20455243373231526560008201527f63656976657220696d706c656d656e7465720000000000000000000000000000602082015250565b600061572a603283613a70565b9150615735826156ce565b604082019050919050565b600060208201905081810360008301526157598161571d565b9050919050565b7f436f756e7465723a2064656372656d656e74206f766572666c6f770000000000600082015250565b6000615796601b83613a70565b91506157a182615760565b602082019050919050565b600060208201905081810360008301526157c581615789565b9050919050565b600081519050919050565b600082825260208201905092915050565b60006157f3826157cc565b6157fd81856157d7565b935061580d818560208601613a81565b61581681613ab4565b840191505092915050565b60006080820190506158366000830187613bb5565b6158436020830186613bb5565b6158506040830185613c4b565b818103606083015261586281846157e8565b905095945050505050565b60008151905061587c816139d6565b92915050565b600060208284031215615898576158976139a0565b5b60006158a68482850161586d565b91505092915050565b7f4552433732313a206d696e7420746f20746865207a65726f2061646472657373600082015250565b60006158e5602083613a70565b91506158f0826158af565b602082019050919050565b60006020820190508181036000830152615914816158d8565b9050919050565b7f4552433732313a20746f6b656e20616c7265616479206d696e74656400000000600082015250565b6000615951601c83613a70565b915061595c8261591b565b602082019050919050565b6000602082019050818103600083015261598081615944565b905091905056fe7b226e616d65223a20224f6e20436861696e204368726973746d61732053776561746572222c20226465736372697074696f6e223a20225468652046697273742c2031303025204f6e2d436861696e204368726973746d61732053776561746572207061747465726e2067656e657261746f722077697468207265616c20776f726c64207574696c69747921222c2022696d616765223a202268747470733a2f2f73776561746572736f6e636861696e2e73332e616d617a6f6e6177732e636f6d2f7072652d72657665616c2f7072652d72657665616c2d7468756d626e61696c2e706e67227d7b226572726f72223a20224e6f2072656e646572696e6720636f6e747261637420736574227da264697066735822122013a3563f805ef84ec7a1e60bed7ed2c72f4fdfbb22fc7e5e44bae43cdce8834e64736f6c634300080a0033",
  "immutableReferences": {},
  "source": "// SPDX-License-Identifier: MIT\npragma solidity ^0.8.10;\n\nimport \"@openzeppelin/contracts/token/ERC721/ERC721.sol\";\nimport \"@openzeppelin/contracts/security/ReentrancyGuard.sol\";\nimport \"@openzeppelin/contracts/security/Pausable.sol\";\nimport \"@openzeppelin/contracts/access/Ownable.sol\";\nimport \"@openzeppelin/contracts/utils/Counters.sol\";\nimport \"@openzeppelin/contracts/utils/Strings.sol\";\n\nimport \"./OnChainSweatersTypes.sol\";\nimport \"./IOnChainSweatersRenderer.sol\";\n\ncontract OnChainSweaters is ERC721, Ownable, ReentrancyGuard, Pausable {\n    mapping(uint256 => OnChainSweatersTypes.OnChainSweater) sweaters;\n    event GenerateSweater(uint256 indexed tokenId, uint256 dna);\n    event ClaimedSweater(address claimer, uint256 indexed tokenId, address tx);\n    using Counters for Counters.Counter;\n\n    Counters.Counter private _tokenIds;\n    Counters.Counter private _reservedTokenIds;\n    Counters.Counter private _hdTokens; // after burn tokens\n\n    uint256 public constant MAX_FREE_MINT_SUPPLY = 4;//500;\n    uint256 public constant MAX_SUPPLY = 16;//3333;\n    uint256 public constant FOUNDERS_RESERVE_AMOUNT = 0;//50;\n    uint256 public constant MAX_PUBLIC_SUPPLY = MAX_SUPPLY - MAX_FREE_MINT_SUPPLY - FOUNDERS_RESERVE_AMOUNT;\n    uint256 public constant MINT_PRICE = 0.03 ether;\n    uint256 private constant MAX_PER_ADDRESS = 5;//10;\n    uint256 private constant FIRST_HD_TOKEN_ID = MAX_SUPPLY + 1; // minted by burning\n\n    uint256 public publicSaleStartTimestamp;\n    address public renderingContractAddress;\n    bool public claimActive = false;\n    bool public mintActive = true;\n    bool public burningActive = false;\n\n    mapping(uint256 => address) public claimedTokenTransactions;\n    mapping(address => uint256) public mintedCounts;\n    mapping(address => uint256) private founderMintCountsRemaining;\n\n    constructor() ERC721(\"Xmas Sweaters OnChain\", \"SWEAT\") {}\n\n    modifier whenPublicSaleActive() {\n        require(isPublicSaleOpen() && mintActive, \"Public sale not open\");\n        _;\n    }\n\n    modifier whenClaimActive() {\n        require(isClaimOpen(), \"Claiming not open\");\n        _;\n    }\n\n    modifier whenBurningActive() {\n        require(isBurningOpen(), \"Burning not open\");\n        _;\n    }\n\n    function getTotalMinted() external view returns (uint256) {\n        return _hdTokens.current() + _tokenIds.current() + _reservedTokenIds.current();\n    }\n    \n\n    function getRemainingFounderMints(address _addr) public view returns (uint256) {\n        return founderMintCountsRemaining[_addr];\n    }\n\n    function isPublicSaleOpen() public view returns (bool) {\n        return block.timestamp >= publicSaleStartTimestamp && publicSaleStartTimestamp != 0;\n    }\n\n    function isClaimOpen() public view returns (bool) {\n        return claimActive;\n    }\n\n    function isBurningOpen() public view returns (bool) {\n        return burningActive;\n    }\n\n    function setRenderingContractAddress(address _renderingContractAddress) public onlyOwner {\n        renderingContractAddress = _renderingContractAddress;\n    }\n\n    function setPublicSaleTimestamp(uint256 timestamp) external onlyOwner {\n        publicSaleStartTimestamp = timestamp;\n    }\n\n    function setMintStatus(bool value) external onlyOwner {\n        mintActive = value;\n    }\n\n    function closeMintsOpenBurning() external onlyOwner {\n        mintActive = false;\n        burningActive = true;\n    }\n\n    function setClaimStatus(bool value) external onlyOwner {\n        claimActive = value;\n    }\n\n    function mintPublicSale(uint256 _count) external payable nonReentrant whenPublicSaleActive returns (uint256, uint256) {\n        require(_count > 0 && _count <= MAX_PER_ADDRESS, \"Invalid Sweater count\"); // To check wallet count\n        require(_tokenIds.current() + _count <= MAX_PUBLIC_SUPPLY, \"All Sweaters have been minted\");\n        if(_tokenIds.current()+1 > MAX_FREE_MINT_SUPPLY) {\n            require(_count * MINT_PRICE == msg.value, \"Incorrect amount of ether sent\");\n        } else {\n            require(msg.value == 0, \"Do not send ether for free mint\");\n        }\n        require(mintedCounts[msg.sender] + _count <= MAX_PER_ADDRESS, \"You cannot mint so many Sweaters\");\n        uint256 firstMintedId = _tokenIds.current() + 1;\n\n        for (uint256 i = 0; i < _count; i++) {\n            _tokenIds.increment();\n            mint(_tokenIds.current(), 128);\n        }\n        mintedCounts[msg.sender] += _count;\n\n        return (firstMintedId, _count);\n    }\n\n    function allocateFounderMint(address _addr, uint256 _count) public onlyOwner nonReentrant {\n        founderMintCountsRemaining[_addr] = _count;\n    }\n\n    function founderMint(uint256 _count) public nonReentrant returns (uint256, uint256) {\n        require(_count > 0 && _count <= MAX_PER_ADDRESS, \"Invalid count\");\n        require(_reservedTokenIds.current() + _count <= FOUNDERS_RESERVE_AMOUNT, \"All reserved Sweaters have been minted\");\n        require(founderMintCountsRemaining[msg.sender] >= _count, \"You cannot mint this many reserved Sweaters\");\n\n        // FIXME: see why onchainrunner use _tokenIds instead of _reservedTokenIds\n        //uint256 firstMintedId = MAX_PUBLIC_SUPPLY + _tokenIds.current() + 1;\n        uint256 firstMintedId = MAX_PUBLIC_SUPPLY + _reservedTokenIds.current() + 1;\n        for (uint256 i = 0; i < _count; i++) {\n            _reservedTokenIds.increment();\n            mint(MAX_PUBLIC_SUPPLY + _reservedTokenIds.current(), 128);\n        }\n        founderMintCountsRemaining[msg.sender] -= _count;\n        return (firstMintedId, _count);\n    }\n\n    function burnAndMint(uint256[] calldata tokenIds) external nonReentrant whenBurningActive returns(uint256, uint256) {\n        require(tokenIds.length > 0 && tokenIds.length < MAX_PUBLIC_SUPPLY, \"No token or exceeds existing number of tokens\");\n        require(tokenIds.length % 2 == 0, \"The number of tokens to burn must be even\");\n        // check the validity of tokens\n        for (uint256 i = 0; i < tokenIds.length; i+=2) {\n            require(tokenIds[i] <= MAX_PUBLIC_SUPPLY && tokenIds[i+1] <= MAX_PUBLIC_SUPPLY, \"Token not burnable\");\n            require(_exists(tokenIds[i]) && _exists(tokenIds[i+1]), \"Trying to burn nonexistent token\");\n            require(ownerOf(tokenIds[i]) == msg.sender && ownerOf(tokenIds[i+1]) == msg.sender, \"Burning not owned token\");\n        }\n        uint256 firstMintedId = FIRST_HD_TOKEN_ID + _hdTokens.current();\n        for (uint256 i = 0; i < tokenIds.length; i+=2) {\n            burn(tokenIds[i], tokenIds[i+1]);\n            _hdTokens.increment();\n            mint(FIRST_HD_TOKEN_ID + _hdTokens.current(), 256);\n        }\n\n        return (firstMintedId, tokenIds.length/2);\n    }\n\n    function burn(uint256 tokenId1, uint256 tokenId2) internal {\n      require(_exists(tokenId1) && _exists(tokenId2) && tokenId1 != tokenId2, \"Trying to burn nonexistent or already burned token\");\n      _burn(tokenId1);\n      _tokenIds.decrement();\n      _burn(tokenId2);\n      _tokenIds.decrement();\n    }\n\n    function mint(uint256 tokenId, uint256 resolution) internal {\n        OnChainSweatersTypes.OnChainSweater memory newSweater;\n        newSweater.dna = uint256(keccak256(abi.encodePacked(\n                tokenId,\n                msg.sender,\n                block.difficulty,\n                block.timestamp\n        )));\n        newSweater.resolution = resolution;\n\n        _safeMint(msg.sender, tokenId);\n        sweaters[tokenId] = newSweater;\n    }\n\n    function tokenURI(uint256 _tokenId) public view virtual override returns (string memory) {\n        require(_exists(_tokenId), \"URI query for nonexistent token\");\n\n        if (renderingContractAddress == address(0)) {\n            return '{\"name\": \"On Chain Christmas Sweater\", \"description\": \"The First, 100% On-Chain Christmas Sweater pattern generator with real world utility!\", \"image\": \"https://sweatersonchain.s3.amazonaws.com/pre-reveal/pre-reveal-thumbnail.png\"}';\n        }\n\n        IOnChainSweatersRenderer renderer = IOnChainSweatersRenderer(renderingContractAddress);\n        return renderer.tokenURI(_tokenId, sweaters[_tokenId]);\n    }\n\n    function claimSweater(uint256 _tokenId) external nonReentrant whenClaimActive returns(address) {\n        require(ownerOf(_tokenId) == msg.sender, \"Claiming not owned token\");\n        require(claimedTokenTransactions[_tokenId] ==  address(0), \"Token already claimed\");\n        claimedTokenTransactions[_tokenId] = tx.origin;\n        emit ClaimedSweater(msg.sender, _tokenId, tx.origin);\n        return claimedTokenTransactions[_tokenId];\n    }\n\n    function getHighQualityClaimedSweater(uint256 _tokenId) external view returns(string memory) {\n        require(claimedTokenTransactions[_tokenId] !=  address(0), \"Not yet claimed token\");\n\n        if (renderingContractAddress == address(0)) {\n            return '{\"error\": \"No rendering contract set\"}';\n        }\n        IOnChainSweatersRenderer renderer = IOnChainSweatersRenderer(renderingContractAddress);\n        return renderer.getHQClaimedSweater(_tokenId, sweaters[_tokenId], claimedTokenTransactions[_tokenId]);\n    }\n\n    function getDna(uint256 _tokenId) public view returns (uint256) {\n        return sweaters[_tokenId].dna;\n    }\n\n\n    receive() external payable {}\n\n    function withdraw() public onlyOwner {\n        (bool success,) = msg.sender.call{value : address(this).balance}('');\n        require(success, \"Withdrawal failed\");\n    }\n\n}",
  "sourcePath": "/Users/emmanuelchappat/Dev_local/smart_contracts_sandbox/onChainSweaters/contracts/OnChainSweaters.sol",
  "compiler": {
    "name": "solc",
    "version": "0.8.10+commit.fc410830.Emscripten.clang"
  },
  "schemaVersion": "3.4.3",
  "updatedAt": "2021-12-07T10:12:25.712Z",
  "networkType": "ethereum",
  "devdoc": {
    "kind": "dev",
    "methods": {
      "approve(address,uint256)": {
        "details": "See {IERC721-approve}."
      },
      "balanceOf(address)": {
        "details": "See {IERC721-balanceOf}."
      },
      "getApproved(uint256)": {
        "details": "See {IERC721-getApproved}."
      },
      "isApprovedForAll(address,address)": {
        "details": "See {IERC721-isApprovedForAll}."
      },
      "name()": {
        "details": "See {IERC721Metadata-name}."
      },
      "owner()": {
        "details": "Returns the address of the current owner."
      },
      "ownerOf(uint256)": {
        "details": "See {IERC721-ownerOf}."
      },
      "paused()": {
        "details": "Returns true if the contract is paused, and false otherwise."
      },
      "renounceOwnership()": {
        "details": "Leaves the contract without owner. It will not be possible to call `onlyOwner` functions anymore. Can only be called by the current owner. NOTE: Renouncing ownership will leave the contract without an owner, thereby removing any functionality that is only available to the owner."
      },
      "safeTransferFrom(address,address,uint256)": {
        "details": "See {IERC721-safeTransferFrom}."
      },
      "safeTransferFrom(address,address,uint256,bytes)": {
        "details": "See {IERC721-safeTransferFrom}."
      },
      "setApprovalForAll(address,bool)": {
        "details": "See {IERC721-setApprovalForAll}."
      },
      "supportsInterface(bytes4)": {
        "details": "See {IERC165-supportsInterface}."
      },
      "symbol()": {
        "details": "See {IERC721Metadata-symbol}."
      },
      "transferFrom(address,address,uint256)": {
        "details": "See {IERC721-transferFrom}."
      },
      "transferOwnership(address)": {
        "details": "Transfers ownership of the contract to a new account (`newOwner`). Can only be called by the current owner."
      }
    },
    "version": 1
  },
  "userdoc": {
    "kind": "user",
    "methods": {},
    "version": 1
  }
}